{
  "_format": "hh-sol-artifact-1",
  "contractName": "VotingContract",
  "sourceName": "contracts/governance/VotingContract.sol",
  "abi": [
    {
      "inputs": [
        {
          "internalType": "address",
          "name": "_sbftToken",
          "type": "address"
        }
      ],
      "stateMutability": "nonpayable",
      "type": "constructor"
    },
    {
      "inputs": [
        {
          "internalType": "address",
          "name": "owner",
          "type": "address"
        }
      ],
      "name": "OwnableInvalidOwner",
      "type": "error"
    },
    {
      "inputs": [
        {
          "internalType": "address",
          "name": "account",
          "type": "address"
        }
      ],
      "name": "OwnableUnauthorizedAccount",
      "type": "error"
    },
    {
      "inputs": [],
      "name": "ReentrancyGuardReentrantCall",
      "type": "error"
    },
    {
      "anonymous": false,
      "inputs": [
        {
          "indexed": true,
          "internalType": "address",
          "name": "previousOwner",
          "type": "address"
        },
        {
          "indexed": true,
          "internalType": "address",
          "name": "newOwner",
          "type": "address"
        }
      ],
      "name": "OwnershipTransferred",
      "type": "event"
    },
    {
      "anonymous": false,
      "inputs": [
        {
          "indexed": true,
          "internalType": "uint256",
          "name": "proposalId",
          "type": "uint256"
        }
      ],
      "name": "ProposalCanceled",
      "type": "event"
    },
    {
      "anonymous": false,
      "inputs": [
        {
          "indexed": true,
          "internalType": "uint256",
          "name": "proposalId",
          "type": "uint256"
        },
        {
          "indexed": false,
          "internalType": "string",
          "name": "title",
          "type": "string"
        },
        {
          "indexed": true,
          "internalType": "address",
          "name": "proposer",
          "type": "address"
        },
        {
          "indexed": false,
          "internalType": "uint256",
          "name": "startTime",
          "type": "uint256"
        },
        {
          "indexed": false,
          "internalType": "uint256",
          "name": "endTime",
          "type": "uint256"
        },
        {
          "indexed": false,
          "internalType": "enum VotingContract.ProposalType",
          "name": "proposalType",
          "type": "uint8"
        }
      ],
      "name": "ProposalCreated",
      "type": "event"
    },
    {
      "anonymous": false,
      "inputs": [
        {
          "indexed": true,
          "internalType": "uint256",
          "name": "proposalId",
          "type": "uint256"
        },
        {
          "indexed": false,
          "internalType": "bool",
          "name": "passed",
          "type": "bool"
        },
        {
          "indexed": false,
          "internalType": "uint256",
          "name": "yesVotes",
          "type": "uint256"
        },
        {
          "indexed": false,
          "internalType": "uint256",
          "name": "noVotes",
          "type": "uint256"
        },
        {
          "indexed": false,
          "internalType": "uint256",
          "name": "totalVotingPower",
          "type": "uint256"
        }
      ],
      "name": "ProposalExecuted",
      "type": "event"
    },
    {
      "anonymous": false,
      "inputs": [
        {
          "indexed": true,
          "internalType": "uint256",
          "name": "proposalId",
          "type": "uint256"
        },
        {
          "indexed": true,
          "internalType": "address",
          "name": "voter",
          "type": "address"
        },
        {
          "indexed": false,
          "internalType": "bool",
          "name": "support",
          "type": "bool"
        },
        {
          "indexed": false,
          "internalType": "uint256",
          "name": "votingPower",
          "type": "uint256"
        }
      ],
      "name": "VoteCast",
      "type": "event"
    },
    {
      "inputs": [],
      "name": "BASIS_POINTS",
      "outputs": [
        {
          "internalType": "uint256",
          "name": "",
          "type": "uint256"
        }
      ],
      "stateMutability": "view",
      "type": "function"
    },
    {
      "inputs": [],
      "name": "MIN_SBFT_TO_PROPOSE",
      "outputs": [
        {
          "internalType": "uint256",
          "name": "",
          "type": "uint256"
        }
      ],
      "stateMutability": "view",
      "type": "function"
    },
    {
      "inputs": [],
      "name": "QUORUM_PERCENTAGE",
      "outputs": [
        {
          "internalType": "uint256",
          "name": "",
          "type": "uint256"
        }
      ],
      "stateMutability": "view",
      "type": "function"
    },
    {
      "inputs": [],
      "name": "VOTING_PERIOD",
      "outputs": [
        {
          "internalType": "uint256",
          "name": "",
          "type": "uint256"
        }
      ],
      "stateMutability": "view",
      "type": "function"
    },
    {
      "inputs": [
        {
          "internalType": "uint256",
          "name": "",
          "type": "uint256"
        }
      ],
      "name": "activeProposals",
      "outputs": [
        {
          "internalType": "uint256",
          "name": "",
          "type": "uint256"
        }
      ],
      "stateMutability": "view",
      "type": "function"
    },
    {
      "inputs": [
        {
          "internalType": "uint256",
          "name": "proposalId",
          "type": "uint256"
        }
      ],
      "name": "canExecuteProposal",
      "outputs": [
        {
          "internalType": "bool",
          "name": "",
          "type": "bool"
        }
      ],
      "stateMutability": "view",
      "type": "function"
    },
    {
      "inputs": [
        {
          "internalType": "uint256",
          "name": "proposalId",
          "type": "uint256"
        }
      ],
      "name": "cancelProposal",
      "outputs": [],
      "stateMutability": "nonpayable",
      "type": "function"
    },
    {
      "inputs": [
        {
          "internalType": "string",
          "name": "title",
          "type": "string"
        },
        {
          "internalType": "string",
          "name": "description",
          "type": "string"
        },
        {
          "internalType": "enum VotingContract.ProposalType",
          "name": "proposalType",
          "type": "uint8"
        }
      ],
      "name": "createProposal",
      "outputs": [],
      "stateMutability": "nonpayable",
      "type": "function"
    },
    {
      "inputs": [
        {
          "internalType": "uint256",
          "name": "proposalId",
          "type": "uint256"
        }
      ],
      "name": "executeProposal",
      "outputs": [],
      "stateMutability": "nonpayable",
      "type": "function"
    },
    {
      "inputs": [],
      "name": "getActiveProposals",
      "outputs": [
        {
          "internalType": "uint256[]",
          "name": "",
          "type": "uint256[]"
        }
      ],
      "stateMutability": "view",
      "type": "function"
    },
    {
      "inputs": [
        {
          "internalType": "uint256",
          "name": "proposalId",
          "type": "uint256"
        }
      ],
      "name": "getProposal",
      "outputs": [
        {
          "components": [
            {
              "internalType": "uint256",
              "name": "id",
              "type": "uint256"
            },
            {
              "internalType": "string",
              "name": "title",
              "type": "string"
            },
            {
              "internalType": "string",
              "name": "description",
              "type": "string"
            },
            {
              "internalType": "address",
              "name": "proposer",
              "type": "address"
            },
            {
              "internalType": "uint256",
              "name": "startTime",
              "type": "uint256"
            },
            {
              "internalType": "uint256",
              "name": "endTime",
              "type": "uint256"
            },
            {
              "internalType": "uint256",
              "name": "yesVotes",
              "type": "uint256"
            },
            {
              "internalType": "uint256",
              "name": "noVotes",
              "type": "uint256"
            },
            {
              "internalType": "uint256",
              "name": "totalVotingPower",
              "type": "uint256"
            },
            {
              "internalType": "bool",
              "name": "executed",
              "type": "bool"
            },
            {
              "internalType": "bool",
              "name": "passed",
              "type": "bool"
            },
            {
              "internalType": "enum VotingContract.ProposalType",
              "name": "proposalType",
              "type": "uint8"
            }
          ],
          "internalType": "struct VotingContract.Proposal",
          "name": "",
          "type": "tuple"
        }
      ],
      "stateMutability": "view",
      "type": "function"
    },
    {
      "inputs": [
        {
          "internalType": "uint256",
          "name": "proposalId",
          "type": "uint256"
        }
      ],
      "name": "getProposalResults",
      "outputs": [
        {
          "internalType": "uint256",
          "name": "yesVotes",
          "type": "uint256"
        },
        {
          "internalType": "uint256",
          "name": "noVotes",
          "type": "uint256"
        },
        {
          "internalType": "uint256",
          "name": "totalVotingPower",
          "type": "uint256"
        },
        {
          "internalType": "bool",
          "name": "quorumMet",
          "type": "bool"
        },
        {
          "internalType": "bool",
          "name": "passed",
          "type": "bool"
        }
      ],
      "stateMutability": "view",
      "type": "function"
    },
    {
      "inputs": [
        {
          "internalType": "uint256",
          "name": "proposalId",
          "type": "uint256"
        },
        {
          "internalType": "address",
          "name": "voter",
          "type": "address"
        }
      ],
      "name": "getVote",
      "outputs": [
        {
          "components": [
            {
              "internalType": "bool",
              "name": "support",
              "type": "bool"
            },
            {
              "internalType": "uint256",
              "name": "votingPower",
              "type": "uint256"
            },
            {
              "internalType": "uint256",
              "name": "timestamp",
              "type": "uint256"
            }
          ],
          "internalType": "struct VotingContract.Vote",
          "name": "",
          "type": "tuple"
        }
      ],
      "stateMutability": "view",
      "type": "function"
    },
    {
      "inputs": [
        {
          "internalType": "address",
          "name": "user",
          "type": "address"
        }
      ],
      "name": "getVotingPower",
      "outputs": [
        {
          "internalType": "uint256",
          "name": "",
          "type": "uint256"
        }
      ],
      "stateMutability": "view",
      "type": "function"
    },
    {
      "inputs": [
        {
          "internalType": "uint256",
          "name": "",
          "type": "uint256"
        },
        {
          "internalType": "address",
          "name": "",
          "type": "address"
        }
      ],
      "name": "hasVoted",
      "outputs": [
        {
          "internalType": "bool",
          "name": "",
          "type": "bool"
        }
      ],
      "stateMutability": "view",
      "type": "function"
    },
    {
      "inputs": [],
      "name": "owner",
      "outputs": [
        {
          "internalType": "address",
          "name": "",
          "type": "address"
        }
      ],
      "stateMutability": "view",
      "type": "function"
    },
    {
      "inputs": [],
      "name": "proposalCount",
      "outputs": [
        {
          "internalType": "uint256",
          "name": "",
          "type": "uint256"
        }
      ],
      "stateMutability": "view",
      "type": "function"
    },
    {
      "inputs": [
        {
          "internalType": "uint256",
          "name": "",
          "type": "uint256"
        }
      ],
      "name": "proposals",
      "outputs": [
        {
          "internalType": "uint256",
          "name": "id",
          "type": "uint256"
        },
        {
          "internalType": "string",
          "name": "title",
          "type": "string"
        },
        {
          "internalType": "string",
          "name": "description",
          "type": "string"
        },
        {
          "internalType": "address",
          "name": "proposer",
          "type": "address"
        },
        {
          "internalType": "uint256",
          "name": "startTime",
          "type": "uint256"
        },
        {
          "internalType": "uint256",
          "name": "endTime",
          "type": "uint256"
        },
        {
          "internalType": "uint256",
          "name": "yesVotes",
          "type": "uint256"
        },
        {
          "internalType": "uint256",
          "name": "noVotes",
          "type": "uint256"
        },
        {
          "internalType": "uint256",
          "name": "totalVotingPower",
          "type": "uint256"
        },
        {
          "internalType": "bool",
          "name": "executed",
          "type": "bool"
        },
        {
          "internalType": "bool",
          "name": "passed",
          "type": "bool"
        },
        {
          "internalType": "enum VotingContract.ProposalType",
          "name": "proposalType",
          "type": "uint8"
        }
      ],
      "stateMutability": "view",
      "type": "function"
    },
    {
      "inputs": [],
      "name": "renounceOwnership",
      "outputs": [],
      "stateMutability": "nonpayable",
      "type": "function"
    },
    {
      "inputs": [],
      "name": "sbftToken",
      "outputs": [
        {
          "internalType": "contract ISbFTToken",
          "name": "",
          "type": "address"
        }
      ],
      "stateMutability": "view",
      "type": "function"
    },
    {
      "inputs": [
        {
          "internalType": "address",
          "name": "newOwner",
          "type": "address"
        }
      ],
      "name": "transferOwnership",
      "outputs": [],
      "stateMutability": "nonpayable",
      "type": "function"
    },
    {
      "inputs": [
        {
          "internalType": "uint256",
          "name": "proposalId",
          "type": "uint256"
        },
        {
          "internalType": "bool",
          "name": "support",
          "type": "bool"
        }
      ],
      "name": "vote",
      "outputs": [],
      "stateMutability": "nonpayable",
      "type": "function"
    },
    {
      "inputs": [
        {
          "internalType": "uint256",
          "name": "",
          "type": "uint256"
        },
        {
          "internalType": "address",
          "name": "",
          "type": "address"
        }
      ],
      "name": "votes",
      "outputs": [
        {
          "internalType": "bool",
          "name": "support",
          "type": "bool"
        },
        {
          "internalType": "uint256",
          "name": "votingPower",
          "type": "uint256"
        },
        {
          "internalType": "uint256",
          "name": "timestamp",
          "type": "uint256"
        }
      ],
      "stateMutability": "view",
      "type": "function"
    }
  ],
  "bytecode": "0x60803461011a57601f611b3138819003918201601f19168301916001600160401b0383118484101761011f5780849260209460405283398101031261011a57516001600160a01b0381169081900361011a5733156101045760008054336001600160a01b03198216811783556040519290916001600160a01b0316907f8be0079c531659141344cd1fd0a4f28419497f9722a3daafe3b4186f6b6457e09080a36001805581156100cd5750600280546001600160a01b0319169190911790556040516119fb90816101368239f35b62461bcd60e51b815260206004820152601260248201527124b73b30b634b21039b1232a103a37b5b2b760711b6044820152606490fd5b631e4fbdf760e01b600052600060045260246000fd5b600080fd5b634e487b7160e01b600052604160045260246000fdfe6080604052600436101561001257600080fd5b60003560e01c8063013cf08b146114d15780630d61b519146113745780631ec42dd31461134b57806343859632146112fe5780635584c4f9146112445780635bdcd008146111b5578063715018a61461115c578063824ea8ed146111345780638912cd51146111105780638da5cb5b146110e7578063b1610d7e146110c9578063bb4d443614611036578063bc3f931f14610f9d578063c7f758a814610da4578063c9d27afe14610ab1578063d23254b414610a4f578063da35c66414610a31578063e0a8f6f51461093f578063e1f1c4a714610922578063e40824f8146108ea578063eccc51fd146101c4578063ee8a7c15146101a75763f2fde38b1461011957600080fd5b346101a25760203660031901126101a257610132611759565b61013a61199c565b6001600160a01b0316801561018c57600080546001600160a01b03198116831782556001600160a01b0316907f8be0079c531659141344cd1fd0a4f28419497f9722a3daafe3b4186f6b6457e09080a3005b631e4fbdf760e01b600052600060045260246000fd5b600080fd5b346101a25760003660031901126101a25760206040516103e88152f35b346101a25760603660031901126101a25760043567ffffffffffffffff81116101a2576101f59036906004016117a0565b60243567ffffffffffffffff81116101a2576102159036906004016117a0565b9092600460443510156101a25782156108ad578115610868576002546040516370a0823160e01b81523360048201526001600160a01b039091169290602081602481875afa80156107c65760009061082d575b683635c9adc5dea000009150106107e8576006549260001984146107d2576001840160065562093a80420142116107d2576020600491604051928380926318160ddd60e01b82525afa9081156107c657600091610791575b50801561074c576102f4604051966102d788611612565b8588526102e53688876118ba565b936020890194855236916118ba565b916040870192835260608701913383526080880142815260a089019062093a804201825260c08a019260008452600060e08c01526101008b015260006101208b01526101408a0194600086526101608b0196610352604435896118ae565b8960005260036020526040600020958c51875560018701905180519067ffffffffffffffff821161067357819061038984546115bc565b601f81116106f9575b50602090601f831160011461069457600092610689575b50508160011b916000199060031b1c19161790555b518051600287019167ffffffffffffffff8211610673576103df83546115bc565b601f811161062b575b50602090601f83116001146105b2579361048e9793836101209894600998946104a59d9c986000926105a7575b50508160011b916000199060031b1c19161790555b600385019060018060a01b039051166bffffffffffffffffffffffff60a01b82541617905551600484015551600583015551600682015560e08b015160078201556101008b01516008820155019801511515889060ff801983541691151516179055565b51865461ff00191690151560081b61ff0016178655565b519360048510156105915760009462ff000082549160101b169062ff000019161790556007546801000000000000000081101561057d579061052b836105128460017f8acb73771e980515981b873fe5cb3a2f96acb79e16eedc95071aeb42f1ded74a960160075561176f565b90919082549060031b91821b91600019901b1916179055565b83604051916080835281608084015260a08301378460a0858301015242602082015262093a804201604082015261056760608201604435611736565b3393601f01601f1916810181900360a00190a380f35b634e487b7160e01b85526041600452602485fd5b634e487b7160e01b600052602160045260246000fd5b015190503880610415565b90601f1983169184600052816000209260005b818110610613575084600998946104a59d9c989461048e9c98946101209c98600195106105fa575b505050811b01905561042a565b015160001960f88460031b161c191690553880806105ed565b929360206001819287860151815501950193016105c5565b836000526020600020601f840160051c81019160208510610669575b601f0160051c01905b81811061065d57506103e8565b60008155600101610650565b9091508190610647565b634e487b7160e01b600052604160045260246000fd5b015190508f806103a9565b60008581528281209350601f198516905b8181106106e157509084600195949392106106c8575b505050811b0190556103be565b015160001960f88460031b161c191690558f80806106bb565b929360206001819287860151815501950193016106a5565b909150836000526020600020601f840160051c81019160208510610742575b90601f859493920160051c01905b8181106107335750610392565b60008155849350600101610726565b9091508190610718565b60405162461bcd60e51b815260206004820152601d60248201527f4e6f207362465420746f6b656e7320696e2063697263756c6174696f6e0000006044820152606490fd5b906020823d6020116107be575b816107ab6020938361162f565b810103126107bb575051866102c0565b80fd5b3d915061079e565b6040513d6000823e3d90fd5b634e487b7160e01b600052601160045260246000fd5b60405162461bcd60e51b815260206004820152601c60248201527f496e73756666696369656e74207362465420746f2070726f706f7365000000006044820152606490fd5b506020813d602011610860575b816108476020938361162f565b810103126101a257683635c9adc5dea000009051610268565b3d915061083a565b60405162461bcd60e51b815260206004820152601b60248201527f4465736372697074696f6e2063616e6e6f7420626520656d70747900000000006044820152606490fd5b60405162461bcd60e51b81526020600482015260156024820152745469746c652063616e6e6f7420626520656d70747960581b6044820152606490fd5b346101a25760203660031901126101a2576004356007548110156101a25761091360209161176f565b90549060031b1c604051908152f35b346101a25760003660031901126101a25760206040516127108152f35b346101a25760203660031901126101a25760043561096060065482106117ce565b8060005260036020526040600020600981019081549061098360ff83161561181a565b600301546001600160a01b031633148015610a1d575b156109d85761ffff191660011790556109b181611901565b7f789cf55be980739dad1d0699b93b58e806b51c9d96619bfa8fe0a28abaa7b30c600080a2005b60405162461bcd60e51b815260206004820152601860248201527f4e6f7420617574686f72697a656420746f2063616e63656c00000000000000006044820152606490fd5b506000546001600160a01b03163314610999565b346101a25760003660031901126101a2576020600654604051908152f35b346101a25760403660031901126101a25760606040610a6c611743565b60043560005260046020528160002060009160018060a01b031682526020522060ff815416906002600182015491015490604051921515835260208301526040820152f35b346101a25760403660031901126101a25760043560243590811515918281036101a257600260015414610d93576002600155610af060065483106117ce565b600082815260056020908152604080832033845290915290205460ff16610d5e57816000526003602052604060002060048101544210610d245760058101544211610ce957602491610b4960ff6009840154161561181a565b6002546040516370a0823160e01b81523360048201529360209185919082906001600160a01b03165afa9283156107c657600093610cb5575b508215610c7e57604051610b95816115f6565b8581526002602082018581526040830190428252876000526004602052610be360408060002060009060018060a01b03331682526020522094511515859060ff801983541691151516179055565b51600184015551910155836000526005602052604060002060018060a01b0333166000526020526040600020600160ff19825416179055600014610c6957600601610c2f828254611866565b90555b60405192835260208301527fcbdf6214089cba887ecbf35a0b6a734589959c9763342c756bb2a80ca2bc9f6e60403393a360018055005b600701610c77828254611866565b9055610c32565b60405162461bcd60e51b815260206004820152600f60248201526e2737903b37ba34b733903837bbb2b960891b6044820152606490fd5b90926020823d602011610ce1575b81610cd06020938361162f565b810103126107bb5750519185610b82565b3d9150610cc3565b60405162461bcd60e51b8152602060048201526013602482015272159bdd1a5b99c81c195c9a5bd908195b991959606a1b6044820152606490fd5b60405162461bcd60e51b8152602060048201526012602482015271159bdd1a5b99c81b9bdd081cdd185c9d195960721b6044820152606490fd5b60405162461bcd60e51b815260206004820152600d60248201526c105b1c9958591e481d9bdd1959609a1b6044820152606490fd5b633ee5aeb560e01b60005260046000fd5b346101a25760203660031901126101a257600435604051610dc481611612565b60008152602081016060905260408101606090526060810160009052608081016000905260a081016000905260c081016000905260e081016000905261010081016000905261012081016000905261014081016000905261016001600090526006548110610e31906117ce565b60005260036020526040600020604051610e4a81611612565b81548152610e5a60018301611651565b6020820190815291610e6e60028201611651565b9060408301918252600160a01b60019003600382015416916060840192835260048201546080850190815260058301549260a08601938452600681015460c0870190815260078201549060e088019182526008830154926101008901938452600901549561012089019460ff8816151586526101408a01968860081c60ff16151588526101608b019860101c60ff16610f07908a6118ae565b6040519b8c9b60208d525160208d01525160408c0161018090526101a08c01610f2f916116f5565b90518b8203601f190160608d0152610f4791906116f5565b98516001600160a01b031660808b01525160a08a01525160c08901525160e0880152516101008701525161012086015251151561014085015251151561016084015251610f9990610180840190611736565b0390f35b346101a25760403660031901126101a25760606040610fba611743565b6000828051610fc8816115f6565b828152826020820152015260043560005260046020528160002060009160018060a01b0316825260205220604051610fff816115f6565b60ff825416151591828252604060026001830154926020850193845201549201918252604051928352516020830152516040820152f35b346101a25760203660031901126101a25761104f611759565b6002546040516370a0823160e01b81526001600160a01b0392831660048201529160209183916024918391165afa80156107c657600090611096575b602090604051908152f35b506020813d6020116110c1575b816110b06020938361162f565b810103126101a2576020905161108b565b3d91506110a3565b346101a25760003660031901126101a257602060405162093a808152f35b346101a25760003660031901126101a2576000546040516001600160a01b039091168152602090f35b346101a25760003660031901126101a2576020604051683635c9adc5dea000008152f35b346101a25760203660031901126101a2576020611152600435611873565b6040519015158152f35b346101a25760003660031901126101a25761117561199c565b600080546001600160a01b0319811682556001600160a01b03167f8be0079c531659141344cd1fd0a4f28419497f9722a3daafe3b4186f6b6457e08280a3005b346101a25760203660031901126101a2576004356111d660065482106117ce565b60005260036020526040600020600681015460078201546111f78183611866565b6008840154936103e885028581046103e814861517156107d25760a09560ff600961271094015460081c169460405196875260208701526040860152041115606083015215156080820152f35b346101a25760003660031901126101a2576040518060206007549283815201809260076000527fa66cc928b5edb82af9bd49922954155ab7b0942694bea4ce44661d9a8736c6889060005b8181106112e857505050816112a591038261162f565b6040519182916020830190602084525180915260408301919060005b8181106112cf575050500390f35b82518452859450602093840193909201916001016112c1565b825484526020909301926001928301920161128f565b346101a25760403660031901126101a257611317611743565b600435600052600560205260406000209060018060a01b0316600052602052602060ff604060002054166040519015158152f35b346101a25760003660031901126101a2576002546040516001600160a01b039091168152602090f35b346101a25760203660031901126101a25760043561139560065482106117ce565b8060005260036020526040600020600581015442111561148c57600981019081546113c360ff82161561181a565b6006820190815492600781019182549560086113df8888611866565b9301928354926103e88402938085046103e814901517156107d2577ff6b96ada030fa45f23da86f0d66092a36a56b4950ccc57d36f9ededd35cb41a09860809860016114539461271060ff980411159387191617855582611482575b5050825461ff00191690151560081b61ff0016178255565b61145c88611901565b5460081c16925491549054916040519315158452602084015260408301526060820152a2005b1190508a8061143b565b60405162461bcd60e51b815260206004820152601760248201527f566f74696e6720706572696f64206e6f7420656e6465640000000000000000006044820152606490fd5b346101a25760203660031901126101a257600435600052600360205260206040600020805490610f9961150660018301611651565b61151260028401611651565b9260018060a01b03600382015416936004820154600583015460068401549161157060078601549461156260096008890154980154986101806040519e8f9e8f90815201526101808d01906116f5565b908b820360408d01526116f5565b9760608a0152608089015260a088015260c087015260e086015261010085015260ff8116151561012085015260ff8160081c16151561014085015260ff61016085019160101c16611736565b90600182811c921680156115ec575b60208310146115d657565b634e487b7160e01b600052602260045260246000fd5b91607f16916115cb565b6060810190811067ffffffffffffffff82111761067357604052565b610180810190811067ffffffffffffffff82111761067357604052565b90601f8019910116810190811067ffffffffffffffff82111761067357604052565b9060405191826000825492611665846115bc565b80845293600181169081156116d3575060011461168c575b5061168a9250038361162f565b565b90506000929192526020600020906000915b8183106116b757505090602061168a928201013861167d565b602091935080600191548385890101520191019091849261169e565b90506020925061168a94915060ff191682840152151560051b8201013861167d565b919082519283825260005b848110611721575050826000602080949584010152601f8019910116010190565b80602080928401015182828601015201611700565b9060048210156105915752565b602435906001600160a01b03821682036101a257565b600435906001600160a01b03821682036101a257565b60075481101561178a57600760005260206000200190600090565b634e487b7160e01b600052603260045260246000fd5b9181601f840112156101a25782359167ffffffffffffffff83116101a257602083818601950101116101a257565b156117d557565b60405162461bcd60e51b815260206004820152601760248201527f50726f706f73616c20646f6573206e6f742065786973740000000000000000006044820152606490fd5b1561182157565b60405162461bcd60e51b815260206004820152601960248201527f50726f706f73616c20616c7265616479206578656375746564000000000000006044820152606490fd5b919082018092116107d257565b6006548110156118a8576000526003602052604060002060058101544211908161189b575090565b60ff915060090154161590565b50600090565b60048210156105915752565b92919267ffffffffffffffff821161067357604051916118e4601f8201601f19166020018461162f565b8294818452818301116101a2578281602093846000960137010152565b60005b6007548082101561199757826119198361176f565b90549060031b1c1461192e5750600101611904565b6000198101925082116107d25761051261194a6119579361176f565b90549060031b1c9161176f565b6007548015611981576000190161196d8161176f565b8154906000199060031b1b19169055600755565b634e487b7160e01b600052603160045260246000fd5b505050565b6000546001600160a01b031633036119b057565b63118cdaa760e01b6000523360045260246000fdfea26469706673582212207be7f7dcf66d31a5d33b8878119c355db336155bcf98847f139c3c8505666c1464736f6c634300081c0033",
  "linkReferences": {},
  "deployedLinkReferences": {}
}