{
  "_format": "hh-sol-artifact-1",
  "contractName": "StakingContract",
  "sourceName": "contracts/core/StakingContract.sol",
  "abi": [
    {
      "inputs": [
        {
          "internalType": "address",
          "name": "_cSTTToken",
          "type": "address"
        },
        {
          "internalType": "address",
          "name": "_sbftToken",
          "type": "address"
        }
      ],
      "stateMutability": "nonpayable",
      "type": "constructor"
    },
    {
      "inputs": [
        {
          "internalType": "address",
          "name": "owner",
          "type": "address"
        }
      ],
      "name": "OwnableInvalidOwner",
      "type": "error"
    },
    {
      "inputs": [
        {
          "internalType": "address",
          "name": "account",
          "type": "address"
        }
      ],
      "name": "OwnableUnauthorizedAccount",
      "type": "error"
    },
    {
      "inputs": [],
      "name": "ReentrancyGuardReentrantCall",
      "type": "error"
    },
    {
      "anonymous": false,
      "inputs": [
        {
          "indexed": false,
          "internalType": "uint256",
          "name": "newRate",
          "type": "uint256"
        }
      ],
      "name": "ExchangeRateUpdated",
      "type": "event"
    },
    {
      "anonymous": false,
      "inputs": [
        {
          "indexed": false,
          "internalType": "uint256",
          "name": "amount",
          "type": "uint256"
        }
      ],
      "name": "FeeCollected",
      "type": "event"
    },
    {
      "anonymous": false,
      "inputs": [
        {
          "indexed": false,
          "internalType": "uint256",
          "name": "newMinStake",
          "type": "uint256"
        }
      ],
      "name": "MinStakeUpdated",
      "type": "event"
    },
    {
      "anonymous": false,
      "inputs": [
        {
          "indexed": true,
          "internalType": "address",
          "name": "previousOwner",
          "type": "address"
        },
        {
          "indexed": true,
          "internalType": "address",
          "name": "newOwner",
          "type": "address"
        }
      ],
      "name": "OwnershipTransferred",
      "type": "event"
    },
    {
      "anonymous": false,
      "inputs": [
        {
          "indexed": false,
          "internalType": "uint256",
          "name": "newRate",
          "type": "uint256"
        }
      ],
      "name": "RewardRateUpdated",
      "type": "event"
    },
    {
      "anonymous": false,
      "inputs": [
        {
          "indexed": false,
          "internalType": "uint256",
          "name": "rewardAmount",
          "type": "uint256"
        },
        {
          "indexed": false,
          "internalType": "uint256",
          "name": "newExchangeRate",
          "type": "uint256"
        }
      ],
      "name": "RewardsAccrued",
      "type": "event"
    },
    {
      "anonymous": false,
      "inputs": [
        {
          "indexed": true,
          "internalType": "address",
          "name": "user",
          "type": "address"
        },
        {
          "indexed": false,
          "internalType": "uint256",
          "name": "amount",
          "type": "uint256"
        }
      ],
      "name": "RewardsClaimed",
      "type": "event"
    },
    {
      "anonymous": false,
      "inputs": [
        {
          "indexed": true,
          "internalType": "address",
          "name": "user",
          "type": "address"
        },
        {
          "indexed": false,
          "internalType": "uint256",
          "name": "amount",
          "type": "uint256"
        }
      ],
      "name": "RewardsCompounded",
      "type": "event"
    },
    {
      "anonymous": false,
      "inputs": [
        {
          "indexed": true,
          "internalType": "address",
          "name": "user",
          "type": "address"
        },
        {
          "indexed": false,
          "internalType": "uint256",
          "name": "sttAmount",
          "type": "uint256"
        },
        {
          "indexed": false,
          "internalType": "uint256",
          "name": "sbftAmount",
          "type": "uint256"
        },
        {
          "indexed": false,
          "internalType": "uint256",
          "name": "fee",
          "type": "uint256"
        },
        {
          "indexed": false,
          "internalType": "uint256",
          "name": "exchangeRate",
          "type": "uint256"
        }
      ],
      "name": "Staked",
      "type": "event"
    },
    {
      "anonymous": false,
      "inputs": [
        {
          "indexed": true,
          "internalType": "address",
          "name": "user",
          "type": "address"
        },
        {
          "indexed": false,
          "internalType": "uint256",
          "name": "requestId",
          "type": "uint256"
        },
        {
          "indexed": false,
          "internalType": "uint256",
          "name": "sttAmount",
          "type": "uint256"
        }
      ],
      "name": "UnstakeProcessed",
      "type": "event"
    },
    {
      "anonymous": false,
      "inputs": [
        {
          "indexed": true,
          "internalType": "address",
          "name": "user",
          "type": "address"
        },
        {
          "indexed": false,
          "internalType": "uint256",
          "name": "requestId",
          "type": "uint256"
        },
        {
          "indexed": false,
          "internalType": "uint256",
          "name": "sbftAmount",
          "type": "uint256"
        }
      ],
      "name": "UnstakeRequestCancelled",
      "type": "event"
    },
    {
      "anonymous": false,
      "inputs": [
        {
          "indexed": true,
          "internalType": "address",
          "name": "user",
          "type": "address"
        },
        {
          "indexed": false,
          "internalType": "uint256",
          "name": "requestId",
          "type": "uint256"
        },
        {
          "indexed": false,
          "internalType": "uint256",
          "name": "sbftAmount",
          "type": "uint256"
        },
        {
          "indexed": false,
          "internalType": "uint256",
          "name": "sttAmount",
          "type": "uint256"
        },
        {
          "indexed": false,
          "internalType": "uint256",
          "name": "unlockTime",
          "type": "uint256"
        }
      ],
      "name": "UnstakeRequested",
      "type": "event"
    },
    {
      "anonymous": false,
      "inputs": [
        {
          "indexed": true,
          "internalType": "address",
          "name": "user",
          "type": "address"
        },
        {
          "indexed": false,
          "internalType": "uint256",
          "name": "sttAmount",
          "type": "uint256"
        },
        {
          "indexed": false,
          "internalType": "uint256",
          "name": "sbftAmount",
          "type": "uint256"
        }
      ],
      "name": "Unstaked",
      "type": "event"
    },
    {
      "anonymous": false,
      "inputs": [
        {
          "indexed": false,
          "internalType": "uint256",
          "name": "newDelay",
          "type": "uint256"
        }
      ],
      "name": "UnstakingDelayUpdated",
      "type": "event"
    },
    {
      "inputs": [],
      "name": "BASIS_POINTS",
      "outputs": [
        {
          "internalType": "uint256",
          "name": "",
          "type": "uint256"
        }
      ],
      "stateMutability": "view",
      "type": "function"
    },
    {
      "inputs": [],
      "name": "MAX_UNSTAKING_DELAY",
      "outputs": [
        {
          "internalType": "uint256",
          "name": "",
          "type": "uint256"
        }
      ],
      "stateMutability": "view",
      "type": "function"
    },
    {
      "inputs": [],
      "name": "MIN_STAKE",
      "outputs": [
        {
          "internalType": "uint256",
          "name": "",
          "type": "uint256"
        }
      ],
      "stateMutability": "view",
      "type": "function"
    },
    {
      "inputs": [],
      "name": "MIN_UNSTAKING_DELAY",
      "outputs": [
        {
          "internalType": "uint256",
          "name": "",
          "type": "uint256"
        }
      ],
      "stateMutability": "view",
      "type": "function"
    },
    {
      "inputs": [],
      "name": "SECONDS_PER_YEAR",
      "outputs": [
        {
          "internalType": "uint256",
          "name": "",
          "type": "uint256"
        }
      ],
      "stateMutability": "view",
      "type": "function"
    },
    {
      "inputs": [],
      "name": "STAKING_FEE",
      "outputs": [
        {
          "internalType": "uint256",
          "name": "",
          "type": "uint256"
        }
      ],
      "stateMutability": "view",
      "type": "function"
    },
    {
      "inputs": [],
      "name": "accrueRewards",
      "outputs": [],
      "stateMutability": "nonpayable",
      "type": "function"
    },
    {
      "inputs": [],
      "name": "annualRewardRate",
      "outputs": [
        {
          "internalType": "uint256",
          "name": "",
          "type": "uint256"
        }
      ],
      "stateMutability": "view",
      "type": "function"
    },
    {
      "inputs": [],
      "name": "cSTTToken",
      "outputs": [
        {
          "internalType": "contract IERC20",
          "name": "",
          "type": "address"
        }
      ],
      "stateMutability": "view",
      "type": "function"
    },
    {
      "inputs": [
        {
          "internalType": "uint256",
          "name": "requestId",
          "type": "uint256"
        }
      ],
      "name": "canProcessUnstake",
      "outputs": [
        {
          "internalType": "bool",
          "name": "",
          "type": "bool"
        },
        {
          "internalType": "uint256",
          "name": "",
          "type": "uint256"
        }
      ],
      "stateMutability": "view",
      "type": "function"
    },
    {
      "inputs": [
        {
          "internalType": "address",
          "name": "",
          "type": "address"
        }
      ],
      "name": "canUnstake",
      "outputs": [
        {
          "internalType": "bool",
          "name": "",
          "type": "bool"
        },
        {
          "internalType": "uint256",
          "name": "",
          "type": "uint256"
        }
      ],
      "stateMutability": "pure",
      "type": "function"
    },
    {
      "inputs": [
        {
          "internalType": "uint256",
          "name": "requestId",
          "type": "uint256"
        }
      ],
      "name": "cancelUnstakeRequest",
      "outputs": [],
      "stateMutability": "nonpayable",
      "type": "function"
    },
    {
      "inputs": [],
      "name": "claimRewards",
      "outputs": [],
      "stateMutability": "pure",
      "type": "function"
    },
    {
      "inputs": [],
      "name": "compoundRewards",
      "outputs": [],
      "stateMutability": "pure",
      "type": "function"
    },
    {
      "inputs": [
        {
          "internalType": "uint256",
          "name": "sbftAmount",
          "type": "uint256"
        },
        {
          "internalType": "uint256",
          "name": "penaltyRate",
          "type": "uint256"
        }
      ],
      "name": "emergencyUnstake",
      "outputs": [],
      "stateMutability": "nonpayable",
      "type": "function"
    },
    {
      "inputs": [
        {
          "internalType": "address",
          "name": "token",
          "type": "address"
        }
      ],
      "name": "emergencyWithdraw",
      "outputs": [],
      "stateMutability": "nonpayable",
      "type": "function"
    },
    {
      "inputs": [],
      "name": "emergencyWithdraw",
      "outputs": [],
      "stateMutability": "nonpayable",
      "type": "function"
    },
    {
      "inputs": [],
      "name": "emergencyWithdrawSTT",
      "outputs": [],
      "stateMutability": "nonpayable",
      "type": "function"
    },
    {
      "inputs": [],
      "name": "getAvailableSTT",
      "outputs": [
        {
          "internalType": "uint256",
          "name": "",
          "type": "uint256"
        }
      ],
      "stateMutability": "view",
      "type": "function"
    },
    {
      "inputs": [],
      "name": "getContractStats",
      "outputs": [
        {
          "internalType": "uint256",
          "name": "",
          "type": "uint256"
        },
        {
          "internalType": "uint256",
          "name": "",
          "type": "uint256"
        },
        {
          "internalType": "uint256",
          "name": "",
          "type": "uint256"
        }
      ],
      "stateMutability": "view",
      "type": "function"
    },
    {
      "inputs": [],
      "name": "getCurrentLockPeriod",
      "outputs": [
        {
          "internalType": "uint256",
          "name": "",
          "type": "uint256"
        }
      ],
      "stateMutability": "view",
      "type": "function"
    },
    {
      "inputs": [],
      "name": "getExchangeRate",
      "outputs": [
        {
          "internalType": "uint256",
          "name": "",
          "type": "uint256"
        }
      ],
      "stateMutability": "view",
      "type": "function"
    },
    {
      "inputs": [],
      "name": "getMinStake",
      "outputs": [
        {
          "internalType": "uint256",
          "name": "",
          "type": "uint256"
        }
      ],
      "stateMutability": "view",
      "type": "function"
    },
    {
      "inputs": [
        {
          "internalType": "address",
          "name": "",
          "type": "address"
        }
      ],
      "name": "getPendingRewards",
      "outputs": [
        {
          "internalType": "uint256",
          "name": "",
          "type": "uint256"
        }
      ],
      "stateMutability": "pure",
      "type": "function"
    },
    {
      "inputs": [],
      "name": "getPoolBalance",
      "outputs": [
        {
          "internalType": "uint256",
          "name": "",
          "type": "uint256"
        }
      ],
      "stateMutability": "view",
      "type": "function"
    },
    {
      "inputs": [
        {
          "internalType": "address",
          "name": "",
          "type": "address"
        }
      ],
      "name": "getUserStake",
      "outputs": [
        {
          "components": [
            {
              "internalType": "uint256",
              "name": "stakedAmount",
              "type": "uint256"
            },
            {
              "internalType": "uint256",
              "name": "sbftBalance",
              "type": "uint256"
            },
            {
              "internalType": "uint256",
              "name": "lastRewardTime",
              "type": "uint256"
            },
            {
              "internalType": "uint256",
              "name": "pendingRewards",
              "type": "uint256"
            },
            {
              "internalType": "uint256",
              "name": "unlockTime",
              "type": "uint256"
            },
            {
              "internalType": "uint256",
              "name": "lockPeriod",
              "type": "uint256"
            }
          ],
          "internalType": "struct StakingContract.StakeInfo",
          "name": "",
          "type": "tuple"
        }
      ],
      "stateMutability": "pure",
      "type": "function"
    },
    {
      "inputs": [
        {
          "internalType": "address",
          "name": "user",
          "type": "address"
        }
      ],
      "name": "getUserUnstakeRequests",
      "outputs": [
        {
          "internalType": "uint256[]",
          "name": "",
          "type": "uint256[]"
        }
      ],
      "stateMutability": "view",
      "type": "function"
    },
    {
      "inputs": [],
      "name": "lastRewardUpdate",
      "outputs": [
        {
          "internalType": "uint256",
          "name": "",
          "type": "uint256"
        }
      ],
      "stateMutability": "view",
      "type": "function"
    },
    {
      "inputs": [],
      "name": "masterNFT",
      "outputs": [
        {
          "internalType": "contract IStakeAndBakeNFT",
          "name": "",
          "type": "address"
        }
      ],
      "stateMutability": "view",
      "type": "function"
    },
    {
      "inputs": [],
      "name": "minStake",
      "outputs": [
        {
          "internalType": "uint256",
          "name": "",
          "type": "uint256"
        }
      ],
      "stateMutability": "view",
      "type": "function"
    },
    {
      "inputs": [],
      "name": "owner",
      "outputs": [
        {
          "internalType": "address",
          "name": "",
          "type": "address"
        }
      ],
      "stateMutability": "view",
      "type": "function"
    },
    {
      "inputs": [
        {
          "internalType": "uint256",
          "name": "requestId",
          "type": "uint256"
        }
      ],
      "name": "processUnstake",
      "outputs": [],
      "stateMutability": "nonpayable",
      "type": "function"
    },
    {
      "inputs": [],
      "name": "renounceOwnership",
      "outputs": [],
      "stateMutability": "nonpayable",
      "type": "function"
    },
    {
      "inputs": [
        {
          "internalType": "uint256",
          "name": "sbftAmount",
          "type": "uint256"
        }
      ],
      "name": "requestUnstake",
      "outputs": [],
      "stateMutability": "nonpayable",
      "type": "function"
    },
    {
      "inputs": [],
      "name": "sbftToken",
      "outputs": [
        {
          "internalType": "contract ISbFTToken",
          "name": "",
          "type": "address"
        }
      ],
      "stateMutability": "view",
      "type": "function"
    },
    {
      "inputs": [
        {
          "internalType": "address",
          "name": "_masterNFT",
          "type": "address"
        }
      ],
      "name": "setMasterNFT",
      "outputs": [],
      "stateMutability": "nonpayable",
      "type": "function"
    },
    {
      "inputs": [
        {
          "internalType": "uint256",
          "name": "_newMinStake",
          "type": "uint256"
        }
      ],
      "name": "setMinStake",
      "outputs": [],
      "stateMutability": "nonpayable",
      "type": "function"
    },
    {
      "inputs": [
        {
          "internalType": "uint256",
          "name": "_newDelay",
          "type": "uint256"
        }
      ],
      "name": "setUnstakingDelay",
      "outputs": [],
      "stateMutability": "nonpayable",
      "type": "function"
    },
    {
      "inputs": [
        {
          "internalType": "uint256",
          "name": "amount",
          "type": "uint256"
        }
      ],
      "name": "stake",
      "outputs": [],
      "stateMutability": "nonpayable",
      "type": "function"
    },
    {
      "inputs": [
        {
          "internalType": "address",
          "name": "",
          "type": "address"
        }
      ],
      "name": "stakes",
      "outputs": [
        {
          "internalType": "uint256",
          "name": "stakedAmount",
          "type": "uint256"
        },
        {
          "internalType": "uint256",
          "name": "sbftBalance",
          "type": "uint256"
        },
        {
          "internalType": "uint256",
          "name": "lastRewardTime",
          "type": "uint256"
        },
        {
          "internalType": "uint256",
          "name": "pendingRewards",
          "type": "uint256"
        },
        {
          "internalType": "uint256",
          "name": "unlockTime",
          "type": "uint256"
        },
        {
          "internalType": "uint256",
          "name": "lockPeriod",
          "type": "uint256"
        }
      ],
      "stateMutability": "view",
      "type": "function"
    },
    {
      "inputs": [],
      "name": "totalFeesCollected",
      "outputs": [
        {
          "internalType": "uint256",
          "name": "",
          "type": "uint256"
        }
      ],
      "stateMutability": "view",
      "type": "function"
    },
    {
      "inputs": [],
      "name": "totalPendingUnstakes",
      "outputs": [
        {
          "internalType": "uint256",
          "name": "",
          "type": "uint256"
        }
      ],
      "stateMutability": "view",
      "type": "function"
    },
    {
      "inputs": [],
      "name": "totalSTTInPool",
      "outputs": [
        {
          "internalType": "uint256",
          "name": "",
          "type": "uint256"
        }
      ],
      "stateMutability": "view",
      "type": "function"
    },
    {
      "inputs": [],
      "name": "totalStaked",
      "outputs": [
        {
          "internalType": "uint256",
          "name": "",
          "type": "uint256"
        }
      ],
      "stateMutability": "view",
      "type": "function"
    },
    {
      "inputs": [
        {
          "internalType": "address",
          "name": "newOwner",
          "type": "address"
        }
      ],
      "name": "transferOwnership",
      "outputs": [],
      "stateMutability": "nonpayable",
      "type": "function"
    },
    {
      "inputs": [
        {
          "internalType": "uint256",
          "name": "",
          "type": "uint256"
        }
      ],
      "name": "unstake",
      "outputs": [],
      "stateMutability": "pure",
      "type": "function"
    },
    {
      "inputs": [],
      "name": "unstakeRequestCount",
      "outputs": [
        {
          "internalType": "uint256",
          "name": "",
          "type": "uint256"
        }
      ],
      "stateMutability": "view",
      "type": "function"
    },
    {
      "inputs": [
        {
          "internalType": "uint256",
          "name": "",
          "type": "uint256"
        }
      ],
      "name": "unstakeRequests",
      "outputs": [
        {
          "internalType": "address",
          "name": "user",
          "type": "address"
        },
        {
          "internalType": "uint256",
          "name": "sttAmount",
          "type": "uint256"
        },
        {
          "internalType": "uint256",
          "name": "unlockTime",
          "type": "uint256"
        },
        {
          "internalType": "bool",
          "name": "processed",
          "type": "bool"
        }
      ],
      "stateMutability": "view",
      "type": "function"
    },
    {
      "inputs": [],
      "name": "unstakingDelay",
      "outputs": [
        {
          "internalType": "uint256",
          "name": "",
          "type": "uint256"
        }
      ],
      "stateMutability": "view",
      "type": "function"
    },
    {
      "inputs": [
        {
          "internalType": "uint256",
          "name": "newRate",
          "type": "uint256"
        }
      ],
      "name": "updateRewardRate",
      "outputs": [],
      "stateMutability": "nonpayable",
      "type": "function"
    },
    {
      "inputs": [
        {
          "internalType": "address",
          "name": "",
          "type": "address"
        },
        {
          "internalType": "uint256",
          "name": "",
          "type": "uint256"
        }
      ],
      "name": "userUnstakeRequests",
      "outputs": [
        {
          "internalType": "uint256",
          "name": "",
          "type": "uint256"
        }
      ],
      "stateMutability": "view",
      "type": "function"
    }
  ],
  "bytecode": "0x60803461019957601f61256038819003918201601f19168301916001600160401b0383118484101761019e57808492604094855283398101031261019957610052602061004b836101b4565b92016101b4565b33156101835760008054336001600160a01b0319821681178355604051949290916001600160a01b0316907f8be0079c531659141344cd1fd0a4f28419497f9722a3daafe3b4186f6b6457e09080a36001805562093a80600555610320600655670de0b6b3a76400006010556001600160a01b031691821561014c57506001600160a01b03169081156101125760018060a01b0319600254161760025560018060a01b031960035416176003554260075560405161239790816101c98239f35b60405162461bcd60e51b815260206004820152601260248201527124b73b30b634b21039b1232a103a37b5b2b760711b6044820152606490fd5b62461bcd60e51b815260206004820152601260248201527124b73b30b634b21031a9aa2a103a37b5b2b760711b6044820152606490fd5b631e4fbdf760e01b600052600060045260246000fd5b600080fd5b634e487b7160e01b600052604160045260246000fd5b51906001600160a01b03821682036101995756fe6080604052600436101561001257600080fd5b6000803560e01c80630269c03f146105db57806307089246146105ff57806316934fc414611cfc5780631715d01514611cde5780631afdbce414611cc55780631ec42dd314611c9c5780632296728d14611c7e57806323095721146119b5578063296124d21461195e5780632a0c6d2a146118cd5780632e17de7814611864578063372500ab146117de578063375b3c0a1461121f57806342b58a82146114c6578063431d5efd146114a857806349018e411461148a578063540df83c1461130d57806354c8dbcc1461123d57806356a3b5fa1461121f57806360c6d8ae1461120157806368bbf757146111e35780636ff1c9bc14611050578063715018a614610ff6578063817b1cd214610fd8578063836dfd5a14610fbc57806385f4498b14610f8f5780638c80fd9014610ef65780638da5cb5b14610ecf5780639728687914610e9d5780639ef3a26114610e075780639fbaec1214610d52578063a098e5eb14610d29578063a3c2710d14610d0b578063a694fc3a1461089b578063abd70aa214610806578063bbadc93a14610761578063c00c9f7f146106f1578063c93a31aa14610640578063cb1c2b5c1461061d578063d4ceb8a8146105ff578063db2e21bc146105db578063dfe6b5d6146105ac578063e1f1c4a71461058f578063e2245b0c14610566578063e6a69ab814610547578063e6aa216c14610524578063f2fde38b1461049e578063f6ed201714610478578063f87975af1461041e578063fbee5f621461026e5763ffb0449c1461024e57600080fd5b3461026b578060031936011261026b576020604051620151808152f35b80fd5b503461026b57602036600319011261026b5760043561028b61233f565b610298600c548210612059565b808252600a602052604082206102b860018060a01b03825416331461209a565b60038101908154916102cd60ff8416156120d9565b600282015442106103ea576001809360ff1916179055016102f1815460095461200e565b600955600254815460405163a9059cbb60e01b81523360048201526024810191909152906020908290604490829088906001600160a01b03165af180156103df576103439185916103b0575b5061201b565b54906040519081528160208201527f8afe5678fa641d4c7b1e0e9f5c781e370d85a57d57e7aca780178762158d624360403392a26040519081528160208201527f7fc4727e062e336010f2c282598ef5f14facb3de68cf8195c2f23e1454b2b74e60403392a26001805580f35b6103d2915060203d6020116103d8575b6103ca8183611dff565b810190611e21565b3861033d565b503d6103c0565b6040513d86823e3d90fd5b60405162461bcd60e51b815260206004820152600c60248201526b14dd1a5b1b081b1bd8dad95960a21b6044820152606490fd5b503461026b57602036600319011261026b5760406080916004358152600a6020522060018060a01b038154169060018101549060ff6003600283015492015416916040519384526020840152604083015215156060820152f35b503461026b57602036600319011261026b57602090610495611d6d565b50604051908152f35b503461026b57602036600319011261026b576104b8611d6d565b6104c061227b565b6001600160a01b031680156105105781546001600160a01b03198116821783556001600160a01b03167f8be0079c531659141344cd1fd0a4f28419497f9722a3daafe3b4186f6b6457e08380a380f35b631e4fbdf760e01b82526004829052602482fd5b503461026b578060031936011261026b57602061053f61219e565b604051908152f35b503461026b578060031936011261026b5760206040516301e133808152f35b503461026b578060031936011261026b576002546040516001600160a01b039091168152602090f35b503461026b578060031936011261026b5760206040516127108152f35b503461026b578060031936011261026b576060600854600f546006549060405192835260208301526040820152f35b503461026b578060031936011261026b576105f461227b565b6105fc611e39565b80f35b503461026b578060031936011261026b576020600554604051908152f35b503461026b578060031936011261026b576020604051670de0b6b3a76400008152f35b503461026b578060031936011261026b576002546040516370a0823160e01b81523060048201529190602090839060249082906001600160a01b03165afa80156106e45781906106ac575b6009546020935090818111156106a55761053f925061200e565b505061053f565b506020823d6020116106dc575b816106c660209383611dff565b810103126106d7576020915161068b565b600080fd5b3d91506106b9565b50604051903d90823e3d90fd5b503461026b578060031936011261026b5760405162461bcd60e51b815260206004820152603160248201527f44657072656361746564202d207265776172647320617265206175746f6d61746044820152701a58d85b1b1e4818dbdb5c1bdd5b991959607a1b6064820152608490fd5b503461026b57602036600319011261026b5760c09061077e611d6d565b508060a060405161078e81611de3565b82815282602082015282604082015282606082015282608082015201526040516107b781611de3565b818152602081019082825260408101838152606082019084825260a0608084019386855201938585526040519586525160208601525160408501525160608401525160808301525160a0820152f35b503461026b578060031936011261026b576002546040516370a0823160e01b81523060048201529190602090839060249082906001600160a01b03165afa90811561088f579061085c575b602090604051908152f35b506020813d602011610887575b8161087660209383611dff565b810103126106d75760209051610851565b3d9150610869565b604051903d90823e3d90fd5b503461026b57602036600319011261026b576004356108b861233f565b806010548110610cc6576002546040516370a0823160e01b815233600482015290602090829060249082906001600160a01b03165afa80156103df5782918591610c91575b5010610c4c5761090b6122a4565b670de0b6b3a7640000810290801591818104670de0b6b3a764000014831715610bd7576109409061093a61219e565b90611fe1565b918215610c0f576002546040516323b872dd60e01b81523360048201523060248201526044810184905290602090829060649082908a906001600160a01b03165af18015610c04576109989187916103b0575061201b565b60035485906001600160a01b0316803b15610b5a576040516340c10f1960e01b8152336004820152602481018690529082908290604490829084905af18015610b4f57610beb575b50506109ee82600854612001565b60085560648202908282046064141715610bd757612710900480151580610bc3575b610a8d575b5050610a1f61219e565b90604051928352602083015282604083015260608201527f9cfd25589d1eb8ad71e342a86a8524e83522e3936c0803048c08f6d9ad974f4060803392a27fc472cb3a7a659a876494d66b3063145f279701771d6150b9329c31611ed6405c6020604051838152a16001805580f35b6002546004805460405163a9059cbb60e01b81526001600160a01b0391821692810192909252602482018490529495509293919291602091839160449183918a91165af1908115610bb8578591610b99575b5015610b5e5760045484906001600160a01b0316803b15610b5a57818091602460405180948193636029bf9f60e01b83528860048401525af18015610b4f57610b36575b5050610b2e9161200e565b903880610a15565b81610b4091611dff565b610b4b578338610b23565b8380fd5b6040513d84823e3d90fd5b5080fd5b60405162461bcd60e51b8152602060048201526013602482015272119959481d1c985b9cd9995c8819985a5b1959606a1b6044820152606490fd5b610bb2915060203d6020116103d8576103ca8183611dff565b38610adf565b6040513d87823e3d90fd5b506004546001600160a01b03161515610a10565b634e487b7160e01b85526011600452602485fd5b81610bf591611dff565b610c005784386109e0565b8480fd5b6040513d88823e3d90fd5b60405162461bcd60e51b8152602060048201526015602482015274135a5b9d08185b5bdd5b9d081d1bdbc81cdb585b1b605a1b6044820152606490fd5b60405162461bcd60e51b815260206004820152601960248201527f496e73756666696369656e7420635354542062616c616e6365000000000000006044820152606490fd5b9150506020813d602011610cbe575b81610cad60209383611dff565b810103126106d757819051386108fd565b3d9150610ca0565b60405162461bcd60e51b815260206004820152601a60248201527f416d6f756e742062656c6f77206d696e696d756d207374616b650000000000006044820152606490fd5b503461026b578060031936011261026b576020600754604051908152f35b503461026b578060031936011261026b576004546040516001600160a01b039091168152602090f35b503461026b57602036600319011261026b576001600160a01b03610d74611d6d565b168152600b60205260408120604051908160208254918281520190819285526020852090855b818110610df15750505082610db0910383611dff565b604051928392602084019060208552518091526040840192915b818110610dd8575050500390f35b8251845285945060209384019390920191600101610dca565b8254845260209093019260019283019201610d9a565b503461026b57602036600319011261026b57600435610e2461227b565b6107d08111610e5f576020817f41d466ebd06fb97e7786086ac8b69b7eb7da798592036251291d34e9791cde0192600655604051908152a180f35b60405162461bcd60e51b8152602060048201526016602482015275526174652063616e6e6f74206578636565642032302560501b6044820152606490fd5b503461026b57602036600319011261026b57610eba600435612119565b60408051921515835260208301919091529150f35b503461026b578060031936011261026b57546040516001600160a01b039091168152602090f35b503461026b57602036600319011261026b57600435610f1361227b565b8015610f4b576020817f47ab46f2c8d4258304a2f5551c1cbdb6981be49631365d1ba7191288a73f39ef92601055604051908152a180f35b606460405162461bcd60e51b815260206004820152602060248201527f4d696e207374616b65206d7573742062652067726561746572207468616e20306044820152fd5b503461026b57602036600319011261026b57610fa9611d6d565b5060408051828152602081019290925290f35b503461026b578060031936011261026b57602060405160648152f35b503461026b578060031936011261026b576020600e54604051908152f35b503461026b578060031936011261026b5761100f61227b565b80546001600160a01b03198116825581906001600160a01b03167f8be0079c531659141344cd1fd0a4f28419497f9722a3daafe3b4186f6b6457e08280a380f35b503461026b57602036600319011261026b5761106a611d6d565b61107261227b565b6002546001600160a01b039182169116811415806111ce575b15611189576040516370a0823160e01b815230600482015290602082602481845afa91821561117e57839261114a575b50811561110d57825460405163a9059cbb60e01b81526001600160a01b03909116600482015260248101929092526020908290604490829086905af18015610b4f576105fc9183916103b0575061201b565b60405162461bcd60e51b81526020600482015260156024820152744e6f20746f6b656e7320746f20776974686472617760581b6044820152606490fd5b9091506020813d602011611176575b8161116660209383611dff565b810103126106d7575190386110bb565b3d9150611159565b6040513d85823e3d90fd5b60405162461bcd60e51b815260206004820152601e60248201527f43616e6e6f74207769746864726177207374616b696e6720746f6b656e7300006044820152606490fd5b506003546001600160a01b031681141561108b565b503461026b578060031936011261026b576020600954604051908152f35b503461026b578060031936011261026b576020600f54604051908152f35b503461026b578060031936011261026b576020601054604051908152f35b503461026b57602036600319011261026b5760043561125a61227b565b6201518081106112d65762278d0081116112a0576020817f4b678d69e1faabd1a390e01a90670fffc731574c2dc303e05d7cb33b52b20f4292600555604051908152a180f35b60405162461bcd60e51b815260206004820152600e60248201526d44656c617920746f6f206c6f6e6760901b6044820152606490fd5b60405162461bcd60e51b815260206004820152600f60248201526e11195b185e481d1bdbc81cda1bdc9d608a1b6044820152606490fd5b503461026b57602036600319011261026b5760043561132a61233f565b611337600c548210612059565b808252600a6020526040822061135760018060a01b03825416331461209a565b600381019061136a60ff835416156120d9565b6113726122a4565b600161137c61219e565b910190815490670de0b6b3a76400008202828104670de0b6b3a7640000148315171561147657916113b36113c7926113d594611fe1565b855460ff1916600117909555600854612001565b91826008555460095461200e565b600955600e5560035483906001600160a01b0316803b15610b5a576040516340c10f1960e01b8152336004820152602481018490529082908290604490829084905af18015610b4f5761145d575b505060405191825260208201527fb8e4dceea536b6e6de2800876d709ca86533d9ac00cc7a9830206a84be9aef7560403392a26001805580f35b8161146791611dff565b611472578238611423565b8280fd5b634e487b7160e01b87526011600452602487fd5b503461026b578060031936011261026b57602060405162278d008152f35b503461026b578060031936011261026b576020600854604051908152f35b503461026b57604036600319011261026b576024356004356114e661233f565b6114f1811515611f6c565b6113888211611799576115026122a4565b61271061152a670de0b6b3a764000061152261151c61219e565b85611fb8565b049384611fb8565b0490611536828461200e565b60035490939085906001600160a01b0316803b15610b5a57604051632770a7eb60e21b8152336004820152602481018590529082908290604490829084905af18015610b4f57611784575b505061158f9060085461200e565b80600855600e556115a282600f54612001565b600f5560025460405163a9059cbb60e01b815233600482015260248101859052906020908290604490829089906001600160a01b03165af18015610bb8576115f09186916103b0575061201b565b6004546001600160a01b03168015158061177b575b61166f575b50907fc472cb3a7a659a876494d66b3063145f279701771d6150b9329c31611ed6405c92602092604051918252838201527f7fc4727e062e336010f2c282598ef5f14facb3de68cf8195c2f23e1454b2b74e60403392a2604051908152a16001805580f35b60025460405163a9059cbb60e01b81526001600160a01b0392831660048201526024810185905291602091839160449183918a91165af1908115610bb857859161175c575b50156117175760045484906001600160a01b0316803b15610b5a57818091602460405180948193636029bf9f60e01b83528960048401525af18015610b4f576116fe575b5061160a565b8161170b91949394611dff565b610b4b579083386116f8565b60405162461bcd60e51b815260206004820152601760248201527f50656e616c7479207472616e73666572206661696c65640000000000000000006044820152606490fd5b611775915060203d6020116103d8576103ca8183611dff565b386116b4565b50821515611605565b8161178e91611dff565b610c00578438611581565b60405162461bcd60e51b815260206004820152601960248201527f50656e616c74792063616e6e6f742065786365656420353025000000000000006044820152606490fd5b503461026b578060031936011261026b5760405162461bcd60e51b815260206004820152604160248201527f44657072656361746564202d207265776172647320617265206175746f6d617460448201527f6963207669612065786368616e6765207261746520617070726563696174696f6064820152603760f91b608482015260a490fd5b503461026b57602036600319011261026b5760405162461bcd60e51b815260206004820152602960248201527f44657072656361746564202d207573652072657175657374556e7374616b65286044820152680a481a5b9cdd19585960ba1b6064820152608490fd5b503461026b57602036600319011261026b576118e7611d6d565b6118ef61227b565b6001600160a01b03168015611919576bffffffffffffffffffffffff60a01b600454161760045580f35b60405162461bcd60e51b815260206004820152601a60248201527f496e76616c6964204d6173746572204e465420616464726573730000000000006044820152606490fd5b503461026b57604036600319011261026b57611978611d6d565b6001600160a01b03168152600b602052604081208054602435929083101561026b5760206119a68484611d83565b90549060031b1c604051908152f35b503461026b57602036600319011261026b576004356119d261233f565b6119dd811515611f6c565b6003546040516370a0823160e01b815233600482015290602090829060249082906001600160a01b03165afa801561117e5782918491611c49575b5010611c0457611a266122a4565b670de0b6b3a7640000611a40611a3a61219e565b83611fb8565b60035491900491906001600160a01b0316803b15610b4b57604051632770a7eb60e21b8152336004820152602481018390529084908290604490829084905af180156103df57611bf0575b50600c54916000198314611bdc5760018301600c55611aac60055442612001565b91604051611ab981611db1565b33815260036020820191848352604081018681526060820193898552888a52600a60205260408a209260018060a01b039051166bffffffffffffffffffffffff60a01b845416178355516001830155516002820155019051151560ff80198354169116179055338552600b6020526040852080549068010000000000000000821015611bc85790611b4f91600182018155611d83565b81549060031b9086821b91600019901b1916179055611b708260085461200e565b80600855611b8083600954612001565b600955600e556040519384526020840152604083015260608201527f5cdb0ac2436611d93815a98d07adbaf4a8cfdbd4aaf7cc40191b35945c3e769d60803392a26001805580f35b634e487b7160e01b87526041600452602487fd5b634e487b7160e01b84526011600452602484fd5b83611bfd91949294611dff565b9138611a8b565b60405162461bcd60e51b815260206004820152601960248201527f496e73756666696369656e7420736246542062616c616e6365000000000000006044820152606490fd5b9150506020813d602011611c76575b81611c6560209383611dff565b810103126114725781905138611a18565b3d9150611c58565b503461026b578060031936011261026b576020600c54604051908152f35b503461026b578060031936011261026b576003546040516001600160a01b039091168152602090f35b503461026b578060031936011261026b576105fc6122a4565b503461026b578060031936011261026b576020600654604051908152f35b503461026b57602036600319011261026b5760c0906040906001600160a01b03611d24611d6d565b168152600d6020522080549060018101549060028101546003820154906005600484015493015493604051958652602086015260408501526060840152608083015260a0820152f35b600435906001600160a01b03821682036106d757565b8054821015611d9b5760005260206000200190600090565b634e487b7160e01b600052603260045260246000fd5b6080810190811067ffffffffffffffff821117611dcd57604052565b634e487b7160e01b600052604160045260246000fd5b60c0810190811067ffffffffffffffff821117611dcd57604052565b90601f8019910116810190811067ffffffffffffffff821117611dcd57604052565b908160209103126106d7575180151581036106d75790565b6002546040516370a0823160e01b81523060048201526001600160a01b0390911690602081602481855afa908115611f2c57600091611f38575b506000805460405163a9059cbb60e01b81526001600160a01b03909116600482015260248101929092529091602091839190829081604481015b03925af1908115611f2c57600091611f0d575b5015611ec857565b60405162461bcd60e51b815260206004820152601960248201527f456d657267656e6379207769746864726177206661696c6564000000000000006044820152606490fd5b611f26915060203d6020116103d8576103ca8183611dff565b38611ec0565b6040513d6000823e3d90fd5b90506020813d602011611f64575b81611f5360209383611dff565b810103126106d75751611ead611e73565b3d9150611f46565b15611f7357565b60405162461bcd60e51b815260206004820152601d60248201527f416d6f756e74206d7573742062652067726561746572207468616e20300000006044820152606490fd5b81810292918115918404141715611fcb57565b634e487b7160e01b600052601160045260246000fd5b8115611feb570490565b634e487b7160e01b600052601260045260246000fd5b91908201809211611fcb57565b91908203918211611fcb57565b1561202257565b60405162461bcd60e51b815260206004820152600f60248201526e151c985b9cd9995c8819985a5b1959608a1b6044820152606490fd5b1561206057565b60405162461bcd60e51b8152602060048201526012602482015271125b9d985b1a59081c995c5d595cdd08125160721b6044820152606490fd5b156120a157565b60405162461bcd60e51b815260206004820152601060248201526f139bdd081e5bdd5c881c995c5d595cdd60821b6044820152606490fd5b156120e057565b60405162461bcd60e51b8152602060048201526011602482015270105b1c9958591e481c1c9bd8d95cdcd959607a1b6044820152606490fd5b600c5481101561219557600052600a6020526040600020606060405161213e81611db1565b82546001600160a01b031681526001830154602082015260028301546040820181905260039093015460ff1615159101819052612195574281116121855750600190600090565b61219090429061200e565b600091565b50600090600090565b6003546040516318160ddd60e01b815290602090829060049082906001600160a01b03165afa908115611f2c57600091612249575b50801561223c5761220e6121e96007544261200e565b64496cebb8006122076008549261220260065485611fb8565b611fb8565b0490612001565b90670de0b6b3a7640000820291808304670de0b6b3a76400001490151715611fcb5761223991611fe1565b90565b50670de0b6b3a764000090565b906020823d602011612273575b8161226360209383611dff565b8101031261026b575051386121d3565b3d9150612256565b6000546001600160a01b0316330361228f57565b63118cdaa760e01b6000523360045260246000fd5b6008548015612338576122b96007544261200e565b8015612334576122d564496cebb8009161220260065485611fb8565b0490816122e5575b505042600755565b816123137fddb861ab0397f186ae24cb62cf18b57dd03b90f496ad8c13da1c4495cb1b5f7693604093612001565b80600855600e5561232261219e565b82519182526020820152a138806122dd565b5050565b5042600755565b600260015414612350576002600155565b633ee5aeb560e01b60005260046000fdfea2646970667358221220b25c91cd48712ffcb5de5b18e73f5687dc7a7b84f1ff367a1d636f534cd3dd2b64736f6c634300081c0033",
  "linkReferences": {},
  "deployedLinkReferences": {}
}