{
  "_format": "hh-sol-artifact-1",
  "contractName": "MockUSDC",
  "sourceName": "contracts/tokens/MockUSDCToken.sol",
  "abi": [
    {
      "inputs": [],
      "stateMutability": "nonpayable",
      "type": "constructor"
    },
    {
      "inputs": [
        {
          "internalType": "address",
          "name": "spender",
          "type": "address"
        },
        {
          "internalType": "uint256",
          "name": "allowance",
          "type": "uint256"
        },
        {
          "internalType": "uint256",
          "name": "needed",
          "type": "uint256"
        }
      ],
      "name": "ERC20InsufficientAllowance",
      "type": "error"
    },
    {
      "inputs": [
        {
          "internalType": "address",
          "name": "sender",
          "type": "address"
        },
        {
          "internalType": "uint256",
          "name": "balance",
          "type": "uint256"
        },
        {
          "internalType": "uint256",
          "name": "needed",
          "type": "uint256"
        }
      ],
      "name": "ERC20InsufficientBalance",
      "type": "error"
    },
    {
      "inputs": [
        {
          "internalType": "address",
          "name": "approver",
          "type": "address"
        }
      ],
      "name": "ERC20InvalidApprover",
      "type": "error"
    },
    {
      "inputs": [
        {
          "internalType": "address",
          "name": "receiver",
          "type": "address"
        }
      ],
      "name": "ERC20InvalidReceiver",
      "type": "error"
    },
    {
      "inputs": [
        {
          "internalType": "address",
          "name": "sender",
          "type": "address"
        }
      ],
      "name": "ERC20InvalidSender",
      "type": "error"
    },
    {
      "inputs": [
        {
          "internalType": "address",
          "name": "spender",
          "type": "address"
        }
      ],
      "name": "ERC20InvalidSpender",
      "type": "error"
    },
    {
      "inputs": [
        {
          "internalType": "address",
          "name": "owner",
          "type": "address"
        }
      ],
      "name": "OwnableInvalidOwner",
      "type": "error"
    },
    {
      "inputs": [
        {
          "internalType": "address",
          "name": "account",
          "type": "address"
        }
      ],
      "name": "OwnableUnauthorizedAccount",
      "type": "error"
    },
    {
      "anonymous": false,
      "inputs": [
        {
          "indexed": true,
          "internalType": "address",
          "name": "owner",
          "type": "address"
        },
        {
          "indexed": true,
          "internalType": "address",
          "name": "spender",
          "type": "address"
        },
        {
          "indexed": false,
          "internalType": "uint256",
          "name": "value",
          "type": "uint256"
        }
      ],
      "name": "Approval",
      "type": "event"
    },
    {
      "anonymous": false,
      "inputs": [
        {
          "indexed": true,
          "internalType": "address",
          "name": "user",
          "type": "address"
        },
        {
          "indexed": false,
          "internalType": "uint256",
          "name": "amount",
          "type": "uint256"
        }
      ],
      "name": "FaucetUsed",
      "type": "event"
    },
    {
      "anonymous": false,
      "inputs": [
        {
          "indexed": true,
          "internalType": "address",
          "name": "previousOwner",
          "type": "address"
        },
        {
          "indexed": true,
          "internalType": "address",
          "name": "newOwner",
          "type": "address"
        }
      ],
      "name": "OwnershipTransferred",
      "type": "event"
    },
    {
      "anonymous": false,
      "inputs": [
        {
          "indexed": true,
          "internalType": "address",
          "name": "to",
          "type": "address"
        },
        {
          "indexed": false,
          "internalType": "uint256",
          "name": "amount",
          "type": "uint256"
        }
      ],
      "name": "TokensMinted",
      "type": "event"
    },
    {
      "anonymous": false,
      "inputs": [
        {
          "indexed": true,
          "internalType": "address",
          "name": "from",
          "type": "address"
        },
        {
          "indexed": true,
          "internalType": "address",
          "name": "to",
          "type": "address"
        },
        {
          "indexed": false,
          "internalType": "uint256",
          "name": "value",
          "type": "uint256"
        }
      ],
      "name": "Transfer",
      "type": "event"
    },
    {
      "inputs": [],
      "name": "FAUCET_AMOUNT",
      "outputs": [
        {
          "internalType": "uint256",
          "name": "",
          "type": "uint256"
        }
      ],
      "stateMutability": "view",
      "type": "function"
    },
    {
      "inputs": [],
      "name": "FAUCET_COOLDOWN",
      "outputs": [
        {
          "internalType": "uint256",
          "name": "",
          "type": "uint256"
        }
      ],
      "stateMutability": "view",
      "type": "function"
    },
    {
      "inputs": [
        {
          "internalType": "address",
          "name": "owner",
          "type": "address"
        },
        {
          "internalType": "address",
          "name": "spender",
          "type": "address"
        }
      ],
      "name": "allowance",
      "outputs": [
        {
          "internalType": "uint256",
          "name": "",
          "type": "uint256"
        }
      ],
      "stateMutability": "view",
      "type": "function"
    },
    {
      "inputs": [
        {
          "internalType": "address",
          "name": "spender",
          "type": "address"
        },
        {
          "internalType": "uint256",
          "name": "value",
          "type": "uint256"
        }
      ],
      "name": "approve",
      "outputs": [
        {
          "internalType": "bool",
          "name": "",
          "type": "bool"
        }
      ],
      "stateMutability": "nonpayable",
      "type": "function"
    },
    {
      "inputs": [
        {
          "internalType": "address",
          "name": "account",
          "type": "address"
        }
      ],
      "name": "balanceOf",
      "outputs": [
        {
          "internalType": "uint256",
          "name": "",
          "type": "uint256"
        }
      ],
      "stateMutability": "view",
      "type": "function"
    },
    {
      "inputs": [
        {
          "internalType": "address",
          "name": "user",
          "type": "address"
        }
      ],
      "name": "canUseFaucet",
      "outputs": [
        {
          "internalType": "bool",
          "name": "canUse",
          "type": "bool"
        },
        {
          "internalType": "uint256",
          "name": "timeRemaining",
          "type": "uint256"
        }
      ],
      "stateMutability": "view",
      "type": "function"
    },
    {
      "inputs": [],
      "name": "decimals",
      "outputs": [
        {
          "internalType": "uint8",
          "name": "",
          "type": "uint8"
        }
      ],
      "stateMutability": "view",
      "type": "function"
    },
    {
      "inputs": [
        {
          "internalType": "uint256",
          "name": "amount",
          "type": "uint256"
        }
      ],
      "name": "emergencyMint",
      "outputs": [],
      "stateMutability": "nonpayable",
      "type": "function"
    },
    {
      "inputs": [],
      "name": "faucet",
      "outputs": [],
      "stateMutability": "nonpayable",
      "type": "function"
    },
    {
      "inputs": [
        {
          "internalType": "address",
          "name": "",
          "type": "address"
        }
      ],
      "name": "lastFaucetTime",
      "outputs": [
        {
          "internalType": "uint256",
          "name": "",
          "type": "uint256"
        }
      ],
      "stateMutability": "view",
      "type": "function"
    },
    {
      "inputs": [
        {
          "internalType": "address",
          "name": "to",
          "type": "address"
        },
        {
          "internalType": "uint256",
          "name": "amount",
          "type": "uint256"
        }
      ],
      "name": "mint",
      "outputs": [],
      "stateMutability": "nonpayable",
      "type": "function"
    },
    {
      "inputs": [
        {
          "internalType": "address[]",
          "name": "recipients",
          "type": "address[]"
        },
        {
          "internalType": "uint256[]",
          "name": "amounts",
          "type": "uint256[]"
        }
      ],
      "name": "mintBatch",
      "outputs": [],
      "stateMutability": "nonpayable",
      "type": "function"
    },
    {
      "inputs": [],
      "name": "name",
      "outputs": [
        {
          "internalType": "string",
          "name": "",
          "type": "string"
        }
      ],
      "stateMutability": "view",
      "type": "function"
    },
    {
      "inputs": [],
      "name": "owner",
      "outputs": [
        {
          "internalType": "address",
          "name": "",
          "type": "address"
        }
      ],
      "stateMutability": "view",
      "type": "function"
    },
    {
      "inputs": [],
      "name": "renounceOwnership",
      "outputs": [],
      "stateMutability": "nonpayable",
      "type": "function"
    },
    {
      "inputs": [],
      "name": "symbol",
      "outputs": [
        {
          "internalType": "string",
          "name": "",
          "type": "string"
        }
      ],
      "stateMutability": "view",
      "type": "function"
    },
    {
      "inputs": [],
      "name": "totalSupply",
      "outputs": [
        {
          "internalType": "uint256",
          "name": "",
          "type": "uint256"
        }
      ],
      "stateMutability": "view",
      "type": "function"
    },
    {
      "inputs": [
        {
          "internalType": "address",
          "name": "to",
          "type": "address"
        },
        {
          "internalType": "uint256",
          "name": "value",
          "type": "uint256"
        }
      ],
      "name": "transfer",
      "outputs": [
        {
          "internalType": "bool",
          "name": "",
          "type": "bool"
        }
      ],
      "stateMutability": "nonpayable",
      "type": "function"
    },
    {
      "inputs": [
        {
          "internalType": "address",
          "name": "from",
          "type": "address"
        },
        {
          "internalType": "address",
          "name": "to",
          "type": "address"
        },
        {
          "internalType": "uint256",
          "name": "value",
          "type": "uint256"
        }
      ],
      "name": "transferFrom",
      "outputs": [
        {
          "internalType": "bool",
          "name": "",
          "type": "bool"
        }
      ],
      "stateMutability": "nonpayable",
      "type": "function"
    },
    {
      "inputs": [
        {
          "internalType": "address",
          "name": "newOwner",
          "type": "address"
        }
      ],
      "name": "transferOwnership",
      "outputs": [],
      "stateMutability": "nonpayable",
      "type": "function"
    }
  ],
  "bytecode": "0x60806040523461041057604080519081016001600160401b0381118282101761031b576040908152600e82526d5354414b4542414b45205553444360901b602083015280519081016001600160401b0381118282101761031b5760405260048152635553444360e01b602082015281516001600160401b03811161031b57600354600181811c91168015610406575b60208210146102fb57601f81116103a1575b50602092601f821160011461033c5792819293600092610331575b50508160011b916000199060031b1c1916176003555b80516001600160401b03811161031b57600454600181811c91168015610311575b60208210146102fb57601f8111610296575b50602091601f821160011461023257918192600092610227575b50508160011b916000199060031b1c1916176004555b331561021157600554336001600160a01b0382167f8be0079c531659141344cd1fd0a4f28419497f9722a3daafe3b4186f6b6457e0600080a36001600160a81b0319163360ff60a01b191617600360a11b1760055560025460009064e8d4a5100081019081106101fd5760025550336000526000602052604060002064e8d4a51000815401905560405164e8d4a51000815260007fddf252ad1be2c89b69c2b068fc378daa952ba7f163c4a11628f55a4df523b3ef60203393a3604051610cfd90816104168239f35b634e487b7160e01b82526011600452602482fd5b631e4fbdf760e01b600052600060045260246000fd5b01519050388061011e565b601f198216926004600052806000209160005b85811061027e57508360019510610265575b505050811b01600455610134565b015160001960f88460031b161c19169055388080610257565b91926020600181928685015181550194019201610245565b60046000527f8a35acfbc15ff81a39ae7d344fd709f28e8600b4aa8c65c6b64bfe7fe36bd19b601f830160051c810191602084106102f1575b601f0160051c01905b8181106102e55750610104565b600081556001016102d8565b90915081906102cf565b634e487b7160e01b600052602260045260246000fd5b90607f16906100f2565b634e487b7160e01b600052604160045260246000fd5b0151905038806100bb565b601f198216936003600052806000209160005b8681106103895750836001959610610370575b505050811b016003556100d1565b015160001960f88460031b161c19169055388080610362565b9192602060018192868501518155019401920161034f565b60036000527fc2575a0e9e593c00f959f8c92f12db2869c3395a3b0502d05e2516446f71f85b601f830160051c810191602084106103fc575b601f0160051c01905b8181106103f057506100a0565b600081556001016103e3565b90915081906103da565b90607f169061008e565b600080fdfe608080604052600436101561001357600080fd5b60003560e01c90816306fdde031461096257508063095ea7b3146108dc57806318160ddd146108be57806323b872dd146107d1578063313ce567146107ad57806340c10f191461074857806370a082311461070e578063715018a6146106b15780637669764014610692578063780768fc146106615780637bc1f6cc146106275780637c88e3d9146104fe5780637d1d5d19146104e05780638da5cb5b146104b757806395d89b4114610396578063a9059cbb14610365578063dd62ed3e14610314578063de5f72fd1461021a578063f2fde38b146101905763ffcc66dc146100fb57600080fd5b3461018b57602036600319011261018b576004356402540be4008111610153576101258133610c3a565b6040519081527f3f2c9d57c068687834f0de942a9babb9e5acab57d516d3480a3c16ee165a427360203392a2005b60405162461bcd60e51b815260206004820152601060248201526f416d6f756e7420746f6f206c6172676560801b6044820152606490fd5b600080fd5b3461018b57602036600319011261018b576101a9610a7e565b6101b1610c11565b6001600160a01b0316801561020457600580546001600160a01b0319811683179091556001600160a01b03167f8be0079c531659141344cd1fd0a4f28419497f9722a3daafe3b4186f6b6457e0600080a3005b631e4fbdf760e01b600052600060045260246000fd5b3461018b57600036600319011261018b573360005260066020526040600020546201518081018091116102fe5742106102b9573360005260066020524260406000205533156102a357610271633b9aca0033610c55565b604051633b9aca0081527fc471df7d13ab46c73ec6eb2da0f35f84077f20d50243ba09a714b82cffc54de960203392a2005b63ec442f0560e01b600052600060045260246000fd5b60405162461bcd60e51b815260206004820152601c60248201527f46617563657420636f6f6c646f776e206e6f742066696e6973686564000000006044820152606490fd5b634e487b7160e01b600052601160045260246000fd5b3461018b57604036600319011261018b5761032d610a7e565b610335610a94565b6001600160a01b039182166000908152600160209081526040808320949093168252928352819020549051908152f35b3461018b57604036600319011261018b5761038b610381610a7e565b6024359033610b62565b602060405160018152f35b3461018b57600036600319011261018b5760405160006004548060011c906001811680156104ad575b6020831081146104995782855290811561047d5750600114610426575b50819003601f01601f191681019067ffffffffffffffff8211818310176104105761040c82918260405282610a35565b0390f35b634e487b7160e01b600052604160045260246000fd5b905060046000527f8a35acfbc15ff81a39ae7d344fd709f28e8600b4aa8c65c6b64bfe7fe36bd19b6000905b828210610467575060209150820101826103dc565b6001816020925483858801015201910190610452565b90506020925060ff191682840152151560051b820101826103dc565b634e487b7160e01b84526022600452602484fd5b91607f16916103bf565b3461018b57600036600319011261018b576005546040516001600160a01b039091168152602090f35b3461018b57600036600319011261018b576020604051620151808152f35b3461018b57604036600319011261018b5760043567ffffffffffffffff811161018b5761052f903690600401610aaa565b60243567ffffffffffffffff811161018b5761054f903690600401610aaa565b91610558610c11565b8281036105e95760005b81811061056b57005b8061059661058461057f600194868a610b28565b610b4e565b61058f838888610b28565b3590610c3a565b6105a461057f828589610b28565b7f3f2c9d57c068687834f0de942a9babb9e5acab57d516d3480a3c16ee165a427360206105d2848989610b28565b3592604051938452858060a01b031692a201610562565b60405162461bcd60e51b8152602060048201526016602482015275082e4e4c2f2e640d8cadccee8d040dad2e6dac2e8c6d60531b6044820152606490fd5b3461018b57602036600319011261018b576001600160a01b03610648610a7e565b1660005260066020526020604060002054604051908152f35b3461018b57602036600319011261018b57604061068461067f610a7e565b610adb565b825191151582526020820152f35b3461018b57600036600319011261018b576020604051633b9aca008152f35b3461018b57600036600319011261018b576106ca610c11565b600580546001600160a01b031981169091556000906001600160a01b03167f8be0079c531659141344cd1fd0a4f28419497f9722a3daafe3b4186f6b6457e08280a3005b3461018b57602036600319011261018b576001600160a01b0361072f610a7e565b1660005260006020526020604060002054604051908152f35b3461018b57604036600319011261018b57610761610a7e565b7f3f2c9d57c068687834f0de942a9babb9e5acab57d516d3480a3c16ee165a4273602060243592610790610c11565b61079a8482610c3a565b6040519384526001600160a01b031692a2005b3461018b57600036600319011261018b57602060ff60055460a01c16604051908152f35b3461018b57606036600319011261018b576107ea610a7e565b6107f2610a94565b6001600160a01b0382166000818152600160209081526040808320338452909152902054909260443592916000198110610832575b5061038b9350610b62565b8381106108a157841561088b5733156108755761038b946000526001602052604060002060018060a01b0333166000526020528360406000209103905584610827565b634a1406b160e11b600052600060045260246000fd5b63e602df0560e01b600052600060045260246000fd5b8390637dc7a0d960e11b6000523360045260245260445260646000fd5b3461018b57600036600319011261018b576020600254604051908152f35b3461018b57604036600319011261018b576108f5610a7e565b60243590331561088b576001600160a01b031690811561087557336000526001602052604060002082600052602052806040600020556040519081527f8c5be1e5ebec7d5bd14f71427d1e84f3dd0314c0f7b2291e5b200ac8c7c3b92560203392a3602060405160018152f35b3461018b57600036600319011261018b5760006003548060011c90600181168015610a2b575b6020831081146104995782855290811561047d57506001146109d45750819003601f01601f191681019067ffffffffffffffff8211818310176104105761040c82918260405282610a35565b905060036000527fc2575a0e9e593c00f959f8c92f12db2869c3395a3b0502d05e2516446f71f85b6000905b828210610a15575060209150820101826103dc565b6001816020925483858801015201910190610a00565b91607f1691610988565b91909160208152825180602083015260005b818110610a68575060409293506000838284010152601f8019910116010190565b8060208092870101516040828601015201610a47565b600435906001600160a01b038216820361018b57565b602435906001600160a01b038216820361018b57565b9181601f8401121561018b5782359167ffffffffffffffff831161018b576020808501948460051b01011161018b57565b6001600160a01b031660009081526006602052604090205462015180810191908281116102fe57428311610b13575060019150600090565b42900362015180019182116102fe5760009190565b9190811015610b385760051b0190565b634e487b7160e01b600052603260045260246000fd5b356001600160a01b038116810361018b5790565b6001600160a01b0316908115610bfb576001600160a01b03169182156102a3576000828152806020526040812054828110610be15791604082827fddf252ad1be2c89b69c2b068fc378daa952ba7f163c4a11628f55a4df523b3ef958760209652828652038282205586815280845220818154019055604051908152a3565b916064928463391434e360e21b8452600452602452604452fd5b634b637e8f60e11b600052600060045260246000fd5b6005546001600160a01b03163303610c2557565b63118cdaa760e01b6000523360045260246000fd5b906001600160a01b038216156102a357610c5391610c55565b565b600254908282018092116102fe576002919091556001600160a01b0316906000907fddf252ad1be2c89b69c2b068fc378daa952ba7f163c4a11628f55a4df523b3ef9060209084610cb25780600254036002555b604051908152a3565b84845283825260408420818154019055610ca956fea2646970667358221220ee6d66bdc9f9c202659a483648858a3978c575176bdc3b355fbb44adae6ddc7c64736f6c634300081c0033",
  "linkReferences": {},
  "deployedLinkReferences": {}
}