{
  "_format": "hh-sol-artifact-1",
  "contractName": "cSTTToken",
  "sourceName": "contracts/tokens/cSTTToken.sol",
  "abi": [
    {
      "inputs": [
        {
          "internalType": "string",
          "name": "name",
          "type": "string"
        },
        {
          "internalType": "string",
          "name": "symbol",
          "type": "string"
        },
        {
          "internalType": "uint256",
          "name": "initialSupply",
          "type": "uint256"
        }
      ],
      "stateMutability": "nonpayable",
      "type": "constructor"
    },
    {
      "inputs": [
        {
          "internalType": "address",
          "name": "spender",
          "type": "address"
        },
        {
          "internalType": "uint256",
          "name": "allowance",
          "type": "uint256"
        },
        {
          "internalType": "uint256",
          "name": "needed",
          "type": "uint256"
        }
      ],
      "name": "ERC20InsufficientAllowance",
      "type": "error"
    },
    {
      "inputs": [
        {
          "internalType": "address",
          "name": "sender",
          "type": "address"
        },
        {
          "internalType": "uint256",
          "name": "balance",
          "type": "uint256"
        },
        {
          "internalType": "uint256",
          "name": "needed",
          "type": "uint256"
        }
      ],
      "name": "ERC20InsufficientBalance",
      "type": "error"
    },
    {
      "inputs": [
        {
          "internalType": "address",
          "name": "approver",
          "type": "address"
        }
      ],
      "name": "ERC20InvalidApprover",
      "type": "error"
    },
    {
      "inputs": [
        {
          "internalType": "address",
          "name": "receiver",
          "type": "address"
        }
      ],
      "name": "ERC20InvalidReceiver",
      "type": "error"
    },
    {
      "inputs": [
        {
          "internalType": "address",
          "name": "sender",
          "type": "address"
        }
      ],
      "name": "ERC20InvalidSender",
      "type": "error"
    },
    {
      "inputs": [
        {
          "internalType": "address",
          "name": "spender",
          "type": "address"
        }
      ],
      "name": "ERC20InvalidSpender",
      "type": "error"
    },
    {
      "inputs": [
        {
          "internalType": "address",
          "name": "owner",
          "type": "address"
        }
      ],
      "name": "OwnableInvalidOwner",
      "type": "error"
    },
    {
      "inputs": [
        {
          "internalType": "address",
          "name": "account",
          "type": "address"
        }
      ],
      "name": "OwnableUnauthorizedAccount",
      "type": "error"
    },
    {
      "anonymous": false,
      "inputs": [
        {
          "indexed": true,
          "internalType": "address",
          "name": "owner",
          "type": "address"
        },
        {
          "indexed": true,
          "internalType": "address",
          "name": "spender",
          "type": "address"
        },
        {
          "indexed": false,
          "internalType": "uint256",
          "name": "value",
          "type": "uint256"
        }
      ],
      "name": "Approval",
      "type": "event"
    },
    {
      "anonymous": false,
      "inputs": [
        {
          "indexed": true,
          "internalType": "address",
          "name": "previousOwner",
          "type": "address"
        },
        {
          "indexed": true,
          "internalType": "address",
          "name": "newOwner",
          "type": "address"
        }
      ],
      "name": "OwnershipTransferred",
      "type": "event"
    },
    {
      "anonymous": false,
      "inputs": [
        {
          "indexed": true,
          "internalType": "address",
          "name": "from",
          "type": "address"
        },
        {
          "indexed": false,
          "internalType": "uint256",
          "name": "amount",
          "type": "uint256"
        }
      ],
      "name": "TokensBurned",
      "type": "event"
    },
    {
      "anonymous": false,
      "inputs": [
        {
          "indexed": true,
          "internalType": "address",
          "name": "to",
          "type": "address"
        },
        {
          "indexed": false,
          "internalType": "uint256",
          "name": "amount",
          "type": "uint256"
        }
      ],
      "name": "TokensMinted",
      "type": "event"
    },
    {
      "anonymous": false,
      "inputs": [
        {
          "indexed": true,
          "internalType": "address",
          "name": "from",
          "type": "address"
        },
        {
          "indexed": true,
          "internalType": "address",
          "name": "to",
          "type": "address"
        },
        {
          "indexed": false,
          "internalType": "uint256",
          "name": "value",
          "type": "uint256"
        }
      ],
      "name": "Transfer",
      "type": "event"
    },
    {
      "inputs": [
        {
          "internalType": "address",
          "name": "owner",
          "type": "address"
        },
        {
          "internalType": "address",
          "name": "spender",
          "type": "address"
        }
      ],
      "name": "allowance",
      "outputs": [
        {
          "internalType": "uint256",
          "name": "",
          "type": "uint256"
        }
      ],
      "stateMutability": "view",
      "type": "function"
    },
    {
      "inputs": [
        {
          "internalType": "address",
          "name": "spender",
          "type": "address"
        },
        {
          "internalType": "uint256",
          "name": "value",
          "type": "uint256"
        }
      ],
      "name": "approve",
      "outputs": [
        {
          "internalType": "bool",
          "name": "",
          "type": "bool"
        }
      ],
      "stateMutability": "nonpayable",
      "type": "function"
    },
    {
      "inputs": [
        {
          "internalType": "address",
          "name": "account",
          "type": "address"
        }
      ],
      "name": "balanceOf",
      "outputs": [
        {
          "internalType": "uint256",
          "name": "",
          "type": "uint256"
        }
      ],
      "stateMutability": "view",
      "type": "function"
    },
    {
      "inputs": [
        {
          "internalType": "uint256",
          "name": "amount",
          "type": "uint256"
        }
      ],
      "name": "burn",
      "outputs": [],
      "stateMutability": "nonpayable",
      "type": "function"
    },
    {
      "inputs": [
        {
          "internalType": "address",
          "name": "from",
          "type": "address"
        },
        {
          "internalType": "uint256",
          "name": "amount",
          "type": "uint256"
        }
      ],
      "name": "burnFrom",
      "outputs": [],
      "stateMutability": "nonpayable",
      "type": "function"
    },
    {
      "inputs": [],
      "name": "decimals",
      "outputs": [
        {
          "internalType": "uint8",
          "name": "",
          "type": "uint8"
        }
      ],
      "stateMutability": "view",
      "type": "function"
    },
    {
      "inputs": [
        {
          "internalType": "address",
          "name": "to",
          "type": "address"
        }
      ],
      "name": "faucet",
      "outputs": [],
      "stateMutability": "nonpayable",
      "type": "function"
    },
    {
      "inputs": [
        {
          "internalType": "address",
          "name": "",
          "type": "address"
        }
      ],
      "name": "lastFaucetTime",
      "outputs": [
        {
          "internalType": "uint256",
          "name": "",
          "type": "uint256"
        }
      ],
      "stateMutability": "view",
      "type": "function"
    },
    {
      "inputs": [
        {
          "internalType": "address",
          "name": "to",
          "type": "address"
        },
        {
          "internalType": "uint256",
          "name": "amount",
          "type": "uint256"
        }
      ],
      "name": "mint",
      "outputs": [],
      "stateMutability": "nonpayable",
      "type": "function"
    },
    {
      "inputs": [],
      "name": "name",
      "outputs": [
        {
          "internalType": "string",
          "name": "",
          "type": "string"
        }
      ],
      "stateMutability": "view",
      "type": "function"
    },
    {
      "inputs": [],
      "name": "owner",
      "outputs": [
        {
          "internalType": "address",
          "name": "",
          "type": "address"
        }
      ],
      "stateMutability": "view",
      "type": "function"
    },
    {
      "inputs": [],
      "name": "renounceOwnership",
      "outputs": [],
      "stateMutability": "nonpayable",
      "type": "function"
    },
    {
      "inputs": [],
      "name": "symbol",
      "outputs": [
        {
          "internalType": "string",
          "name": "",
          "type": "string"
        }
      ],
      "stateMutability": "view",
      "type": "function"
    },
    {
      "inputs": [],
      "name": "totalSupply",
      "outputs": [
        {
          "internalType": "uint256",
          "name": "",
          "type": "uint256"
        }
      ],
      "stateMutability": "view",
      "type": "function"
    },
    {
      "inputs": [
        {
          "internalType": "address",
          "name": "to",
          "type": "address"
        },
        {
          "internalType": "uint256",
          "name": "value",
          "type": "uint256"
        }
      ],
      "name": "transfer",
      "outputs": [
        {
          "internalType": "bool",
          "name": "",
          "type": "bool"
        }
      ],
      "stateMutability": "nonpayable",
      "type": "function"
    },
    {
      "inputs": [
        {
          "internalType": "address",
          "name": "from",
          "type": "address"
        },
        {
          "internalType": "address",
          "name": "to",
          "type": "address"
        },
        {
          "internalType": "uint256",
          "name": "value",
          "type": "uint256"
        }
      ],
      "name": "transferFrom",
      "outputs": [
        {
          "internalType": "bool",
          "name": "",
          "type": "bool"
        }
      ],
      "stateMutability": "nonpayable",
      "type": "function"
    },
    {
      "inputs": [
        {
          "internalType": "address",
          "name": "newOwner",
          "type": "address"
        }
      ],
      "name": "transferOwnership",
      "outputs": [],
      "stateMutability": "nonpayable",
      "type": "function"
    }
  ],
  "bytecode": "0x608060405234610441576110298038038061001981610446565b9283398101906060818303126104415780516001600160401b038111610441578261004591830161046b565b60208201519092906001600160401b0381116104415760409161006991840161046b565b91015182516001600160401b03811161034a57600354600181811c91168015610437575b602082101461032a57601f81116103d2575b506020601f821160011461036b5781929394600092610360575b50508160011b916000199060031b1c1916176003555b81516001600160401b03811161034a57600454600181811c91168015610340575b602082101461032a57601f81116102c5575b50602092601f82116001146102605792819293600092610255575b50508160011b916000199060031b1c1916176004555b331561023f5760058054336001600160a01b0319821681179092556001600160a01b03167f8be0079c531659141344cd1fd0a4f28419497f9722a3daafe3b4186f6b6457e0600080a3670de0b6b3a764000061018f81836104d6565b9160009260025481810180911161022b57936101f09460025550336000526000602052604060002081815401905560405190815260007fddf252ad1be2c89b69c2b068fc378daa952ba7f163c4a11628f55a4df523b3ef60203393a36104d6565b6040519081527f3f2c9d57c068687834f0de942a9babb9e5acab57d516d3480a3c16ee165a427360203392a2604051610b2990816105008239f35b634e487b7160e01b85526011600452602485fd5b631e4fbdf760e01b600052600060045260246000fd5b01519050388061011d565b601f198216936004600052806000209160005b8681106102ad5750836001959610610294575b505050811b01600455610133565b015160001960f88460031b161c19169055388080610286565b91926020600181928685015181550194019201610273565b60046000527f8a35acfbc15ff81a39ae7d344fd709f28e8600b4aa8c65c6b64bfe7fe36bd19b601f830160051c81019160208410610320575b601f0160051c01905b8181106103145750610102565b60008155600101610307565b90915081906102fe565b634e487b7160e01b600052602260045260246000fd5b90607f16906100f0565b634e487b7160e01b600052604160045260246000fd5b0151905038806100b9565b601f198216906003600052806000209160005b8181106103ba575095836001959697106103a1575b505050811b016003556100cf565b015160001960f88460031b161c19169055388080610393565b9192602060018192868b01518155019401920161037e565b60036000527fc2575a0e9e593c00f959f8c92f12db2869c3395a3b0502d05e2516446f71f85b601f830160051c8101916020841061042d575b601f0160051c01905b818110610421575061009f565b60008155600101610414565b909150819061040b565b90607f169061008d565b600080fd5b6040519190601f01601f191682016001600160401b0381118382101761034a57604052565b81601f82011215610441578051906001600160401b03821161034a5761049a601f8301601f1916602001610446565b92828452602083830101116104415760005b8281106104c157505060206000918301015290565b806020809284010151828287010152016104ac565b818102929181159184041417156104e957565b634e487b7160e01b600052601160045260246000fdfe608080604052600436101561001357600080fd5b60003560e01c90816306fdde031461073557508063095ea7b31461068357806318160ddd1461066557806323b872dd1461062d578063313ce5671461061157806340c10f19146105a557806342966c681461055957806370a082311461051f578063715018a6146104c257806379cc67901461045a5780637bc1f6cc146104205780638da5cb5b146103f757806395d89b41146102d6578063a9059cbb146102a5578063b86d1d63146101ba578063dd62ed3e146101695763f2fde38b146100da57600080fd5b34610164576020366003190112610164576100f3610851565b6100fb6109d7565b6001600160a01b0316801561014e57600580546001600160a01b0319811683179091556001600160a01b03167f8be0079c531659141344cd1fd0a4f28419497f9722a3daafe3b4186f6b6457e0600080a3005b631e4fbdf760e01b600052600060045260246000fd5b600080fd5b3461016457604036600319011261016457610182610851565b61018a610867565b6001600160a01b039182166000908152600160209081526040808320949093168252928352819020549051908152f35b34610164576020366003190112610164576101d3610851565b336000526006602052604060002054420342811161028f57610e1011610240576001600160a01b0381161561022a5768056bc75e2d6310000061021591610a81565b33600052600660205242604060002055600080f35b63ec442f0560e01b600052600060045260246000fd5b60405162461bcd60e51b815260206004820152602160248201527f596f752063616e206f6e6c7920666175636574206f6e63652070657220686f756044820152603960f91b6064820152608490fd5b634e487b7160e01b600052601160045260246000fd5b34610164576040366003190112610164576102cb6102c1610851565b6024359033610928565b602060405160018152f35b346101645760003660031901126101645760405160006004548060011c906001811680156103ed575b6020831081146103d9578285529081156103bd5750600114610366575b50819003601f01601f191681019067ffffffffffffffff8211818310176103505761034c82918260405282610808565b0390f35b634e487b7160e01b600052604160045260246000fd5b905060046000527f8a35acfbc15ff81a39ae7d344fd709f28e8600b4aa8c65c6b64bfe7fe36bd19b6000905b8282106103a75750602091508201018261031c565b6001816020925483858801015201910190610392565b90506020925060ff191682840152151560051b8201018261031c565b634e487b7160e01b84526022600452602484fd5b91607f16916102ff565b34610164576000366003190112610164576005546040516001600160a01b039091168152602090f35b34610164576020366003190112610164576001600160a01b03610441610851565b1660005260066020526020604060002054604051908152f35b3461016457604036600319011261016457610473610851565b7ffd38818f5291bf0bb3a2a48aadc06ba8757865d1dabd804585338aab3009dcb66020602435926104a584338361087d565b6104af8482610a00565b6040519384526001600160a01b031692a2005b34610164576000366003190112610164576104db6109d7565b600580546001600160a01b031981169091556000906001600160a01b03167f8be0079c531659141344cd1fd0a4f28419497f9722a3daafe3b4186f6b6457e08280a3005b34610164576020366003190112610164576001600160a01b03610540610851565b1660005260006020526020604060002054604051908152f35b34610164576020366003190112610164576004356105778133610a00565b6040519081527ffd38818f5291bf0bb3a2a48aadc06ba8757865d1dabd804585338aab3009dcb660203392a2005b34610164576040366003190112610164576105be610851565b6024356105c96109d7565b6001600160a01b03821691821561022a57816106087f3f2c9d57c068687834f0de942a9babb9e5acab57d516d3480a3c16ee165a427393602093610a81565b604051908152a2005b3461016457600036600319011261016457602060405160128152f35b34610164576060366003190112610164576102cb610649610851565b610651610867565b6044359161066083338361087d565b610928565b34610164576000366003190112610164576020600254604051908152f35b346101645760403660031901126101645761069c610851565b60243590331561071f576001600160a01b031690811561070957336000526001602052604060002082600052602052806040600020556040519081527f8c5be1e5ebec7d5bd14f71427d1e84f3dd0314c0f7b2291e5b200ac8c7c3b92560203392a3602060405160018152f35b634a1406b160e11b600052600060045260246000fd5b63e602df0560e01b600052600060045260246000fd5b346101645760003660031901126101645760006003548060011c906001811680156107fe575b6020831081146103d9578285529081156103bd57506001146107a75750819003601f01601f191681019067ffffffffffffffff8211818310176103505761034c82918260405282610808565b905060036000527fc2575a0e9e593c00f959f8c92f12db2869c3395a3b0502d05e2516446f71f85b6000905b8282106107e85750602091508201018261031c565b60018160209254838588010152019101906107d3565b91607f169161075b565b91909160208152825180602083015260005b81811061083b575060409293506000838284010152601f8019910116010190565b806020809287010151604082860101520161081a565b600435906001600160a01b038216820361016457565b602435906001600160a01b038216820361016457565b6001600160a01b0390811660008181526001602090815260408083209486168352939052919091205492919060001984106108b9575b50505050565b82841061090357801561071f576001600160a01b0382161561070957600052600160205260406000209060018060a01b0316600052602052604060002091039055388080806108b3565b508290637dc7a0d960e11b60005260018060a01b031660045260245260445260646000fd5b6001600160a01b03169081156109c1576001600160a01b031691821561022a5760008281528060205260408120548281106109a75791604082827fddf252ad1be2c89b69c2b068fc378daa952ba7f163c4a11628f55a4df523b3ef958760209652828652038282205586815280845220818154019055604051908152a3565b916064928463391434e360e21b8452600452602452604452fd5b634b637e8f60e11b600052600060045260246000fd5b6005546001600160a01b031633036109eb57565b63118cdaa760e01b6000523360045260246000fd5b6001600160a01b031680156109c157600091818352826020526040832054818110610a6857817fddf252ad1be2c89b69c2b068fc378daa952ba7f163c4a11628f55a4df523b3ef926020928587528684520360408620558060025403600255604051908152a3565b6064939263391434e360e21b8452600452602452604452fd5b6002549082820180921161028f576002919091556001600160a01b0316906000907fddf252ad1be2c89b69c2b068fc378daa952ba7f163c4a11628f55a4df523b3ef9060209084610ade5780600254036002555b604051908152a3565b84845283825260408420818154019055610ad556fea264697066735822122014b730fa6c02559208950aadc2bdfdb8ae1e544dfaa5abc93d5f38ba8a1d12ba64736f6c634300081c0033",
  "linkReferences": {},
  "deployedLinkReferences": {}
}