{
  "_format": "hh-sol-artifact-1",
  "contractName": "SbFTMarketplace",
  "sourceName": "contracts/marletplace/sbFTMarketplace.sol",
  "abi": [
    {
      "inputs": [
        {
          "internalType": "address",
          "name": "_sbftToken",
          "type": "address"
        },
        {
          "internalType": "address",
          "name": "_usdcToken",
          "type": "address"
        }
      ],
      "stateMutability": "nonpayable",
      "type": "constructor"
    },
    {
      "inputs": [
        {
          "internalType": "address",
          "name": "owner",
          "type": "address"
        }
      ],
      "name": "OwnableInvalidOwner",
      "type": "error"
    },
    {
      "inputs": [
        {
          "internalType": "address",
          "name": "account",
          "type": "address"
        }
      ],
      "name": "OwnableUnauthorizedAccount",
      "type": "error"
    },
    {
      "inputs": [],
      "name": "ReentrancyGuardReentrantCall",
      "type": "error"
    },
    {
      "anonymous": false,
      "inputs": [
        {
          "indexed": true,
          "internalType": "address",
          "name": "to",
          "type": "address"
        },
        {
          "indexed": false,
          "internalType": "uint256",
          "name": "amount",
          "type": "uint256"
        }
      ],
      "name": "FeesWithdrawn",
      "type": "event"
    },
    {
      "anonymous": false,
      "inputs": [
        {
          "indexed": true,
          "internalType": "uint256",
          "name": "orderId",
          "type": "uint256"
        },
        {
          "indexed": true,
          "internalType": "address",
          "name": "user",
          "type": "address"
        }
      ],
      "name": "OrderCanceled",
      "type": "event"
    },
    {
      "anonymous": false,
      "inputs": [
        {
          "indexed": true,
          "internalType": "uint256",
          "name": "orderId",
          "type": "uint256"
        },
        {
          "indexed": true,
          "internalType": "address",
          "name": "user",
          "type": "address"
        },
        {
          "indexed": false,
          "internalType": "bool",
          "name": "isBuyOrder",
          "type": "bool"
        },
        {
          "indexed": false,
          "internalType": "uint256",
          "name": "sbftAmount",
          "type": "uint256"
        },
        {
          "indexed": false,
          "internalType": "uint256",
          "name": "usdcPrice",
          "type": "uint256"
        },
        {
          "indexed": false,
          "internalType": "uint256",
          "name": "totalValue",
          "type": "uint256"
        }
      ],
      "name": "OrderCreated",
      "type": "event"
    },
    {
      "anonymous": false,
      "inputs": [
        {
          "indexed": true,
          "internalType": "uint256",
          "name": "orderId",
          "type": "uint256"
        },
        {
          "indexed": true,
          "internalType": "address",
          "name": "buyer",
          "type": "address"
        },
        {
          "indexed": true,
          "internalType": "address",
          "name": "seller",
          "type": "address"
        },
        {
          "indexed": false,
          "internalType": "uint256",
          "name": "sbftAmount",
          "type": "uint256"
        },
        {
          "indexed": false,
          "internalType": "uint256",
          "name": "usdcAmount",
          "type": "uint256"
        },
        {
          "indexed": false,
          "internalType": "uint256",
          "name": "fee",
          "type": "uint256"
        }
      ],
      "name": "OrderFilled",
      "type": "event"
    },
    {
      "anonymous": false,
      "inputs": [
        {
          "indexed": true,
          "internalType": "address",
          "name": "previousOwner",
          "type": "address"
        },
        {
          "indexed": true,
          "internalType": "address",
          "name": "newOwner",
          "type": "address"
        }
      ],
      "name": "OwnershipTransferred",
      "type": "event"
    },
    {
      "anonymous": false,
      "inputs": [
        {
          "indexed": false,
          "internalType": "uint256",
          "name": "newFee",
          "type": "uint256"
        }
      ],
      "name": "TradingFeeUpdated",
      "type": "event"
    },
    {
      "inputs": [],
      "name": "BASIS_POINTS",
      "outputs": [
        {
          "internalType": "uint256",
          "name": "",
          "type": "uint256"
        }
      ],
      "stateMutability": "view",
      "type": "function"
    },
    {
      "inputs": [],
      "name": "MIN_ORDER_SIZE",
      "outputs": [
        {
          "internalType": "uint256",
          "name": "",
          "type": "uint256"
        }
      ],
      "stateMutability": "view",
      "type": "function"
    },
    {
      "inputs": [
        {
          "internalType": "uint256",
          "name": "",
          "type": "uint256"
        }
      ],
      "name": "activeBuyOrders",
      "outputs": [
        {
          "internalType": "uint256",
          "name": "",
          "type": "uint256"
        }
      ],
      "stateMutability": "view",
      "type": "function"
    },
    {
      "inputs": [
        {
          "internalType": "uint256",
          "name": "",
          "type": "uint256"
        }
      ],
      "name": "activeSellOrders",
      "outputs": [
        {
          "internalType": "uint256",
          "name": "",
          "type": "uint256"
        }
      ],
      "stateMutability": "view",
      "type": "function"
    },
    {
      "inputs": [
        {
          "internalType": "uint256",
          "name": "orderId",
          "type": "uint256"
        }
      ],
      "name": "cancelOrder",
      "outputs": [],
      "stateMutability": "nonpayable",
      "type": "function"
    },
    {
      "inputs": [
        {
          "internalType": "uint256",
          "name": "sbftAmount",
          "type": "uint256"
        },
        {
          "internalType": "uint256",
          "name": "usdcPrice",
          "type": "uint256"
        }
      ],
      "name": "createBuyOrder",
      "outputs": [],
      "stateMutability": "nonpayable",
      "type": "function"
    },
    {
      "inputs": [
        {
          "internalType": "uint256",
          "name": "sbftAmount",
          "type": "uint256"
        },
        {
          "internalType": "uint256",
          "name": "usdcPrice",
          "type": "uint256"
        }
      ],
      "name": "createSellOrder",
      "outputs": [],
      "stateMutability": "nonpayable",
      "type": "function"
    },
    {
      "inputs": [],
      "name": "feesCollected",
      "outputs": [
        {
          "internalType": "uint256",
          "name": "",
          "type": "uint256"
        }
      ],
      "stateMutability": "view",
      "type": "function"
    },
    {
      "inputs": [],
      "name": "getActiveBuyOrders",
      "outputs": [
        {
          "internalType": "uint256[]",
          "name": "",
          "type": "uint256[]"
        }
      ],
      "stateMutability": "view",
      "type": "function"
    },
    {
      "inputs": [],
      "name": "getActiveSellOrders",
      "outputs": [
        {
          "internalType": "uint256[]",
          "name": "",
          "type": "uint256[]"
        }
      ],
      "stateMutability": "view",
      "type": "function"
    },
    {
      "inputs": [],
      "name": "getMarketStats",
      "outputs": [
        {
          "internalType": "uint256",
          "name": "",
          "type": "uint256"
        },
        {
          "internalType": "uint256",
          "name": "",
          "type": "uint256"
        },
        {
          "internalType": "uint256",
          "name": "",
          "type": "uint256"
        }
      ],
      "stateMutability": "view",
      "type": "function"
    },
    {
      "inputs": [
        {
          "internalType": "uint256",
          "name": "orderId",
          "type": "uint256"
        }
      ],
      "name": "getOrder",
      "outputs": [
        {
          "components": [
            {
              "internalType": "uint256",
              "name": "id",
              "type": "uint256"
            },
            {
              "internalType": "address",
              "name": "user",
              "type": "address"
            },
            {
              "internalType": "bool",
              "name": "isBuyOrder",
              "type": "bool"
            },
            {
              "internalType": "uint256",
              "name": "sbftAmount",
              "type": "uint256"
            },
            {
              "internalType": "uint256",
              "name": "usdcPrice",
              "type": "uint256"
            },
            {
              "internalType": "uint256",
              "name": "totalValue",
              "type": "uint256"
            },
            {
              "internalType": "uint256",
              "name": "filled",
              "type": "uint256"
            },
            {
              "internalType": "uint256",
              "name": "timestamp",
              "type": "uint256"
            },
            {
              "internalType": "bool",
              "name": "active",
              "type": "bool"
            }
          ],
          "internalType": "struct SbFTMarketplace.Order",
          "name": "",
          "type": "tuple"
        }
      ],
      "stateMutability": "view",
      "type": "function"
    },
    {
      "inputs": [
        {
          "internalType": "address",
          "name": "user",
          "type": "address"
        }
      ],
      "name": "getUserOrders",
      "outputs": [
        {
          "internalType": "uint256[]",
          "name": "",
          "type": "uint256[]"
        }
      ],
      "stateMutability": "view",
      "type": "function"
    },
    {
      "inputs": [],
      "name": "orderCount",
      "outputs": [
        {
          "internalType": "uint256",
          "name": "",
          "type": "uint256"
        }
      ],
      "stateMutability": "view",
      "type": "function"
    },
    {
      "inputs": [
        {
          "internalType": "uint256",
          "name": "",
          "type": "uint256"
        }
      ],
      "name": "orders",
      "outputs": [
        {
          "internalType": "uint256",
          "name": "id",
          "type": "uint256"
        },
        {
          "internalType": "address",
          "name": "user",
          "type": "address"
        },
        {
          "internalType": "bool",
          "name": "isBuyOrder",
          "type": "bool"
        },
        {
          "internalType": "uint256",
          "name": "sbftAmount",
          "type": "uint256"
        },
        {
          "internalType": "uint256",
          "name": "usdcPrice",
          "type": "uint256"
        },
        {
          "internalType": "uint256",
          "name": "totalValue",
          "type": "uint256"
        },
        {
          "internalType": "uint256",
          "name": "filled",
          "type": "uint256"
        },
        {
          "internalType": "uint256",
          "name": "timestamp",
          "type": "uint256"
        },
        {
          "internalType": "bool",
          "name": "active",
          "type": "bool"
        }
      ],
      "stateMutability": "view",
      "type": "function"
    },
    {
      "inputs": [],
      "name": "owner",
      "outputs": [
        {
          "internalType": "address",
          "name": "",
          "type": "address"
        }
      ],
      "stateMutability": "view",
      "type": "function"
    },
    {
      "inputs": [],
      "name": "renounceOwnership",
      "outputs": [],
      "stateMutability": "nonpayable",
      "type": "function"
    },
    {
      "inputs": [],
      "name": "sbftToken",
      "outputs": [
        {
          "internalType": "contract IERC20",
          "name": "",
          "type": "address"
        }
      ],
      "stateMutability": "view",
      "type": "function"
    },
    {
      "inputs": [],
      "name": "totalTrades",
      "outputs": [
        {
          "internalType": "uint256",
          "name": "",
          "type": "uint256"
        }
      ],
      "stateMutability": "view",
      "type": "function"
    },
    {
      "inputs": [],
      "name": "totalVolume",
      "outputs": [
        {
          "internalType": "uint256",
          "name": "",
          "type": "uint256"
        }
      ],
      "stateMutability": "view",
      "type": "function"
    },
    {
      "inputs": [],
      "name": "tradingFee",
      "outputs": [
        {
          "internalType": "uint256",
          "name": "",
          "type": "uint256"
        }
      ],
      "stateMutability": "view",
      "type": "function"
    },
    {
      "inputs": [
        {
          "internalType": "address",
          "name": "newOwner",
          "type": "address"
        }
      ],
      "name": "transferOwnership",
      "outputs": [],
      "stateMutability": "nonpayable",
      "type": "function"
    },
    {
      "inputs": [
        {
          "internalType": "uint256",
          "name": "newFee",
          "type": "uint256"
        }
      ],
      "name": "updateTradingFee",
      "outputs": [],
      "stateMutability": "nonpayable",
      "type": "function"
    },
    {
      "inputs": [],
      "name": "usdcToken",
      "outputs": [
        {
          "internalType": "contract IERC20",
          "name": "",
          "type": "address"
        }
      ],
      "stateMutability": "view",
      "type": "function"
    },
    {
      "inputs": [
        {
          "internalType": "address",
          "name": "",
          "type": "address"
        },
        {
          "internalType": "uint256",
          "name": "",
          "type": "uint256"
        }
      ],
      "name": "userOrders",
      "outputs": [
        {
          "internalType": "uint256",
          "name": "",
          "type": "uint256"
        }
      ],
      "stateMutability": "view",
      "type": "function"
    },
    {
      "inputs": [
        {
          "internalType": "address",
          "name": "to",
          "type": "address"
        }
      ],
      "name": "withdrawFees",
      "outputs": [],
      "stateMutability": "nonpayable",
      "type": "function"
    }
  ],
  "bytecode": "0x60803461018157601f611e8838819003918201601f19168301916001600160401b0383118484101761018657808492604094855283398101031261018157610052602061004b8361019c565b920161019c565b331561016b5760008054336001600160a01b0319821681178355604051949290916001600160a01b0316907f8be0079c531659141344cd1fd0a4f28419497f9722a3daafe3b4186f6b6457e09080a36001805560fa6004556001600160a01b031691821561013457506001600160a01b03169081156100fa5760018060a01b0319600254161760025560018060a01b03196003541617600355604051611cd790816101b18239f35b60405162461bcd60e51b815260206004820152601260248201527124b73b30b634b2102aa9a221903a37b5b2b760711b6044820152606490fd5b62461bcd60e51b815260206004820152601260248201527124b73b30b634b21039b1232a103a37b5b2b760711b6044820152606490fd5b631e4fbdf760e01b600052600060045260246000fd5b600080fd5b634e487b7160e01b600052604160045260246000fd5b51906001600160a01b03821682036101815756fe608080604052600436101561001357600080fd5b60003560e01c90816311eac855146114af57508063164e68de146111cf5780631df6810214610eb05780631ec42dd314610e875780632453ffa814610e695780632cb4f4b714610ac1578063514fcac7146107b057806356f43352146107925780635f81a57c1461077457806363c69f08146106fd578063715018a6146106a45780637895e5a71461067b578063856652e9146106315780638da5cb5b14610608578063a85c38ef14610574578063cc7075bb146104fd578063d09ef241146103cc578063d3dec67714610349578063d3f82d8e14610326578063e1a6782814610293578063e1f1c4a714610276578063e275c99714610258578063ec62ed2814610220578063f071db5a14610202578063f2fde38b146101795763ff4cd5b91461013d57600080fd5b3461017457600036600319011261017457600a54600b54600c546040805193845260208401929092529082015280606081015b0390f35b600080fd5b34610174576020366003190112610174576101926114d3565b61019a6116f6565b6001600160a01b031680156101ec57600080546001600160a01b03198116831782556001600160a01b0316907f8be0079c531659141344cd1fd0a4f28419497f9722a3daafe3b4186f6b6457e09080a3005b631e4fbdf760e01b600052600060045260246000fd5b34610174576000366003190112610174576020600c54604051908152f35b346101745760203660031901126101745760043560085481101561017457610249602091611539565b90549060031b1c604051908152f35b34610174576000366003190112610174576020600b54604051908152f35b346101745760003660031901126101745760206040516127108152f35b34610174576020366003190112610174576004356102af6116f6565b6103e881116102e9576020817fa3dfe13986da4bcfdc32f544ebe130cb8ec20a2afc45e7c3994975076a08e57892600455604051908152a1005b60405162461bcd60e51b81526020600482015260156024820152744665652063616e6e6f74206578636565642031302560581b6044820152606490fd5b34610174576000366003190112610174576020604051670de0b6b3a76400008152f35b346101745760003660031901126101745760405180602060095491828152019060096000527f6e1540171b6c0c960b71a7020d9f60077f6af931a8bbf590da0223dacf75c7af9060005b8181106103b657610170856103aa818703826115ba565b604051918291826114ff565b8254845260209093019260019283019201610393565b346101745760203660031901126101745760006101006040516103ee8161159d565b8281528260208201528260408201528260608201528260808201528260a08201528260c08201528260e082015201526004356000526005602052610120604060002060405161043c8161159d565b8154918282526001810154602083019060018060a01b038116825260ff604085019160a01c16151581526002830154606085019081526003840154906080860191825260048501549260a0870193845260058601549460c0880195865261010060ff600760068a01549960e08c019a8b520154169801971515885260405198895260018060a01b03905116602089015251151560408801525160608701525160808601525160a08501525160c08401525160e0830152511515610100820152f35b346101745760003660031901126101745760405180602060085491828152019060086000527ff3f7a9fe364faab93b216da50a3214154f22a0a2b415b23a84c8169e8b636ee39060005b81811061055e57610170856103aa818703826115ba565b8254845260209093019260019283019201610547565b3461017457602036600319011261017457600435600052600560205261012060406000208054906001810154906002810154600382015460048301549060058401549260ff8060076006880154970154169660405198895260018060a01b03811660208a015260a01c16151560408801526060870152608086015260a085015260c084015260e08301521515610100820152f35b34610174576000366003190112610174576000546040516001600160a01b039091168152602090f35b346101745760403660031901126101745761064a6114d3565b6001600160a01b03166000908152600660205260409020805460243591908210156101745760209161024991611585565b34610174576020366003190112610174576004356009548110156101745761024960209161156a565b34610174576000366003190112610174576106bd6116f6565b600080546001600160a01b0319811682556001600160a01b03167f8be0079c531659141344cd1fd0a4f28419497f9722a3daafe3b4186f6b6457e08280a3005b34610174576020366003190112610174576001600160a01b0361071e6114d3565b166000526006602052604060002060405190816020825491828152019160005260206000209060005b81811061075e57610170856103aa818703826115ba565b8254845260209093019260019283019201610747565b34610174576000366003190112610174576020600a54604051908152f35b34610174576000366003190112610174576020600454604051908152f35b34610174576020366003190112610174576004356107cc61172c565b600754811015610a855760008181526005602052604090206001810154336001600160a01b03821603610a4f57600782019081549160ff831615610a175760ff92831916905560a01c1660001461094d5761084881600361083f6002670de0b6b3a76400009501546005840154906116e9565b9101549061168c565b0480610887575b505b61085a81611872565b33907f9384174c8517f5537b08e79211fc039e8a098571a3a2b4cb21dfa6f3237e8de1600080a360018055005b60035460405163a9059cbb60e01b81523360048201526024810192909252602090829060449082906000906001600160a01b03165af190811561094157600091610912575b50156108d8578161084f565b60405162461bcd60e51b81526020600482015260126024820152711554d110c81c995d1d5c9b8819985a5b195960721b6044820152606490fd5b610934915060203d60201161093a575b61092c81836115ba565b8101906115dc565b826108cc565b503d610922565b6040513d6000823e3d90fd5b8060056002610961930154910154906116e9565b8061096d575b50610851565b60025460405163a9059cbb60e01b81523360048201526024810192909252602090829060449082906000906001600160a01b03165af1908115610941576000916109f8575b50156109be5781610967565b60405162461bcd60e51b81526020600482015260126024820152711cd89195081c995d1d5c9b8819985a5b195960721b6044820152606490fd5b610a11915060203d60201161093a5761092c81836115ba565b826109b2565b60405162461bcd60e51b815260206004820152601060248201526f4f72646572206e6f742061637469766560801b6044820152606490fd5b60405162461bcd60e51b815260206004820152600e60248201526d2737ba103cb7bab91037b93232b960911b6044820152606490fd5b60405162461bcd60e51b815260206004820152601460248201527313dc99195c88191bd95cc81b9bdd08195e1a5cdd60621b6044820152606490fd5b3461017457610acf366114e9565b90610ad861172c565b610aec670de0b6b3a76400008210156115f4565b610af7821515611640565b670de0b6b3a7640000610b0a838361168c565b04908115610e19576003546040516370a0823160e01b81523360048201526001600160a01b0390911690602081602481855afa8015610941578491600091610de4575b5010610d9f576040516323b872dd60e01b81523360048201523060248201526044810184905290602090829060649082906000905af190811561094157600091610d80575b5015610d445760075491610ba5836116b5565b600755610c8c604051610bb78161159d565b84815260076020820133815260408301906001825260608401878152608085018a815260a086019088825260c08701926000845260e0880194428652610100890196600188528d6000526005602052604060002099518a5560018a019160018060a01b039060018060a01b03905116166bffffffffffffffffffffffff60a01b83541617825551151581549060ff60a01b9060a01b169060ff60a01b191617905551600288015551600387015551600486015551600585015551600684015551151591019060ff801983541691151516179055565b336000526006602052610ca38360406000206116c4565b60085493600160401b851015610d2e57610ce584610ccc876001610d2899016008556008611585565b90919082549060031b91821b91600019901b1916179055565b6040519260018452602084015260408301526060820152817fead3c1cd34e260453780db24b86c33f236918c1639aa984f3001d44b52c074f760803393a361174e565b60018055005b634e487b7160e01b600052604160045260246000fd5b60405162461bcd60e51b81526020600482015260146024820152731554d110c81d1c985b9cd9995c8819985a5b195960621b6044820152606490fd5b610d99915060203d60201161093a5761092c81836115ba565b84610b92565b60405162461bcd60e51b815260206004820152601960248201527f496e73756666696369656e7420555344432062616c616e6365000000000000006044820152606490fd5b9150506020813d602011610e11575b81610e00602093836115ba565b810103126101745783905186610b4d565b3d9150610df3565b60405162461bcd60e51b815260206004820152602260248201527f546f74616c2076616c7565206d7573742062652067726561746572207468616e604482015261020360f41b6064820152608490fd5b34610174576000366003190112610174576020600754604051908152f35b34610174576000366003190112610174576002546040516001600160a01b039091168152602090f35b3461017457610ebe366114e9565b90610ec761172c565b610edb670de0b6b3a76400008210156115f4565b610ee6821515611640565b6002546040516370a0823160e01b81523360048201526001600160a01b039091169190602081602481865afa801561094157829160009161119a575b501061115557670de0b6b3a7640000610f3b848361168c565b6040516323b872dd60e01b81523360048201523060248201526044810184905291900492602090829060649082906000905af190811561094157600091611136575b50156110fa5760075491610f90836116b5565b600755611077604051610fa28161159d565b84815260076020820133815260408301906000825260608401878152608085018a815260a086019088825260c08701926000845260e0880194428652610100890196600188528d6000526005602052604060002099518a5560018a019160018060a01b039060018060a01b03905116166bffffffffffffffffffffffff60a01b83541617825551151581549060ff60a01b9060a01b169060ff60a01b191617905551600288015551600387015551600486015551600585015551600684015551151591019060ff801983541691151516179055565b33600052600660205261108e8360406000206116c4565b60095493600160401b851015610d2e576110b784610ccc876001610d2899016009556009611585565b6040519260008452602084015260408301526060820152817fead3c1cd34e260453780db24b86c33f236918c1639aa984f3001d44b52c074f760803393a361174e565b60405162461bcd60e51b81526020600482015260146024820152731cd89195081d1c985b9cd9995c8819985a5b195960621b6044820152606490fd5b61114f915060203d60201161093a5761092c81836115ba565b84610f7d565b60405162461bcd60e51b815260206004820152601960248201527f496e73756666696369656e7420736246542062616c616e6365000000000000006044820152606490fd5b9150506020813d6020116111c7575b816111b6602093836115ba565b810103126101745781905185610f22565b3d91506111a9565b34610174576020366003190112610174576111e86114d3565b6111f06116f6565b6001600160a01b038116908115611478576003546040516370a0823160e01b81523060048201526001600160a01b039091169190602081602481865afa801561094157611449575b506040516370a0823160e01b8152306004820152602081602481865afa90811561094157600091611414575b50600080600854905b8181106113aa5750506000918181116000146113a25761128d92506116e9565b915b82156113675760405163a9059cbb60e01b81526001600160a01b0392909216600483015260248201839052602090829060449082906000905af190811561094157600091611348575b501561130b5760207fc0819c13be868895eb93e40eaceb96de976442fa1d404e5c55f14bb65a8c489a91604051908152a2005b60405162461bcd60e51b8152602060048201526015602482015274119959481dda5d1a191c985dd85b0819985a5b1959605a1b6044820152606490fd5b611361915060203d60201161093a5761092c81836115ba565b836112d8565b60405162461bcd60e51b81526020600482015260136024820152724e6f206665657320746f20776974686472617760681b6044820152606490fd5b50509161128f565b6113b381611539565b90549060031b1c6000526005602052604060002060ff6007820154166113dd575b5060010161126d565b60019193670de0b6b3a764000061140683600361083f600261140d9701546005840154906116e9565b049061171f565b92906113d4565b906020823d602011611441575b8161142e602093836115ba565b8101031261143e57505184611264565b80fd5b3d9150611421565b6020813d602011611470575b81611462602093836115ba565b810103126101745751611238565b3d9150611455565b60405162461bcd60e51b815260206004820152600f60248201526e496e76616c6964206164647265737360881b6044820152606490fd5b34610174576000366003190112610174576003546001600160a01b03168152602090f35b600435906001600160a01b038216820361017457565b6040906003190112610174576004359060243590565b602060408183019282815284518094520192019060005b8181106115235750505090565b8251845260209384019390920191600101611516565b60085481101561155457600860005260206000200190600090565b634e487b7160e01b600052603260045260246000fd5b60095481101561155457600960005260206000200190600090565b80548210156115545760005260206000200190600090565b610120810190811067ffffffffffffffff821117610d2e57604052565b90601f8019910116810190811067ffffffffffffffff821117610d2e57604052565b90816020910312610174575180151581036101745790565b156115fb57565b60405162461bcd60e51b815260206004820152601860248201527f4f726465722062656c6f77206d696e696d756d2073697a6500000000000000006044820152606490fd5b1561164757565b60405162461bcd60e51b815260206004820152601c60248201527f5072696365206d7573742062652067726561746572207468616e2030000000006044820152606490fd5b8181029291811591840414171561169f57565b634e487b7160e01b600052601160045260246000fd5b600019811461169f5760010190565b90815491600160401b831015610d2e5782610ccc9160016116e795018155611585565b565b9190820391821161169f57565b6000546001600160a01b0316330361170a57565b63118cdaa760e01b6000523360045260246000fd5b9190820180921161169f57565b60026001541461173d576002600155565b633ee5aeb560e01b60005260046000fd5b80600052600560205260406000209060ff600183015460a01c166000146117f25790600781019060030160005b6009548110156117d95761178e8161156a565b90549060031b1c806000526005602052604060002060ff600782015416156117e857600301548354106117df576117c590856119a9565b60ff835416156117d9576001905b0161177b565b50505050565b506001906117d3565b50506001906117d3565b60038201916007019060005b6008548110156117d9578161181282611539565b90549060031b1c806000526005602052604060002060ff60078201541615611867576003015486541161185d5790611849916119a9565b60ff835416156117d9576001905b016117fe565b5050600190611857565b505050600190611857565b80600052600560205260ff60016040600020015460a01c166000146119335760005b6008548082101561192e57826118a983611539565b90549060031b1c146118be5750600101611894565b60001981019250821161169f57610ccc6118da6118e793611539565b90549060031b1c91611539565b60085480156119185760001901611913611902826008611585565b8154906000199060031b1b19169055565b600855565b634e487b7160e01b600052603160045260246000fd5b505050565b60005b6009548082101561192e578261194b8361156a565b90549060031b1c146119605750600101611936565b60001981019250821161169f57610ccc61197c6119899361156a565b90549060031b1c9161156a565b600954801561191857600019016119a4611902826009611585565b600955565b90611a3d918060005260056020526040600020918060005260056020526040600020600284019182549460058101906119e4825480986116e9565b9360028101938454956119fd60058401978854906116e9565b80821015611c995750945b670de0b6b3a7640000611a1f60038601548861168c565b0496611a4387612710611a346004548c61168c565b049d8e8b6116e9565b9c61171f565b8655611a5087825461171f565b815560025460018601805460405163a9059cbb60e01b81526001600160a01b039182166004820152602481018b905291979260209183916044918391600091165af190811561094157600091611c7a575b5015611c355760035460018601805460405163a9059cbb60e01b81526001600160a01b039182166004820152602481019f909f52909d9160209183916044918391600091165af190811561094157600091611c16575b5015611bd1577f366ed47cf11f7d9ebd85e4df9a87f35ba12bf45a82db0a7d99e318c631ca6e8999611b9797611b4c8f611b338d600a5461171f565b600a55611b41600b546116b5565b600b55600c5461171f565b600c5554905414611bb7575b5054905414611b9c575b5050549554604080519384526020840194909452928201969096526001600160a01b0391821695949091169381906060820190565b0390a4565b6007611bb0920160ff198154169055611872565b3880611b62565b600701805460ff19169055611bcb8a611872565b38611b58565b60405162461bcd60e51b815260206004820152601e60248201527f55534443207472616e7366657220746f2073656c6c6572206661696c656400006044820152606490fd5b611c2f915060203d60201161093a5761092c81836115ba565b38611af7565b60405162461bcd60e51b815260206004820152601d60248201527f73624654207472616e7366657220746f206275796572206661696c65640000006044820152606490fd5b611c93915060203d60201161093a5761092c81836115ba565b38611aa1565b905094611a0856fea26469706673582212208e5e5e5732e133e3cebddb8887bdd2b0e9a769d47692f1678f8ea5abdea338f964736f6c634300081c0033",
  "linkReferences": {},
  "deployedLinkReferences": {}
}