{
  "_format": "hh-sol-artifact-1",
  "contractName": "SbFTBridgeFactory",
  "sourceName": "contracts/bridge/sbFTBridgeContract.sol",
  "abi": [
    {
      "inputs": [],
      "stateMutability": "nonpayable",
      "type": "constructor"
    },
    {
      "inputs": [
        {
          "internalType": "address",
          "name": "owner",
          "type": "address"
        }
      ],
      "name": "OwnableInvalidOwner",
      "type": "error"
    },
    {
      "inputs": [
        {
          "internalType": "address",
          "name": "account",
          "type": "address"
        }
      ],
      "name": "OwnableUnauthorizedAccount",
      "type": "error"
    },
    {
      "anonymous": false,
      "inputs": [
        {
          "indexed": true,
          "internalType": "address",
          "name": "bridge",
          "type": "address"
        },
        {
          "indexed": true,
          "internalType": "address",
          "name": "token",
          "type": "address"
        },
        {
          "indexed": false,
          "internalType": "bool",
          "name": "isSourceChain",
          "type": "bool"
        },
        {
          "indexed": true,
          "internalType": "uint32",
          "name": "chainId",
          "type": "uint32"
        }
      ],
      "name": "BridgeDeployed",
      "type": "event"
    },
    {
      "anonymous": false,
      "inputs": [
        {
          "indexed": true,
          "internalType": "address",
          "name": "previousOwner",
          "type": "address"
        },
        {
          "indexed": true,
          "internalType": "address",
          "name": "newOwner",
          "type": "address"
        }
      ],
      "name": "OwnershipTransferred",
      "type": "event"
    },
    {
      "inputs": [
        {
          "internalType": "address",
          "name": "_endpoint",
          "type": "address"
        },
        {
          "internalType": "string",
          "name": "_tokenName",
          "type": "string"
        },
        {
          "internalType": "string",
          "name": "_tokenSymbol",
          "type": "string"
        },
        {
          "internalType": "uint32",
          "name": "_chainId",
          "type": "uint32"
        }
      ],
      "name": "deployDestinationBridge",
      "outputs": [
        {
          "internalType": "address",
          "name": "bridge",
          "type": "address"
        },
        {
          "internalType": "address",
          "name": "wrappedToken",
          "type": "address"
        }
      ],
      "stateMutability": "nonpayable",
      "type": "function"
    },
    {
      "inputs": [
        {
          "internalType": "address",
          "name": "_endpoint",
          "type": "address"
        },
        {
          "internalType": "address",
          "name": "_sbftToken",
          "type": "address"
        },
        {
          "internalType": "uint32",
          "name": "_chainId",
          "type": "uint32"
        }
      ],
      "name": "deploySourceBridge",
      "outputs": [
        {
          "internalType": "address",
          "name": "bridge",
          "type": "address"
        }
      ],
      "stateMutability": "nonpayable",
      "type": "function"
    },
    {
      "inputs": [],
      "name": "owner",
      "outputs": [
        {
          "internalType": "address",
          "name": "",
          "type": "address"
        }
      ],
      "stateMutability": "view",
      "type": "function"
    },
    {
      "inputs": [],
      "name": "renounceOwnership",
      "outputs": [],
      "stateMutability": "nonpayable",
      "type": "function"
    },
    {
      "inputs": [
        {
          "internalType": "address",
          "name": "newOwner",
          "type": "address"
        }
      ],
      "name": "transferOwnership",
      "outputs": [],
      "stateMutability": "nonpayable",
      "type": "function"
    }
  ],
  "bytecode": "0x608080604052346075573315605f5760008054336001600160a01b0319821681178355916001600160a01b03909116907f8be0079c531659141344cd1fd0a4f28419497f9722a3daafe3b4186f6b6457e09080a3613a99908161007b8239f35b631e4fbdf760e01b600052600060045260246000fd5b600080fdfe6080604052600436101561001257600080fd5b6000803560e01c80633fcb55db146102ac5780635519d5c61461015d578063715018a6146101035780638da5cb5b146100dc5763f2fde38b1461005457600080fd5b346100d95760203660031901126100d95761006d6104b3565b61007561059e565b6001600160a01b031680156100c55781546001600160a01b03198116821783556001600160a01b03167f8be0079c531659141344cd1fd0a4f28419497f9722a3daafe3b4186f6b6457e08380a380f35b631e4fbdf760e01b82526004829052602482fd5b80fd5b50346100d957806003193601126100d957546040516001600160a01b039091168152602090f35b50346100d957806003193601126100d95761011c61059e565b80546001600160a01b03198116825581906001600160a01b03167f8be0079c531659141344cd1fd0a4f28419497f9722a3daafe3b4186f6b6457e08280a380f35b50346100d95760603660031901126100d9576101776104b3565b6024356001600160a01b03811691908290036102a8576044359063ffffffff821680920361027a576101a761059e565b60405190612390908183019183831067ffffffffffffffff841117610294579183916060936116d484396001600160a01b031681523360208201526001604082015203019084f08015610289576001600160a01b031691823b1561027a57604051631352746960e11b815260048101829052848160248183885af1801561027e57610265575b5060209350827f960863fe7bc4ab9e6dcbde3e44e4c4472de2d6c010f67004cb9cf15ff6e6ded88560405160018152a4604051908152f35b6102708580926104ce565b61027a578361022d565b8380fd5b6040513d87823e3d90fd5b6040513d85823e3d90fd5b634e487b7160e01b87526041600452602487fd5b8280fd5b50346100d95760803660031901126100d9576102c66104b3565b60243567ffffffffffffffff81116102a8576102e6903690600401610506565b60443567ffffffffffffffff811161027a57610306903690600401610506565b6064359163ffffffff83168093036104af5761032061059e565b6040519161110c918284019284841067ffffffffffffffff85111761049b579161035d61036b928695946105c8873960608552606085019061055d565b90838203602085015261055d565b90604033910152039084f09182156102895760405190612390908183019183831067ffffffffffffffff841117610294579183916060936116d484396001600160a01b031681523360208201526040810187905203019084f08015610289576001600160a01b03908116921690823b1561027a57604051631352746960e11b815260048101839052848160248183885af1801561027e57610487575b50813b1561027a5760405163059367b360e11b815260048101849052848160248183875af1801561027e57610472575b5081837f960863fe7bc4ab9e6dcbde3e44e4c4472de2d6c010f67004cb9cf15ff6e6ded860206040978851908152a482519182526020820152f35b61047d8580926104ce565b61027a5738610437565b84610494919592956104ce565b9238610407565b634e487b7160e01b88526041600452602488fd5b8480fd5b600435906001600160a01b03821682036104c957565b600080fd5b90601f8019910116810190811067ffffffffffffffff8211176104f057604052565b634e487b7160e01b600052604160045260246000fd5b81601f820112156104c95780359067ffffffffffffffff82116104f0576040519261053b601f8401601f1916602001856104ce565b828452602083830101116104c957816000926020809301838601378301015290565b919082519283825260005b848110610589575050826000602080949584010152601f8019910116010190565b80602080928401015182828601015201610568565b6000546001600160a01b031633036105b257565b63118cdaa760e01b6000523360045260246000fdfe6080604052346103a05761110c80380380610019816103a5565b9283398101906060818303126103a05780516001600160401b0381116103a057826100459183016103ca565b60208201519092906001600160401b0381116103a0576040916100699184016103ca565b9101516001600160a01b038116908190036103a05782516001600160401b0381116102a957600354600181811c91168015610396575b602082101461028957601f8111610331575b506020601f82116001146102ca57819293946000926102bf575b50508160011b916000199060031b1c1916176003555b81516001600160401b0381116102a957600454600181811c9116801561029f575b602082101461028957601f8111610224575b50602092601f82116001146101bf57928192936000926101b4575b50508160011b916000199060031b1c1916176004555b801561019e57600580546001600160a01b03198116831790915560405191906001600160a01b03167f8be0079c531659141344cd1fd0a4f28419497f9722a3daafe3b4186f6b6457e0600080a3610cd690816104368239f35b631e4fbdf760e01b600052600060045260246000fd5b01519050388061012f565b601f198216936004600052806000209160005b86811061020c57508360019596106101f3575b505050811b01600455610145565b015160001960f88460031b161c191690553880806101e5565b919260206001819286850151815501940192016101d2565b60046000527f8a35acfbc15ff81a39ae7d344fd709f28e8600b4aa8c65c6b64bfe7fe36bd19b601f830160051c8101916020841061027f575b601f0160051c01905b8181106102735750610114565b60008155600101610266565b909150819061025d565b634e487b7160e01b600052602260045260246000fd5b90607f1690610102565b634e487b7160e01b600052604160045260246000fd5b0151905038806100cb565b601f198216906003600052806000209160005b81811061031957509583600195969710610300575b505050811b016003556100e1565b015160001960f88460031b161c191690553880806102f2565b9192602060018192868b0151815501940192016102dd565b60036000527fc2575a0e9e593c00f959f8c92f12db2869c3395a3b0502d05e2516446f71f85b601f830160051c8101916020841061038c575b601f0160051c01905b81811061038057506100b1565b60008155600101610373565b909150819061036a565b90607f169061009f565b600080fd5b6040519190601f01601f191682016001600160401b038111838210176102a957604052565b81601f820112156103a0578051906001600160401b0382116102a9576103f9601f8301601f19166020016103a5565b92828452602083830101116103a05760005b82811061042057505060206000918301015290565b8060208092840101518282870101520161040b56fe608080604052600436101561001357600080fd5b60003560e01c90816306fdde0314610a1e57508063095ea7b3146109985780630b26cf66146108ea57806318160ddd146108cc57806323b872dd146107df578063313ce567146107c357806340c10f191461065857806370a082311461061e578063715018a6146105c15780638da5cb5b1461059857806395d89b41146104775780639dc29fac14610250578063a9059cbb1461021f578063cd596583146101f6578063d4d7b19a146101ba578063dd62ed3e146101695763f2fde38b146100da57600080fd5b34610164576020366003190112610164576100f3610b3a565b6100fb610bb2565b6001600160a01b0316801561014e57600580546001600160a01b0319811683179091556001600160a01b03167f8be0079c531659141344cd1fd0a4f28419497f9722a3daafe3b4186f6b6457e0600080a3005b631e4fbdf760e01b600052600060045260246000fd5b600080fd5b3461016457604036600319011261016457610182610b3a565b61018a610b50565b6001600160a01b039182166000908152600160209081526040808320949093168252928352819020549051908152f35b34610164576020366003190112610164576001600160a01b036101db610b3a565b16600052600060205260206040600020541515604051908152f35b34610164576000366003190112610164576006546040516001600160a01b039091168152602090f35b346101645760403660031901126101645761024561023b610b3a565b6024359033610bdb565b602060405160018152f35b3461016457604036600319011261016457610269610b3a565b60065460243591906001600160a01b03163303610432576001600160a01b031680156103ed5761029a821515610b66565b80600052600060205281604060002054106103a8576000918161034557600254818101809111610331577fccbea4088a3b7ae9ca2d15fab9a9742a4075b4d7247768a1eecea917565aba00916040916002555b806002540360025584847fddf252ad1be2c89b69c2b068fc378daa952ba7f163c4a11628f55a4df523b3ef60208551858152a360025482519182526020820152a280f35b634e487b7160e01b84526011600452602484fd5b81835282602052604083205481811061038f57817fccbea4088a3b7ae9ca2d15fab9a9742a4075b4d7247768a1eecea917565aba00926040928587528660205203828620556102ed565b6064939263391434e360e21b8452600452602452604452fd5b60405162461bcd60e51b815260206004820152601c60248201527f496e73756666696369656e742062616c616e636520746f206275726e000000006044820152606490fd5b60405162461bcd60e51b815260206004820152601d60248201527f43616e6e6f74206275726e2066726f6d207a65726f20616464726573730000006044820152606490fd5b60405162461bcd60e51b815260206004820152601d60248201527f4f6e6c792062726964676520636f6e74726163742063616e206275726e0000006044820152606490fd5b346101645760003660031901126101645760405160006004548060011c9060018116801561058e575b60208310811461057a5782855290811561055e5750600114610507575b50819003601f01601f191681019067ffffffffffffffff8211818310176104f1576104ed82918260405282610af1565b0390f35b634e487b7160e01b600052604160045260246000fd5b905060046000527f8a35acfbc15ff81a39ae7d344fd709f28e8600b4aa8c65c6b64bfe7fe36bd19b6000905b828210610548575060209150820101826104bd565b6001816020925483858801015201910190610533565b90506020925060ff191682840152151560051b820101826104bd565b634e487b7160e01b84526022600452602484fd5b91607f16916104a0565b34610164576000366003190112610164576005546040516001600160a01b039091168152602090f35b34610164576000366003190112610164576105da610bb2565b600580546001600160a01b031981169091556000906001600160a01b03167f8be0079c531659141344cd1fd0a4f28419497f9722a3daafe3b4186f6b6457e08280a3005b34610164576020366003190112610164576001600160a01b0361063f610b3a565b1660005260006020526020604060002054604051908152f35b3461016457604036600319011261016457610671610b3a565b60065460243591906001600160a01b0316330361077e576001600160a01b03168015610739576106a2821515610b66565b600091600254818101809111610331576002557f2e8ac5177a616f2aec08c3048f5021e4e9743ece034e8d83ba5caf76688bb47590604090836107245780600254036002555b83857fddf252ad1be2c89b69c2b068fc378daa952ba7f163c4a11628f55a4df523b3ef60208551858152a360025482519182526020820152a280f35b838552846020528185208181540190556106e8565b60405162461bcd60e51b815260206004820152601b60248201527f43616e6e6f74206d696e7420746f207a65726f206164647265737300000000006044820152606490fd5b60405162461bcd60e51b815260206004820152601d60248201527f4f6e6c792062726964676520636f6e74726163742063616e206d696e740000006044820152606490fd5b3461016457600036600319011261016457602060405160128152f35b34610164576060366003190112610164576107f8610b3a565b610800610b50565b6001600160a01b0382166000818152600160209081526040808320338452909152902054909260443592916000198110610840575b506102459350610bdb565b8381106108af57841561089957331561088357610245946000526001602052604060002060018060a01b0333166000526020528360406000209103905584610835565b634a1406b160e11b600052600060045260246000fd5b63e602df0560e01b600052600060045260246000fd5b8390637dc7a0d960e11b6000523360045260245260445260646000fd5b34610164576000366003190112610164576020600254604051908152f35b3461016457602036600319011261016457610903610b3a565b61090b610bb2565b6001600160a01b0316801561095357600680546001600160a01b031916821790557fad098d6e912c08ed9aa3ee6ca9529da44a959d4c6251c6b8b088af216c1e3506600080a2005b60405162461bcd60e51b815260206004820152601760248201527f496e76616c69642062726964676520636f6e74726163740000000000000000006044820152606490fd5b34610164576040366003190112610164576109b1610b3a565b602435903315610899576001600160a01b031690811561088357336000526001602052604060002082600052602052806040600020556040519081527f8c5be1e5ebec7d5bd14f71427d1e84f3dd0314c0f7b2291e5b200ac8c7c3b92560203392a3602060405160018152f35b346101645760003660031901126101645760006003548060011c90600181168015610ae7575b60208310811461057a5782855290811561055e5750600114610a905750819003601f01601f191681019067ffffffffffffffff8211818310176104f1576104ed82918260405282610af1565b905060036000527fc2575a0e9e593c00f959f8c92f12db2869c3395a3b0502d05e2516446f71f85b6000905b828210610ad1575060209150820101826104bd565b6001816020925483858801015201910190610abc565b91607f1691610a44565b91909160208152825180602083015260005b818110610b24575060409293506000838284010152601f8019910116010190565b8060208092870101516040828601015201610b03565b600435906001600160a01b038216820361016457565b602435906001600160a01b038216820361016457565b15610b6d57565b60405162461bcd60e51b815260206004820152601d60248201527f416d6f756e74206d7573742062652067726561746572207468616e20300000006044820152606490fd5b6005546001600160a01b03163303610bc657565b63118cdaa760e01b6000523360045260246000fd5b6001600160a01b0316908115610c8a576001600160a01b0316918215610c74576000828152806020526040812054828110610c5a5791604082827fddf252ad1be2c89b69c2b068fc378daa952ba7f163c4a11628f55a4df523b3ef958760209652828652038282205586815280845220818154019055604051908152a3565b916064928463391434e360e21b8452600452602452604452fd5b63ec442f0560e01b600052600060045260246000fd5b634b637e8f60e11b600052600060045260246000fdfea264697066735822122010d22af4c97bec978e5bdd3c60e1b8769b6146d0def3c07f7acec84f24b3b44e64736f6c634300081c003360a0806040523461017e57600060608261239080380380916100218285610183565b83398101031261017b57610034826101bc565b6040610042602085016101bc565b93015192831515809403610179576001600160a01b031680156101655782546001600160a01b0319811682178455604051929082906001600160a01b03167f8be0079c531659141344cd1fd0a4f28419497f9722a3daafe3b4186f6b6457e08680a36001600160a01b0316608081905290813b1561016157602483858094829463ca5eb5e160e01b845260048401525af1801561015657610146575b60016003556064600655600b805460ff191690556005805460ff60a01b191660a085901b60ff60a01b161790556040516121bf90816101d1823960805181818161033601528181610e1a015281816111b701528181611bd101528181611ce101526120450152f35b8161015091610183565b386100de565b6040513d84823e3d90fd5b8380fd5b631e4fbdf760e01b83526004839052602483fd5b825b80fd5b600080fd5b601f909101601f19168101906001600160401b038211908210176101a657604052565b634e487b7160e01b600052604160045260246000fd5b51906001600160a01b038216820361017e5756fe6080604052600436101561001257600080fd5b60003560e01c80630f7ccaf01461025257806313137d651461024d57806317442b70146102485780631bd31ef6146101e95780631ec42dd3146102435780632165cbb71461023e578063222a544c1461023957806326a4e8d2146102345780632b0f638c1461022f5780632b361d371461022a5780633400288b146102255780635535d461146102205780635a1c03661461021b5780635e280f111461021657806367a1791a146102115780636ccf20d51461020c578063715018a6146102075780637d25a05e146102025780637dd0480f146101fd57806382413eac146101f857806382b12dd7146101f3578063886688c1146101ee57806388ba16ab146101e95780638a5d5fec146101e45780638da5cb5b146101df578063a3c2c462146101da578063a82f143c146101d5578063b98bd070146101d0578063bb0b6a53146101cb578063bc70b354146101c6578063ca5eb5e1146101c1578063e1f1c4a7146101bc578063e3c374b8146101b7578063f071db5a146101b2578063f2fde38b146101ad5763ff7bd03d146101a857600080fd5b611323565b611296565b611278565b611252565b611235565b61118d565b611139565b6110fe565b6110a3565b611059565b61103b565b611012565b610ff6565b6103f1565b610fd3565b610fb5565b610f57565b610f0a565b610ee3565b610e8a565b610e67565b610e49565b610e04565b610d71565b610d03565b610adc565b610ab3565b6109bc565b6108ac565b610488565b61044b565b610422565b6103cf565b6102d2565b610267565b600091031261026257565b600080fd5b3461026257600036600319011261026257602060405160018152f35b606090600319011261026257600490565b9181601f84011215610262578235916001600160401b038311610262576020838186019501011161026257565b6001600160a01b0381160361026257565b60e0366003190112610262576102e736610283565b6084356001600160401b03811161026257610306903690600401610294565b9061031260a4356102c1565b60c4356001600160401b03811161026257610331903690600401610294565b5050337f00000000000000000000000000000000000000000000000000000000000000006001600160a01b0316036103ba5782359261036f8461047a565b610378846117a6565b9360208201358095036103925750610390935061184a565b005b63ffffffff816103a2879361047a565b63309afaf360e21b6000521660045260245260446000fd5b6391ac5e4f60e01b6000523360045260246000fd5b3461026257600036600319011261026257604080516001815260026020820152f35b34610262576020366003190112610262576004356000526007602052602060ff604060002054166040519015158152f35b34610262576000366003190112610262576004546040516001600160a01b039091168152602090f35b34610262576000366003190112610262576060600854600954600a549060405192835260208301526040820152f35b63ffffffff81160361026257565b6060366003190112610262576004356104a08161047a565b602435906044356001600160401b038111610262576104c3903690600401610294565b60026003949294541461089b57600260035560ff600b5416610863576104f3670de0b6b3a7640000831015611377565b6105186105108463ffffffff166000526001602052604060002090565b5415156113ba565b819360009460055461052e8160ff9060a01c1690565b1561077657505060045461056a9061055e906001600160a01b03165b61055e6001600160a01b03821615156114a8565b6001600160a01b031690565b6040516370a0823160e01b815233600482015290956020826024818a5afa8015610742576105a292869291610747575b501015611465565b6105b96105b1600654856114ff565b612710900490565b936105c48585611517565b95803b1561026257604051632770a7eb60e21b815233600482015260248101869052906000908290604490829084905af1968715610742576106e67f31df956c3b8a383361ed8eec51d4bbe93275da01e3bf7a61135e9045274b06a19563ffffffff95610701946106cf9b610727575b506106496106448a600854611524565b600855565b61065d6106588b600a54611524565b600a55565b6040516bffffffffffffffffffffffff193360601b1660208201908152603482018b90524260548301524360748084019190915282529061069f609482610bf6565b5190206040805133602082015290810195909552606085018190529a84608081015b03601f198101865285610bf6565b60055460a01c60ff16156107205760015b866116f4565b6106ee611531565b9034825260006020830152339285611b48565b5060408051948552602085019590955216923392a46103906001600355565b60026106e0565b80610736600061073c93610bf6565b80610257565b38610634565b611459565b610769915060203d60201161076f575b6107618183610bf6565b81019061144a565b3861059a565b503d610757565b909594906107a09061055e906001600160a01b03165b61055e6001600160a01b0382161515611406565b6040516370a0823160e01b8152336004820152602081602481855afa908115610742576107d7918791899161074757501015611465565b803b1561085f57604051632770a7eb60e21b8152336004820152602481018690529086908290604490829084905af1968715610742576106e67f31df956c3b8a383361ed8eec51d4bbe93275da01e3bf7a61135e9045274b06a19563ffffffff95610701946106cf9b61084b575b5061065d565b806107368c61085993610bf6565b38610845565b8580fd5b60405162461bcd60e51b815260206004820152601060248201526f109c9a5919d9481a5cc81c185d5cd95960821b6044820152606490fd5b633ee5aeb560e01b60005260046000fd5b34610262576020366003190112610262576004356108c9816102c1565b6108d1611c45565b6001600160a01b03811690811561097f5760055460a01c60ff161561095b57600480546001600160a01b0319166001600160a01b039092169190911790555b7f105d893190417ed7090e9e59c22d9cfead8e1c0da7f67524248d42312aa865ae61095661094460055460ff9060a01c1690565b60405190151581529081906020820190565b0390a2005b600580546001600160a01b0319166001600160a01b03909216919091179055610910565b60405162461bcd60e51b8152602060048201526015602482015274496e76616c696420746f6b656e206164647265737360581b6044820152606490fd5b34610262576080366003190112610262576004356109d98161047a565b6024356044356001600160401b038111610262576109fb903690600401610294565b91909260643591821515830361026257610a85610a8b94610aa896610a1e61154f565b50610a6e60405160208101903360601b825286603482015242605482015260548152610a4b607482610bf6565b5190206040805133602082015290810196909652606086015284608081016106c1565b60055460a01c60ff1615610aac5760015b856116f4565b91611c82565b604051918291829190916020806040830194805184520151910152565b0390f35b6002610a7f565b34610262576000366003190112610262576005546040516001600160a01b039091168152602090f35b34610262576040366003190112610262577f238399d427b947898edb290f5ff0f9109849b1c3ba196a42e35f00c50a54b98b6040600435610b1c8161047a565b63ffffffff60243591610b2d611c45565b169081600052600160205280836000205582519182526020820152a1005b6024359061ffff8216820361026257565b359061ffff8216820361026257565b90600182811c92168015610b9b575b6020831014610b8557565b634e487b7160e01b600052602260045260246000fd5b91607f1691610b7a565b634e487b7160e01b600052604160045260246000fd5b604081019081106001600160401b03821117610bd657604052565b610ba5565b606081019081106001600160401b03821117610bd657604052565b90601f801991011681019081106001600160401b03821117610bd657604052565b9060405191826000825492610c2b84610b6b565b8084529360018116908115610c995750600114610c52575b50610c5092500383610bf6565b565b90506000929192526020600020906000915b818310610c7d575050906020610c509282010138610c43565b6020919350806001915483858901015201910190918492610c64565b905060209250610c5094915060ff191682840152151560051b82010138610c43565b60005b838110610cce5750506000910152565b8181015183820152602001610cbe565b90602091610cf781518092818552858086019101610cbb565b601f01601f1916010190565b3461026257604036600319011261026257610aa8610d5d610d58600435610d298161047a565b63ffffffff610d36610b4b565b9116600052600260205260406000209061ffff16600052602052604060002090565b610c17565b604051918291602083526020830190610cde565b3461026257602036600319011261026257600435610d8d611c45565b6103e88111610dc7576020817f42dfb00d085d601e55327921154ae76c1b24270b026c5a0c51caee18eb4c401f92600655604051908152a1005b60405162461bcd60e51b81526020600482015260156024820152744665652063616e6e6f74206578636565642031302560581b6044820152606490fd5b34610262576000366003190112610262576040517f00000000000000000000000000000000000000000000000000000000000000006001600160a01b03168152602090f35b34610262576000366003190112610262576020600854604051908152f35b3461026257600036600319011261026257602060ff600b54166040519015158152f35b3461026257600036600319011261026257610ea3611c45565b600080546001600160a01b0319811682556001600160a01b03167f8be0079c531659141344cd1fd0a4f28419497f9722a3daafe3b4186f6b6457e08280a3005b3461026257604036600319011261026257610eff60043561047a565b602060405160008152f35b3461026257600036600319011261026257610f23611c45565b600160ff19600b541617600b557fa792dfa3fb24493cee8b0e7ac02691be17dc3a12379ad382ad5d670c97361673600080a1005b346102625760a036600319011261026257610f7136610283565b506064356001600160401b03811161026257610f91903690600401610294565b50506020608435610fa1816102c1565b6040516001600160a01b0390911630148152f35b34610262576000366003190112610262576020600654604051908152f35b34610262576000366003190112610262576020604051670de0b6b3a76400008152f35b3461026257600036600319011261026257602060405160028152f35b34610262576000366003190112610262576000546040516001600160a01b039091168152602090f35b34610262576000366003190112610262576020600954604051908152f35b3461026257600036600319011261026257611072611c45565b60ff19600b5416600b557f8c9a6f4b5a3a5753cc4d30f9ee061684c79bc450c355fc09e79317cfa2195f31600080a1005b34610262576020366003190112610262576004356001600160401b03811161026257366023820112156102625780600401356001600160401b038111610262573660248260051b840101116102625760246103909201611568565b346102625760203660031901126102625763ffffffff6004356111208161047a565b1660005260016020526020604060002054604051908152f35b34610262576060366003190112610262576004356111568161047a565b61115e610b4b565b604435906001600160401b03821161026257610aa892611185610d5d933690600401610294565b9290916116f4565b34610262576000602036600319011261123257806004356111ad816102c1565b6111b5611c45565b7f00000000000000000000000000000000000000000000000000000000000000006001600160a01b0316803b1561122e5760405163ca5eb5e160e01b81526001600160a01b0390921660048301529091908290602490829084905af180156107425782906112205780f35b61122991610bf6565b388180f35b5050fd5b80fd5b346102625760003660031901126102625760206040516127108152f35b3461026257600036600319011261026257602060ff60055460a01c166040519015158152f35b34610262576000366003190112610262576020600a54604051908152f35b34610262576020366003190112610262576004356112b3816102c1565b6112bb611c45565b6001600160a01b0316801561130d57600080546001600160a01b03198116831782556001600160a01b0316907f8be0079c531659141344cd1fd0a4f28419497f9722a3daafe3b4186f6b6457e09080a3005b631e4fbdf760e01b600052600060045260246000fd5b3461026257606036600319011261026257602061133f36610283565b63ffffffff813561134f8161047a565b16600052600182528160406000205491013560405191148152f35b356113748161047a565b90565b1561137e57565b60405162461bcd60e51b8152602060048201526014602482015273416d6f756e742062656c6f77206d696e696d756d60601b6044820152606490fd5b156113c157565b60405162461bcd60e51b815260206004820152601a60248201527f44657374696e6174696f6e206e6f7420636f6e666967757265640000000000006044820152606490fd5b1561140d57565b60405162461bcd60e51b815260206004820152601560248201527415dc985c1c1959081d1bdad95b881b9bdd081cd95d605a1b6044820152606490fd5b90816020910312610262575190565b6040513d6000823e3d90fd5b1561146c57565b60405162461bcd60e51b8152602060048201526014602482015273496e73756666696369656e742062616c616e636560601b6044820152606490fd5b156114af57565b60405162461bcd60e51b81526020600482015260126024820152711cd89195081d1bdad95b881b9bdd081cd95d60721b6044820152606490fd5b634e487b7160e01b600052601160045260246000fd5b8181029291811591840414171561151257565b6114e9565b9190820391821161151257565b9190820180921161151257565b60405190610c50604083610bf6565b60405190610c5060a083610bf6565b6040519061155c82610bbb565b60006020838281520152565b611570611c45565b6001600160401b038211610bd6578160051b90604051926115946020840185610bf6565b835260208301918101903682116102625780925b8284106115bc5750505050610c5090611f18565b83356001600160401b0381116102625782019060608236031261026257604051916115e683610bdb565b80356115f18161047a565b83526115ff60208201610b5c565b60208401526040810135906001600160401b03821161026257019036601f8301121561026257602092611639849336908581359101611649565b60408201528152019301926115a8565b9291926001600160401b038211610bd65760405191611672601f8201601f191660200184610bf6565b829481845281830111610262578281602093846000960137010152565b602083610c509395949560405196846116b1899651809287808a019101610cbb565b8501918483013701016000815203601f198101845283610bf6565b90918060409360208452816020850152848401376000828201840152601f01601f1916010190565b6117269163ffffffff610d58929694959616600052600260205260406000209061ffff16600052602052604060002090565b80511561179857831561179257600284101561175e57505061175a604051928392639a6d49cd60e01b8452600484016116cc565b0390fd5b90919261177461176f368387611649565b611fdf565b6000816002116112325750600261137493940190600119019161168f565b92509050565b509190611374913691611649565b63ffffffff168060005260016020526040600020549081156117c6575090565b63f6ff4fb760e01b60005260045260246000fd5b908160609103126102625780356117f0816102c1565b916040602083013592013590565b1561180557565b60405162461bcd60e51b815260206004820152601960248201527f4d65737361676520616c72656164792070726f636573736564000000000000006044820152606490fd5b9190611858918101906117da565b92909160018060a01b03169061189161188c611888611881876000526007602052604060002090565b5460ff1690565b1590565b6117fe565b6118b56118a8856000526007602052604060002090565b805460ff19166001179055565b60055460a081901c60ff161561199b57506004546118df9061055e906001600160a01b031661054a565b90813b15610262576040516340c10f1960e01b81526001600160a01b038416600482015260248101859052916000908390604490829084905af19182156107425761196f6119819263ffffffff927f25af65541baca45fc26d0b9ae97cee5ad22128a47b5852290a2f324847e33fe095611986575b505b61196a61196588600954611524565b600955565b61136a565b60405195865216939081906020820190565b0390a4565b80610736600061199593610bf6565b38611954565b6119b19061055e906001600160a01b031661078c565b90813b15610262576040516340c10f1960e01b81526001600160a01b038416600482015260248101859052916000908390604490829084905af19182156107425761196f6119819263ffffffff927f25af65541baca45fc26d0b9ae97cee5ad22128a47b5852290a2f324847e33fe095611a2c575b50611956565b806107366000611a3b93610bf6565b38611a26565b60405190611a4e82610bdb565b8160008152600060208201526040611a6461154f565b910152565b919082604091031261026257604051611a8181610bbb565b6020808294805184520151910152565b6080818303126102625760405191611aa883610bdb565b8151835260208201516001600160401b0381168103610262576020840152611ad291604001611a69565b604082015290565b906020909392936040835263ffffffff81511660408401528181015160608401526080611b2e611b18604084015160a08488015260e0870190610cde565b6060840151868203603f190160a0880152610cde565b910151151560c08401526001600160a01b03909416910152565b611bb160809492611bcd9694611b5c611a41565b506020611b698651612017565b950191825180611c36575b50611b7e856117a6565b9251151592611b9a611b8e611540565b63ffffffff9097168752565b602086015260408501526060840152151585830152565b6040518095819482936302637a4560e41b845260048401611ada565b03917f00000000000000000000000000000000000000000000000000000000000000006001600160a01b03165af190811561074257600091611c0d575090565b611374915060803d608011611c2f575b611c278183610bf6565b810190611a91565b503d611c1d565b611c3f90612036565b38611b74565b6000546001600160a01b03163303611c5957565b63118cdaa760e01b6000523360045260246000fd5b906040828203126102625761137491611a69565b90611cdd93604093611cc292611c9661154f565b50611ca0856117a6565b611cab611b8e611540565b602086015285850152606084015215156080830152565b815180938192631bb8518b60e31b8352309060048401611ada565b03817f00000000000000000000000000000000000000000000000000000000000000006001600160a01b03165afa90811561074257600091611d1d575090565b611374915060403d604011611d3f575b611d378183610bf6565b810190611c6e565b503d611d2d565b8051821015611d5a5760209160051b010190565b634e487b7160e01b600052603260045260246000fd5b601f8211611d7d57505050565b6000526020600020906020601f840160051c83019310611db8575b601f0160051c01905b818110611dac575050565b60008155600101611da1565b9091508190611d98565b91909182516001600160401b038111610bd657611de981611de38454610b6b565b84611d70565b6020601f8211600114611e2a578190611e1b939495600092611e1f575b50508160011b916000199060031b1c19161790565b9055565b015190503880611e06565b601f19821690611e3f84600052602060002090565b9160005b818110611e7b57509583600195969710611e62575b505050811b019055565b015160001960f88460031b161c19169055388080611e58565b9192602060018192868b015181550194019201611e43565b602081016020825282518091526040820191602060408360051b8301019401926000915b838310611ec657505050505090565b9091929394602080611f09600193603f19868203018752606060408b5163ffffffff815116845261ffff8682015116868501520151918160408201520190610cde565b97019301930191939290611eb7565b60005b8151811015611fa85780611f3e6040611f3660019486611d46565b510151611fdf565b611fa26040611f4d8386611d46565b51015163ffffffff611f5f8487611d46565b5151166000526002602052611f9d6040600020611f8b6020611f81878a611d46565b51015161ffff1690565b61ffff16600052602052604060002090565b611dc2565b01611f1b565b50611fda7fbe4864a8e820971c0247f5992e2da559595f7bf076a21cb5928d443d2a13b6749160405191829182611e93565b0390a1565b600361ffff60028301511603611ff25750565b604051639a6d49cd60e01b81526020600482015290819061175a906024830190610cde565b8034036120215790565b6304fb820960e51b6000523460045260246000fd5b60405163393f876560e21b81527f00000000000000000000000000000000000000000000000000000000000000006001600160a01b03169190602081600481865afa908115610742576000916120b4575b506001600160a01b03169182156120a357610c509233906120ef565b6329b99a9560e11b60005260046000fd5b90506020813d6020116120e7575b816120cf60209383610bf6565b8101031261026257516120e1816102c1565b38612087565b3d91506120c2565b6040516323b872dd60e01b60208083019182526001600160a01b0394851660248401529490931660448201526064808201959095529384529260009190612137608482610bf6565b519082855af115611459576000513d61218057506001600160a01b0381163b155b61215f5750565b635274afe760e01b60009081526001600160a01b0391909116600452602490fd5b6001141561215856fea2646970667358221220c5c96e8331245f628816eeb634302d3e18fc4d769a23b5571e91e21ffe0dc2b464736f6c634300081c0033a2646970667358221220c7d46a177961d23996eed624b97ec26a3b79ed1fffb039c5e1b5a77306bd688764736f6c634300081c0033",
  "linkReferences": {},
  "deployedLinkReferences": {}
}