{
  "_format": "hh-sol-artifact-1",
  "contractName": "WrappedSbFTToken",
  "sourceName": "contracts/tokens/WrappedsbFTToken.sol",
  "abi": [
    {
      "inputs": [
        {
          "internalType": "string",
          "name": "name",
          "type": "string"
        },
        {
          "internalType": "string",
          "name": "symbol",
          "type": "string"
        }
      ],
      "stateMutability": "nonpayable",
      "type": "constructor"
    },
    {
      "inputs": [
        {
          "internalType": "address",
          "name": "spender",
          "type": "address"
        },
        {
          "internalType": "uint256",
          "name": "allowance",
          "type": "uint256"
        },
        {
          "internalType": "uint256",
          "name": "needed",
          "type": "uint256"
        }
      ],
      "name": "ERC20InsufficientAllowance",
      "type": "error"
    },
    {
      "inputs": [
        {
          "internalType": "address",
          "name": "sender",
          "type": "address"
        },
        {
          "internalType": "uint256",
          "name": "balance",
          "type": "uint256"
        },
        {
          "internalType": "uint256",
          "name": "needed",
          "type": "uint256"
        }
      ],
      "name": "ERC20InsufficientBalance",
      "type": "error"
    },
    {
      "inputs": [
        {
          "internalType": "address",
          "name": "approver",
          "type": "address"
        }
      ],
      "name": "ERC20InvalidApprover",
      "type": "error"
    },
    {
      "inputs": [
        {
          "internalType": "address",
          "name": "receiver",
          "type": "address"
        }
      ],
      "name": "ERC20InvalidReceiver",
      "type": "error"
    },
    {
      "inputs": [
        {
          "internalType": "address",
          "name": "sender",
          "type": "address"
        }
      ],
      "name": "ERC20InvalidSender",
      "type": "error"
    },
    {
      "inputs": [
        {
          "internalType": "address",
          "name": "spender",
          "type": "address"
        }
      ],
      "name": "ERC20InvalidSpender",
      "type": "error"
    },
    {
      "inputs": [
        {
          "internalType": "address",
          "name": "owner",
          "type": "address"
        }
      ],
      "name": "OwnableInvalidOwner",
      "type": "error"
    },
    {
      "inputs": [
        {
          "internalType": "address",
          "name": "account",
          "type": "address"
        }
      ],
      "name": "OwnableUnauthorizedAccount",
      "type": "error"
    },
    {
      "anonymous": false,
      "inputs": [
        {
          "indexed": true,
          "internalType": "address",
          "name": "owner",
          "type": "address"
        },
        {
          "indexed": true,
          "internalType": "address",
          "name": "spender",
          "type": "address"
        },
        {
          "indexed": false,
          "internalType": "uint256",
          "name": "value",
          "type": "uint256"
        }
      ],
      "name": "Approval",
      "type": "event"
    },
    {
      "anonymous": false,
      "inputs": [
        {
          "indexed": true,
          "internalType": "address",
          "name": "bridgeContract",
          "type": "address"
        }
      ],
      "name": "BridgeContractSet",
      "type": "event"
    },
    {
      "anonymous": false,
      "inputs": [
        {
          "indexed": true,
          "internalType": "address",
          "name": "previousOwner",
          "type": "address"
        },
        {
          "indexed": true,
          "internalType": "address",
          "name": "newOwner",
          "type": "address"
        }
      ],
      "name": "OwnershipTransferred",
      "type": "event"
    },
    {
      "anonymous": false,
      "inputs": [
        {
          "indexed": true,
          "internalType": "address",
          "name": "from",
          "type": "address"
        },
        {
          "indexed": false,
          "internalType": "uint256",
          "name": "amount",
          "type": "uint256"
        },
        {
          "indexed": false,
          "internalType": "uint256",
          "name": "totalSupply",
          "type": "uint256"
        }
      ],
      "name": "TokensBurned",
      "type": "event"
    },
    {
      "anonymous": false,
      "inputs": [
        {
          "indexed": true,
          "internalType": "address",
          "name": "to",
          "type": "address"
        },
        {
          "indexed": false,
          "internalType": "uint256",
          "name": "amount",
          "type": "uint256"
        },
        {
          "indexed": false,
          "internalType": "uint256",
          "name": "totalSupply",
          "type": "uint256"
        }
      ],
      "name": "TokensMinted",
      "type": "event"
    },
    {
      "anonymous": false,
      "inputs": [
        {
          "indexed": true,
          "internalType": "address",
          "name": "from",
          "type": "address"
        },
        {
          "indexed": true,
          "internalType": "address",
          "name": "to",
          "type": "address"
        },
        {
          "indexed": false,
          "internalType": "uint256",
          "name": "value",
          "type": "uint256"
        }
      ],
      "name": "Transfer",
      "type": "event"
    },
    {
      "inputs": [
        {
          "internalType": "address",
          "name": "owner",
          "type": "address"
        },
        {
          "internalType": "address",
          "name": "spender",
          "type": "address"
        }
      ],
      "name": "allowance",
      "outputs": [
        {
          "internalType": "uint256",
          "name": "",
          "type": "uint256"
        }
      ],
      "stateMutability": "view",
      "type": "function"
    },
    {
      "inputs": [
        {
          "internalType": "address",
          "name": "spender",
          "type": "address"
        },
        {
          "internalType": "uint256",
          "name": "value",
          "type": "uint256"
        }
      ],
      "name": "approve",
      "outputs": [
        {
          "internalType": "bool",
          "name": "",
          "type": "bool"
        }
      ],
      "stateMutability": "nonpayable",
      "type": "function"
    },
    {
      "inputs": [
        {
          "internalType": "address",
          "name": "account",
          "type": "address"
        }
      ],
      "name": "balanceOf",
      "outputs": [
        {
          "internalType": "uint256",
          "name": "",
          "type": "uint256"
        }
      ],
      "stateMutability": "view",
      "type": "function"
    },
    {
      "inputs": [],
      "name": "bridgeContract",
      "outputs": [
        {
          "internalType": "address",
          "name": "",
          "type": "address"
        }
      ],
      "stateMutability": "view",
      "type": "function"
    },
    {
      "inputs": [
        {
          "internalType": "address",
          "name": "from",
          "type": "address"
        },
        {
          "internalType": "uint256",
          "name": "amount",
          "type": "uint256"
        }
      ],
      "name": "burn",
      "outputs": [],
      "stateMutability": "nonpayable",
      "type": "function"
    },
    {
      "inputs": [],
      "name": "decimals",
      "outputs": [
        {
          "internalType": "uint8",
          "name": "",
          "type": "uint8"
        }
      ],
      "stateMutability": "view",
      "type": "function"
    },
    {
      "inputs": [
        {
          "internalType": "address",
          "name": "account",
          "type": "address"
        }
      ],
      "name": "isHolder",
      "outputs": [
        {
          "internalType": "bool",
          "name": "",
          "type": "bool"
        }
      ],
      "stateMutability": "view",
      "type": "function"
    },
    {
      "inputs": [
        {
          "internalType": "address",
          "name": "to",
          "type": "address"
        },
        {
          "internalType": "uint256",
          "name": "amount",
          "type": "uint256"
        }
      ],
      "name": "mint",
      "outputs": [],
      "stateMutability": "nonpayable",
      "type": "function"
    },
    {
      "inputs": [],
      "name": "name",
      "outputs": [
        {
          "internalType": "string",
          "name": "",
          "type": "string"
        }
      ],
      "stateMutability": "view",
      "type": "function"
    },
    {
      "inputs": [],
      "name": "owner",
      "outputs": [
        {
          "internalType": "address",
          "name": "",
          "type": "address"
        }
      ],
      "stateMutability": "view",
      "type": "function"
    },
    {
      "inputs": [],
      "name": "renounceOwnership",
      "outputs": [],
      "stateMutability": "nonpayable",
      "type": "function"
    },
    {
      "inputs": [
        {
          "internalType": "address",
          "name": "_bridgeContract",
          "type": "address"
        }
      ],
      "name": "setBridgeContract",
      "outputs": [],
      "stateMutability": "nonpayable",
      "type": "function"
    },
    {
      "inputs": [],
      "name": "symbol",
      "outputs": [
        {
          "internalType": "string",
          "name": "",
          "type": "string"
        }
      ],
      "stateMutability": "view",
      "type": "function"
    },
    {
      "inputs": [],
      "name": "totalSupply",
      "outputs": [
        {
          "internalType": "uint256",
          "name": "",
          "type": "uint256"
        }
      ],
      "stateMutability": "view",
      "type": "function"
    },
    {
      "inputs": [
        {
          "internalType": "address",
          "name": "to",
          "type": "address"
        },
        {
          "internalType": "uint256",
          "name": "value",
          "type": "uint256"
        }
      ],
      "name": "transfer",
      "outputs": [
        {
          "internalType": "bool",
          "name": "",
          "type": "bool"
        }
      ],
      "stateMutability": "nonpayable",
      "type": "function"
    },
    {
      "inputs": [
        {
          "internalType": "address",
          "name": "from",
          "type": "address"
        },
        {
          "internalType": "address",
          "name": "to",
          "type": "address"
        },
        {
          "internalType": "uint256",
          "name": "value",
          "type": "uint256"
        }
      ],
      "name": "transferFrom",
      "outputs": [
        {
          "internalType": "bool",
          "name": "",
          "type": "bool"
        }
      ],
      "stateMutability": "nonpayable",
      "type": "function"
    },
    {
      "inputs": [
        {
          "internalType": "address",
          "name": "newOwner",
          "type": "address"
        }
      ],
      "name": "transferOwnership",
      "outputs": [],
      "stateMutability": "nonpayable",
      "type": "function"
    }
  ],
  "bytecode": "0x608060405234610385576110f1803803806100198161038a565b9283398101906040818303126103855780516001600160401b03811161038557826100459183016103af565b60208201519092906001600160401b0381116103855761006592016103af565b81516001600160401b03811161029057600354600181811c9116801561037b575b602082101461027057601f8111610316575b50602092601f82116001146102b157928192936000926102a6575b50508160011b916000199060031b1c1916176003555b80516001600160401b03811161029057600454600181811c91168015610286575b602082101461027057601f811161020b575b50602091601f82116001146101a75791819260009261019c575b50508160011b916000199060031b1c1916176004555b33156101865760058054336001600160a01b03198216811790925560405191906001600160a01b03167f8be0079c531659141344cd1fd0a4f28419497f9722a3daafe3b4186f6b6457e0600080a3610cd6908161041b8239f35b631e4fbdf760e01b600052600060045260246000fd5b015190503880610116565b601f198216926004600052806000209160005b8581106101f3575083600195106101da575b505050811b0160045561012c565b015160001960f88460031b161c191690553880806101cc565b919260206001819286850151815501940192016101ba565b60046000527f8a35acfbc15ff81a39ae7d344fd709f28e8600b4aa8c65c6b64bfe7fe36bd19b601f830160051c81019160208410610266575b601f0160051c01905b81811061025a57506100fc565b6000815560010161024d565b9091508190610244565b634e487b7160e01b600052602260045260246000fd5b90607f16906100ea565b634e487b7160e01b600052604160045260246000fd5b0151905038806100b3565b601f198216936003600052806000209160005b8681106102fe57508360019596106102e5575b505050811b016003556100c9565b015160001960f88460031b161c191690553880806102d7565b919260206001819286850151815501940192016102c4565b60036000527fc2575a0e9e593c00f959f8c92f12db2869c3395a3b0502d05e2516446f71f85b601f830160051c81019160208410610371575b601f0160051c01905b8181106103655750610098565b60008155600101610358565b909150819061034f565b90607f1690610086565b600080fd5b6040519190601f01601f191682016001600160401b0381118382101761029057604052565b81601f82011215610385578051906001600160401b038211610290576103de601f8301601f191660200161038a565b92828452602083830101116103855760005b82811061040557505060206000918301015290565b806020809284010151828287010152016103f056fe608080604052600436101561001357600080fd5b60003560e01c90816306fdde0314610a1e57508063095ea7b3146109985780630b26cf66146108ea57806318160ddd146108cc57806323b872dd146107df578063313ce567146107c357806340c10f191461065857806370a082311461061e578063715018a6146105c15780638da5cb5b1461059857806395d89b41146104775780639dc29fac14610250578063a9059cbb1461021f578063cd596583146101f6578063d4d7b19a146101ba578063dd62ed3e146101695763f2fde38b146100da57600080fd5b34610164576020366003190112610164576100f3610b3a565b6100fb610bb2565b6001600160a01b0316801561014e57600580546001600160a01b0319811683179091556001600160a01b03167f8be0079c531659141344cd1fd0a4f28419497f9722a3daafe3b4186f6b6457e0600080a3005b631e4fbdf760e01b600052600060045260246000fd5b600080fd5b3461016457604036600319011261016457610182610b3a565b61018a610b50565b6001600160a01b039182166000908152600160209081526040808320949093168252928352819020549051908152f35b34610164576020366003190112610164576001600160a01b036101db610b3a565b16600052600060205260206040600020541515604051908152f35b34610164576000366003190112610164576006546040516001600160a01b039091168152602090f35b346101645760403660031901126101645761024561023b610b3a565b6024359033610bdb565b602060405160018152f35b3461016457604036600319011261016457610269610b3a565b60065460243591906001600160a01b03163303610432576001600160a01b031680156103ed5761029a821515610b66565b80600052600060205281604060002054106103a8576000918161034557600254818101809111610331577fccbea4088a3b7ae9ca2d15fab9a9742a4075b4d7247768a1eecea917565aba00916040916002555b806002540360025584847fddf252ad1be2c89b69c2b068fc378daa952ba7f163c4a11628f55a4df523b3ef60208551858152a360025482519182526020820152a280f35b634e487b7160e01b84526011600452602484fd5b81835282602052604083205481811061038f57817fccbea4088a3b7ae9ca2d15fab9a9742a4075b4d7247768a1eecea917565aba00926040928587528660205203828620556102ed565b6064939263391434e360e21b8452600452602452604452fd5b60405162461bcd60e51b815260206004820152601c60248201527f496e73756666696369656e742062616c616e636520746f206275726e000000006044820152606490fd5b60405162461bcd60e51b815260206004820152601d60248201527f43616e6e6f74206275726e2066726f6d207a65726f20616464726573730000006044820152606490fd5b60405162461bcd60e51b815260206004820152601d60248201527f4f6e6c792062726964676520636f6e74726163742063616e206275726e0000006044820152606490fd5b346101645760003660031901126101645760405160006004548060011c9060018116801561058e575b60208310811461057a5782855290811561055e5750600114610507575b50819003601f01601f191681019067ffffffffffffffff8211818310176104f1576104ed82918260405282610af1565b0390f35b634e487b7160e01b600052604160045260246000fd5b905060046000527f8a35acfbc15ff81a39ae7d344fd709f28e8600b4aa8c65c6b64bfe7fe36bd19b6000905b828210610548575060209150820101826104bd565b6001816020925483858801015201910190610533565b90506020925060ff191682840152151560051b820101826104bd565b634e487b7160e01b84526022600452602484fd5b91607f16916104a0565b34610164576000366003190112610164576005546040516001600160a01b039091168152602090f35b34610164576000366003190112610164576105da610bb2565b600580546001600160a01b031981169091556000906001600160a01b03167f8be0079c531659141344cd1fd0a4f28419497f9722a3daafe3b4186f6b6457e08280a3005b34610164576020366003190112610164576001600160a01b0361063f610b3a565b1660005260006020526020604060002054604051908152f35b3461016457604036600319011261016457610671610b3a565b60065460243591906001600160a01b0316330361077e576001600160a01b03168015610739576106a2821515610b66565b600091600254818101809111610331576002557f2e8ac5177a616f2aec08c3048f5021e4e9743ece034e8d83ba5caf76688bb47590604090836107245780600254036002555b83857fddf252ad1be2c89b69c2b068fc378daa952ba7f163c4a11628f55a4df523b3ef60208551858152a360025482519182526020820152a280f35b838552846020528185208181540190556106e8565b60405162461bcd60e51b815260206004820152601b60248201527f43616e6e6f74206d696e7420746f207a65726f206164647265737300000000006044820152606490fd5b60405162461bcd60e51b815260206004820152601d60248201527f4f6e6c792062726964676520636f6e74726163742063616e206d696e740000006044820152606490fd5b3461016457600036600319011261016457602060405160128152f35b34610164576060366003190112610164576107f8610b3a565b610800610b50565b6001600160a01b0382166000818152600160209081526040808320338452909152902054909260443592916000198110610840575b506102459350610bdb565b8381106108af57841561089957331561088357610245946000526001602052604060002060018060a01b0333166000526020528360406000209103905584610835565b634a1406b160e11b600052600060045260246000fd5b63e602df0560e01b600052600060045260246000fd5b8390637dc7a0d960e11b6000523360045260245260445260646000fd5b34610164576000366003190112610164576020600254604051908152f35b3461016457602036600319011261016457610903610b3a565b61090b610bb2565b6001600160a01b0316801561095357600680546001600160a01b031916821790557fad098d6e912c08ed9aa3ee6ca9529da44a959d4c6251c6b8b088af216c1e3506600080a2005b60405162461bcd60e51b815260206004820152601760248201527f496e76616c69642062726964676520636f6e74726163740000000000000000006044820152606490fd5b34610164576040366003190112610164576109b1610b3a565b602435903315610899576001600160a01b031690811561088357336000526001602052604060002082600052602052806040600020556040519081527f8c5be1e5ebec7d5bd14f71427d1e84f3dd0314c0f7b2291e5b200ac8c7c3b92560203392a3602060405160018152f35b346101645760003660031901126101645760006003548060011c90600181168015610ae7575b60208310811461057a5782855290811561055e5750600114610a905750819003601f01601f191681019067ffffffffffffffff8211818310176104f1576104ed82918260405282610af1565b905060036000527fc2575a0e9e593c00f959f8c92f12db2869c3395a3b0502d05e2516446f71f85b6000905b828210610ad1575060209150820101826104bd565b6001816020925483858801015201910190610abc565b91607f1691610a44565b91909160208152825180602083015260005b818110610b24575060409293506000838284010152601f8019910116010190565b8060208092870101516040828601015201610b03565b600435906001600160a01b038216820361016457565b602435906001600160a01b038216820361016457565b15610b6d57565b60405162461bcd60e51b815260206004820152601d60248201527f416d6f756e74206d7573742062652067726561746572207468616e20300000006044820152606490fd5b6005546001600160a01b03163303610bc657565b63118cdaa760e01b6000523360045260246000fd5b6001600160a01b0316908115610c8a576001600160a01b0316918215610c74576000828152806020526040812054828110610c5a5791604082827fddf252ad1be2c89b69c2b068fc378daa952ba7f163c4a11628f55a4df523b3ef958760209652828652038282205586815280845220818154019055604051908152a3565b916064928463391434e360e21b8452600452602452604452fd5b63ec442f0560e01b600052600060045260246000fd5b634b637e8f60e11b600052600060045260246000fdfea2646970667358221220ac6fd3953df1e4a45136d98bd98506519f87d7369d507ba1da46835f6be5c81a64736f6c634300081c0033",
  "linkReferences": {},
  "deployedLinkReferences": {}
}