{
  "_format": "hh-sol-artifact-1",
  "contractName": "SbFTToken",
  "sourceName": "contracts/tokens/sbFTToken.sol",
  "abi": [
    {
      "inputs": [
        {
          "internalType": "string",
          "name": "name",
          "type": "string"
        },
        {
          "internalType": "string",
          "name": "symbol",
          "type": "string"
        }
      ],
      "stateMutability": "nonpayable",
      "type": "constructor"
    },
    {
      "inputs": [
        {
          "internalType": "address",
          "name": "spender",
          "type": "address"
        },
        {
          "internalType": "uint256",
          "name": "allowance",
          "type": "uint256"
        },
        {
          "internalType": "uint256",
          "name": "needed",
          "type": "uint256"
        }
      ],
      "name": "ERC20InsufficientAllowance",
      "type": "error"
    },
    {
      "inputs": [
        {
          "internalType": "address",
          "name": "sender",
          "type": "address"
        },
        {
          "internalType": "uint256",
          "name": "balance",
          "type": "uint256"
        },
        {
          "internalType": "uint256",
          "name": "needed",
          "type": "uint256"
        }
      ],
      "name": "ERC20InsufficientBalance",
      "type": "error"
    },
    {
      "inputs": [
        {
          "internalType": "address",
          "name": "approver",
          "type": "address"
        }
      ],
      "name": "ERC20InvalidApprover",
      "type": "error"
    },
    {
      "inputs": [
        {
          "internalType": "address",
          "name": "receiver",
          "type": "address"
        }
      ],
      "name": "ERC20InvalidReceiver",
      "type": "error"
    },
    {
      "inputs": [
        {
          "internalType": "address",
          "name": "sender",
          "type": "address"
        }
      ],
      "name": "ERC20InvalidSender",
      "type": "error"
    },
    {
      "inputs": [
        {
          "internalType": "address",
          "name": "spender",
          "type": "address"
        }
      ],
      "name": "ERC20InvalidSpender",
      "type": "error"
    },
    {
      "inputs": [
        {
          "internalType": "address",
          "name": "owner",
          "type": "address"
        }
      ],
      "name": "OwnableInvalidOwner",
      "type": "error"
    },
    {
      "inputs": [
        {
          "internalType": "address",
          "name": "account",
          "type": "address"
        }
      ],
      "name": "OwnableUnauthorizedAccount",
      "type": "error"
    },
    {
      "anonymous": false,
      "inputs": [
        {
          "indexed": true,
          "internalType": "address",
          "name": "owner",
          "type": "address"
        },
        {
          "indexed": true,
          "internalType": "address",
          "name": "spender",
          "type": "address"
        },
        {
          "indexed": false,
          "internalType": "uint256",
          "name": "value",
          "type": "uint256"
        }
      ],
      "name": "Approval",
      "type": "event"
    },
    {
      "anonymous": false,
      "inputs": [
        {
          "indexed": true,
          "internalType": "address",
          "name": "previousOwner",
          "type": "address"
        },
        {
          "indexed": true,
          "internalType": "address",
          "name": "newOwner",
          "type": "address"
        }
      ],
      "name": "OwnershipTransferred",
      "type": "event"
    },
    {
      "anonymous": false,
      "inputs": [
        {
          "indexed": true,
          "internalType": "address",
          "name": "stakingContract",
          "type": "address"
        }
      ],
      "name": "StakingContractSet",
      "type": "event"
    },
    {
      "anonymous": false,
      "inputs": [
        {
          "indexed": true,
          "internalType": "address",
          "name": "from",
          "type": "address"
        },
        {
          "indexed": false,
          "internalType": "uint256",
          "name": "amount",
          "type": "uint256"
        },
        {
          "indexed": false,
          "internalType": "uint256",
          "name": "totalSupply",
          "type": "uint256"
        }
      ],
      "name": "TokensBurned",
      "type": "event"
    },
    {
      "anonymous": false,
      "inputs": [
        {
          "indexed": true,
          "internalType": "address",
          "name": "to",
          "type": "address"
        },
        {
          "indexed": false,
          "internalType": "uint256",
          "name": "amount",
          "type": "uint256"
        },
        {
          "indexed": false,
          "internalType": "uint256",
          "name": "totalSupply",
          "type": "uint256"
        }
      ],
      "name": "TokensMinted",
      "type": "event"
    },
    {
      "anonymous": false,
      "inputs": [
        {
          "indexed": true,
          "internalType": "address",
          "name": "from",
          "type": "address"
        },
        {
          "indexed": true,
          "internalType": "address",
          "name": "to",
          "type": "address"
        },
        {
          "indexed": false,
          "internalType": "uint256",
          "name": "value",
          "type": "uint256"
        }
      ],
      "name": "Transfer",
      "type": "event"
    },
    {
      "inputs": [
        {
          "internalType": "address",
          "name": "owner",
          "type": "address"
        },
        {
          "internalType": "address",
          "name": "spender",
          "type": "address"
        }
      ],
      "name": "allowance",
      "outputs": [
        {
          "internalType": "uint256",
          "name": "",
          "type": "uint256"
        }
      ],
      "stateMutability": "view",
      "type": "function"
    },
    {
      "inputs": [
        {
          "internalType": "address",
          "name": "spender",
          "type": "address"
        },
        {
          "internalType": "uint256",
          "name": "value",
          "type": "uint256"
        }
      ],
      "name": "approve",
      "outputs": [
        {
          "internalType": "bool",
          "name": "",
          "type": "bool"
        }
      ],
      "stateMutability": "nonpayable",
      "type": "function"
    },
    {
      "inputs": [
        {
          "internalType": "address",
          "name": "account",
          "type": "address"
        }
      ],
      "name": "balanceOf",
      "outputs": [
        {
          "internalType": "uint256",
          "name": "",
          "type": "uint256"
        }
      ],
      "stateMutability": "view",
      "type": "function"
    },
    {
      "inputs": [
        {
          "internalType": "address",
          "name": "from",
          "type": "address"
        },
        {
          "internalType": "uint256",
          "name": "amount",
          "type": "uint256"
        }
      ],
      "name": "burn",
      "outputs": [],
      "stateMutability": "nonpayable",
      "type": "function"
    },
    {
      "inputs": [],
      "name": "decimals",
      "outputs": [
        {
          "internalType": "uint8",
          "name": "",
          "type": "uint8"
        }
      ],
      "stateMutability": "view",
      "type": "function"
    },
    {
      "inputs": [],
      "name": "getHolders",
      "outputs": [
        {
          "internalType": "address[]",
          "name": "holders",
          "type": "address[]"
        }
      ],
      "stateMutability": "pure",
      "type": "function"
    },
    {
      "inputs": [
        {
          "internalType": "address",
          "name": "account",
          "type": "address"
        }
      ],
      "name": "isHolder",
      "outputs": [
        {
          "internalType": "bool",
          "name": "",
          "type": "bool"
        }
      ],
      "stateMutability": "view",
      "type": "function"
    },
    {
      "inputs": [
        {
          "internalType": "address",
          "name": "to",
          "type": "address"
        },
        {
          "internalType": "uint256",
          "name": "amount",
          "type": "uint256"
        }
      ],
      "name": "mint",
      "outputs": [],
      "stateMutability": "nonpayable",
      "type": "function"
    },
    {
      "inputs": [],
      "name": "name",
      "outputs": [
        {
          "internalType": "string",
          "name": "",
          "type": "string"
        }
      ],
      "stateMutability": "view",
      "type": "function"
    },
    {
      "inputs": [],
      "name": "owner",
      "outputs": [
        {
          "internalType": "address",
          "name": "",
          "type": "address"
        }
      ],
      "stateMutability": "view",
      "type": "function"
    },
    {
      "inputs": [],
      "name": "renounceOwnership",
      "outputs": [],
      "stateMutability": "nonpayable",
      "type": "function"
    },
    {
      "inputs": [
        {
          "internalType": "address",
          "name": "_stakingContract",
          "type": "address"
        }
      ],
      "name": "setStakingContract",
      "outputs": [],
      "stateMutability": "nonpayable",
      "type": "function"
    },
    {
      "inputs": [],
      "name": "stakingContract",
      "outputs": [
        {
          "internalType": "address",
          "name": "",
          "type": "address"
        }
      ],
      "stateMutability": "view",
      "type": "function"
    },
    {
      "inputs": [],
      "name": "symbol",
      "outputs": [
        {
          "internalType": "string",
          "name": "",
          "type": "string"
        }
      ],
      "stateMutability": "view",
      "type": "function"
    },
    {
      "inputs": [],
      "name": "totalSupply",
      "outputs": [
        {
          "internalType": "uint256",
          "name": "",
          "type": "uint256"
        }
      ],
      "stateMutability": "view",
      "type": "function"
    },
    {
      "inputs": [
        {
          "internalType": "address",
          "name": "to",
          "type": "address"
        },
        {
          "internalType": "uint256",
          "name": "value",
          "type": "uint256"
        }
      ],
      "name": "transfer",
      "outputs": [
        {
          "internalType": "bool",
          "name": "",
          "type": "bool"
        }
      ],
      "stateMutability": "nonpayable",
      "type": "function"
    },
    {
      "inputs": [
        {
          "internalType": "address",
          "name": "from",
          "type": "address"
        },
        {
          "internalType": "address",
          "name": "to",
          "type": "address"
        },
        {
          "internalType": "uint256",
          "name": "value",
          "type": "uint256"
        }
      ],
      "name": "transferFrom",
      "outputs": [
        {
          "internalType": "bool",
          "name": "",
          "type": "bool"
        }
      ],
      "stateMutability": "nonpayable",
      "type": "function"
    },
    {
      "inputs": [
        {
          "internalType": "address",
          "name": "newOwner",
          "type": "address"
        }
      ],
      "name": "transferOwnership",
      "outputs": [],
      "stateMutability": "nonpayable",
      "type": "function"
    }
  ],
  "bytecode": "0x608060405234801561001057600080fd5b5060405161110b38038061110b83398101604081905261002f91610198565b338282600361003e838261028a565b50600461004b828261028a565b5050506001600160a01b03811661007c57604051631e4fbdf760e01b81526000600482015260240160405180910390fd5b6100858161008d565b505050610348565b600580546001600160a01b038381166001600160a01b0319831681179093556040519116919082907f8be0079c531659141344cd1fd0a4f28419497f9722a3daafe3b4186f6b6457e090600090a35050565b634e487b7160e01b600052604160045260246000fd5b600082601f83011261010657600080fd5b81516001600160401b0381111561011f5761011f6100df565b604051601f8201601f19908116603f011681016001600160401b038111828210171561014d5761014d6100df565b60405281815283820160200185101561016557600080fd5b60005b8281101561018457602081860181015183830182015201610168565b506000918101602001919091529392505050565b600080604083850312156101ab57600080fd5b82516001600160401b038111156101c157600080fd5b6101cd858286016100f5565b602085015190935090506001600160401b038111156101eb57600080fd5b6101f7858286016100f5565b9150509250929050565b600181811c9082168061021557607f821691505b60208210810361023557634e487b7160e01b600052602260045260246000fd5b50919050565b601f82111561028557806000526020600020601f840160051c810160208510156102625750805b601f840160051c820191505b81811015610282576000815560010161026e565b50505b505050565b81516001600160401b038111156102a3576102a36100df565b6102b7816102b18454610201565b8461023b565b6020601f8211600181146102eb57600083156102d35750848201515b600019600385901b1c1916600184901b178455610282565b600084815260208120601f198516915b8281101561031b57878501518255602094850194600190920191016102fb565b50848210156103395786840151600019600387901b60f8161c191681555b50505050600190811b01905550565b610db4806103576000396000f3fe608060405234801561001057600080fd5b50600436106101165760003560e01c80638da5cb5b116100a2578063a9059cbb11610071578063a9059cbb14610242578063d4d7b19a14610255578063dd62ed3e14610280578063ee99205c146102b9578063f2fde38b146102cc57600080fd5b80638da5cb5b146101ef57806395d89b41146102145780639dc29fac1461021c5780639dd373b91461022f57600080fd5b8063313ce567116100e9578063313ce5671461018157806340c10f19146101905780635fe8e7cc146101a557806370a08231146101be578063715018a6146101e757600080fd5b806306fdde031461011b578063095ea7b31461013957806318160ddd1461015c57806323b872dd1461016e575b600080fd5b6101236102df565b6040516101309190610bb1565b60405180910390f35b61014c610147366004610c1b565b610371565b6040519015158152602001610130565b6002545b604051908152602001610130565b61014c61017c366004610c45565b61038b565b60405160128152602001610130565b6101a361019e366004610c1b565b6103af565b005b6040805160008152602081019182905261013091610c82565b6101606101cc366004610cce565b6001600160a01b031660009081526020819052604090205490565b6101a361050f565b6005546001600160a01b03165b6040516001600160a01b039091168152602001610130565b610123610523565b6101a361022a366004610c1b565b610532565b6101a361023d366004610cce565b6106df565b61014c610250366004610c1b565b610787565b61014c610263366004610cce565b6001600160a01b0316600090815260208190526040902054151590565b61016061028e366004610cf0565b6001600160a01b03918216600090815260016020908152604080832093909416825291909152205490565b6006546101fc906001600160a01b031681565b6101a36102da366004610cce565b610795565b6060600380546102ee90610d23565b80601f016020809104026020016040519081016040528092919081815260200182805461031a90610d23565b80156103675780601f1061033c57610100808354040283529160200191610367565b820191906000526020600020905b81548152906001019060200180831161034a57829003601f168201915b5050505050905090565b60003361037f8185856107d3565b60019150505b92915050565b6000336103998582856107e5565b6103a4858585610864565b506001949350505050565b6006546001600160a01b0316331461040e5760405162461bcd60e51b815260206004820152601e60248201527f4f6e6c79207374616b696e6720636f6e74726163742063616e206d696e74000060448201526064015b60405180910390fd5b6001600160a01b0382166104645760405162461bcd60e51b815260206004820152601b60248201527f43616e6e6f74206d696e7420746f207a65726f206164647265737300000000006044820152606401610405565b600081116104b45760405162461bcd60e51b815260206004820152601d60248201527f416d6f756e74206d7573742062652067726561746572207468616e20300000006044820152606401610405565b6104be82826108c3565b816001600160a01b03167f2e8ac5177a616f2aec08c3048f5021e4e9743ece034e8d83ba5caf76688bb475826104f360025490565b6040805192835260208301919091520160405180910390a25050565b6105176108fd565b610521600061092a565b565b6060600480546102ee90610d23565b6006546001600160a01b0316331461058c5760405162461bcd60e51b815260206004820152601e60248201527f4f6e6c79207374616b696e6720636f6e74726163742063616e206275726e00006044820152606401610405565b6001600160a01b0382166105e25760405162461bcd60e51b815260206004820152601d60248201527f43616e6e6f74206275726e2066726f6d207a65726f20616464726573730000006044820152606401610405565b600081116106325760405162461bcd60e51b815260206004820152601d60248201527f416d6f756e74206d7573742062652067726561746572207468616e20300000006044820152606401610405565b80610652836001600160a01b031660009081526020819052604090205490565b10156106a05760405162461bcd60e51b815260206004820152601c60248201527f496e73756666696369656e742062616c616e636520746f206275726e000000006044820152606401610405565b6106aa828261097c565b816001600160a01b03167fccbea4088a3b7ae9ca2d15fab9a9742a4075b4d7247768a1eecea917565aba00826104f360025490565b6106e76108fd565b6001600160a01b03811661073d5760405162461bcd60e51b815260206004820152601860248201527f496e76616c6964207374616b696e6720636f6e747261637400000000000000006044820152606401610405565b600680546001600160a01b0319166001600160a01b0383169081179091556040517f1253844b0fff3da7dd2829de816c9b4f94c238cf2bf6eb72c02c7d6f2b53beac90600090a250565b60003361037f818585610864565b61079d6108fd565b6001600160a01b0381166107c757604051631e4fbdf760e01b815260006004820152602401610405565b6107d08161092a565b50565b6107e083838360016109b2565b505050565b6001600160a01b0383811660009081526001602090815260408083209386168352929052205460001981101561085e578181101561084f57604051637dc7a0d960e11b81526001600160a01b03841660048201526024810182905260448101839052606401610405565b61085e848484840360006109b2565b50505050565b6001600160a01b03831661088e57604051634b637e8f60e11b815260006004820152602401610405565b6001600160a01b0382166108b85760405163ec442f0560e01b815260006004820152602401610405565b6107e0838383610a87565b6001600160a01b0382166108ed5760405163ec442f0560e01b815260006004820152602401610405565b6108f960008383610a87565b5050565b6005546001600160a01b031633146105215760405163118cdaa760e01b8152336004820152602401610405565b600580546001600160a01b038381166001600160a01b0319831681179093556040519116919082907f8be0079c531659141344cd1fd0a4f28419497f9722a3daafe3b4186f6b6457e090600090a35050565b6001600160a01b0382166109a657604051634b637e8f60e11b815260006004820152602401610405565b6108f982600083610a87565b6001600160a01b0384166109dc5760405163e602df0560e01b815260006004820152602401610405565b6001600160a01b038316610a0657604051634a1406b160e11b815260006004820152602401610405565b6001600160a01b038085166000908152600160209081526040808320938716835292905220829055801561085e57826001600160a01b0316846001600160a01b03167f8c5be1e5ebec7d5bd14f71427d1e84f3dd0314c0f7b2291e5b200ac8c7c3b92584604051610a7991815260200190565b60405180910390a350505050565b6001600160a01b038316610ab2578060026000828254610aa79190610d5d565b90915550610b249050565b6001600160a01b03831660009081526020819052604090205481811015610b055760405163391434e360e21b81526001600160a01b03851660048201526024810182905260448101839052606401610405565b6001600160a01b03841660009081526020819052604090209082900390555b6001600160a01b038216610b4057600280548290039055610b5f565b6001600160a01b03821660009081526020819052604090208054820190555b816001600160a01b0316836001600160a01b03167fddf252ad1be2c89b69c2b068fc378daa952ba7f163c4a11628f55a4df523b3ef83604051610ba491815260200190565b60405180910390a3505050565b602081526000825180602084015260005b81811015610bdf5760208186018101516040868401015201610bc2565b506000604082850101526040601f19601f83011684010191505092915050565b80356001600160a01b0381168114610c1657600080fd5b919050565b60008060408385031215610c2e57600080fd5b610c3783610bff565b946020939093013593505050565b600080600060608486031215610c5a57600080fd5b610c6384610bff565b9250610c7160208501610bff565b929592945050506040919091013590565b602080825282518282018190526000918401906040840190835b81811015610cc35783516001600160a01b0316835260209384019390920191600101610c9c565b509095945050505050565b600060208284031215610ce057600080fd5b610ce982610bff565b9392505050565b60008060408385031215610d0357600080fd5b610d0c83610bff565b9150610d1a60208401610bff565b90509250929050565b600181811c90821680610d3757607f821691505b602082108103610d5757634e487b7160e01b600052602260045260246000fd5b50919050565b8082018082111561038557634e487b7160e01b600052601160045260246000fdfea2646970667358221220e5516f34c2193f21f9eff8aa3df9433f006dfd56ebcfcd45acc1bf2f0b2ccdc664736f6c634300081c0033",
  "linkReferences": {},
  "deployedLinkReferences": {}
}