{
  "_format": "hh-sol-artifact-1",
  "contractName": "StakingContract",
  "sourceName": "contracts/core/StakingContract.sol",
  "abi": [
    {
      "inputs": [
        {
          "internalType": "address",
          "name": "_xfiToken",
          "type": "address"
        },
        {
          "internalType": "address",
          "name": "_sbftToken",
          "type": "address"
        }
      ],
      "stateMutability": "nonpayable",
      "type": "constructor"
    },
    {
      "inputs": [
        {
          "internalType": "address",
          "name": "owner",
          "type": "address"
        }
      ],
      "name": "OwnableInvalidOwner",
      "type": "error"
    },
    {
      "inputs": [
        {
          "internalType": "address",
          "name": "account",
          "type": "address"
        }
      ],
      "name": "OwnableUnauthorizedAccount",
      "type": "error"
    },
    {
      "inputs": [],
      "name": "ReentrancyGuardReentrantCall",
      "type": "error"
    },
    {
      "anonymous": false,
      "inputs": [
        {
          "indexed": false,
          "internalType": "uint256",
          "name": "newRate",
          "type": "uint256"
        }
      ],
      "name": "ExchangeRateUpdated",
      "type": "event"
    },
    {
      "anonymous": false,
      "inputs": [
        {
          "indexed": false,
          "internalType": "uint256",
          "name": "amount",
          "type": "uint256"
        }
      ],
      "name": "FeeCollected",
      "type": "event"
    },
    {
      "anonymous": false,
      "inputs": [
        {
          "indexed": false,
          "internalType": "uint256",
          "name": "newMinStake",
          "type": "uint256"
        }
      ],
      "name": "MinStakeUpdated",
      "type": "event"
    },
    {
      "anonymous": false,
      "inputs": [
        {
          "indexed": true,
          "internalType": "address",
          "name": "previousOwner",
          "type": "address"
        },
        {
          "indexed": true,
          "internalType": "address",
          "name": "newOwner",
          "type": "address"
        }
      ],
      "name": "OwnershipTransferred",
      "type": "event"
    },
    {
      "anonymous": false,
      "inputs": [
        {
          "indexed": false,
          "internalType": "uint256",
          "name": "newRate",
          "type": "uint256"
        }
      ],
      "name": "RewardRateUpdated",
      "type": "event"
    },
    {
      "anonymous": false,
      "inputs": [
        {
          "indexed": false,
          "internalType": "uint256",
          "name": "rewardAmount",
          "type": "uint256"
        },
        {
          "indexed": false,
          "internalType": "uint256",
          "name": "newExchangeRate",
          "type": "uint256"
        }
      ],
      "name": "RewardsAccrued",
      "type": "event"
    },
    {
      "anonymous": false,
      "inputs": [
        {
          "indexed": true,
          "internalType": "address",
          "name": "user",
          "type": "address"
        },
        {
          "indexed": false,
          "internalType": "uint256",
          "name": "amount",
          "type": "uint256"
        }
      ],
      "name": "RewardsClaimed",
      "type": "event"
    },
    {
      "anonymous": false,
      "inputs": [
        {
          "indexed": true,
          "internalType": "address",
          "name": "user",
          "type": "address"
        },
        {
          "indexed": false,
          "internalType": "uint256",
          "name": "amount",
          "type": "uint256"
        }
      ],
      "name": "RewardsCompounded",
      "type": "event"
    },
    {
      "anonymous": false,
      "inputs": [
        {
          "indexed": true,
          "internalType": "address",
          "name": "user",
          "type": "address"
        },
        {
          "indexed": false,
          "internalType": "uint256",
          "name": "xfiAmount",
          "type": "uint256"
        },
        {
          "indexed": false,
          "internalType": "uint256",
          "name": "sbftAmount",
          "type": "uint256"
        },
        {
          "indexed": false,
          "internalType": "uint256",
          "name": "fee",
          "type": "uint256"
        },
        {
          "indexed": false,
          "internalType": "uint256",
          "name": "exchangeRate",
          "type": "uint256"
        }
      ],
      "name": "Staked",
      "type": "event"
    },
    {
      "anonymous": false,
      "inputs": [
        {
          "indexed": true,
          "internalType": "address",
          "name": "user",
          "type": "address"
        },
        {
          "indexed": false,
          "internalType": "uint256",
          "name": "requestId",
          "type": "uint256"
        },
        {
          "indexed": false,
          "internalType": "uint256",
          "name": "xfiAmount",
          "type": "uint256"
        }
      ],
      "name": "UnstakeProcessed",
      "type": "event"
    },
    {
      "anonymous": false,
      "inputs": [
        {
          "indexed": true,
          "internalType": "address",
          "name": "user",
          "type": "address"
        },
        {
          "indexed": false,
          "internalType": "uint256",
          "name": "requestId",
          "type": "uint256"
        },
        {
          "indexed": false,
          "internalType": "uint256",
          "name": "sbftAmount",
          "type": "uint256"
        }
      ],
      "name": "UnstakeRequestCancelled",
      "type": "event"
    },
    {
      "anonymous": false,
      "inputs": [
        {
          "indexed": true,
          "internalType": "address",
          "name": "user",
          "type": "address"
        },
        {
          "indexed": false,
          "internalType": "uint256",
          "name": "requestId",
          "type": "uint256"
        },
        {
          "indexed": false,
          "internalType": "uint256",
          "name": "sbftAmount",
          "type": "uint256"
        },
        {
          "indexed": false,
          "internalType": "uint256",
          "name": "xfiAmount",
          "type": "uint256"
        },
        {
          "indexed": false,
          "internalType": "uint256",
          "name": "unlockTime",
          "type": "uint256"
        }
      ],
      "name": "UnstakeRequested",
      "type": "event"
    },
    {
      "anonymous": false,
      "inputs": [
        {
          "indexed": true,
          "internalType": "address",
          "name": "user",
          "type": "address"
        },
        {
          "indexed": false,
          "internalType": "uint256",
          "name": "xfiAmount",
          "type": "uint256"
        },
        {
          "indexed": false,
          "internalType": "uint256",
          "name": "sbftAmount",
          "type": "uint256"
        }
      ],
      "name": "Unstaked",
      "type": "event"
    },
    {
      "anonymous": false,
      "inputs": [
        {
          "indexed": false,
          "internalType": "uint256",
          "name": "newDelay",
          "type": "uint256"
        }
      ],
      "name": "UnstakingDelayUpdated",
      "type": "event"
    },
    {
      "inputs": [],
      "name": "BASIS_POINTS",
      "outputs": [
        {
          "internalType": "uint256",
          "name": "",
          "type": "uint256"
        }
      ],
      "stateMutability": "view",
      "type": "function"
    },
    {
      "inputs": [],
      "name": "MAX_UNSTAKING_DELAY",
      "outputs": [
        {
          "internalType": "uint256",
          "name": "",
          "type": "uint256"
        }
      ],
      "stateMutability": "view",
      "type": "function"
    },
    {
      "inputs": [],
      "name": "MIN_STAKE",
      "outputs": [
        {
          "internalType": "uint256",
          "name": "",
          "type": "uint256"
        }
      ],
      "stateMutability": "view",
      "type": "function"
    },
    {
      "inputs": [],
      "name": "MIN_UNSTAKING_DELAY",
      "outputs": [
        {
          "internalType": "uint256",
          "name": "",
          "type": "uint256"
        }
      ],
      "stateMutability": "view",
      "type": "function"
    },
    {
      "inputs": [],
      "name": "SECONDS_PER_YEAR",
      "outputs": [
        {
          "internalType": "uint256",
          "name": "",
          "type": "uint256"
        }
      ],
      "stateMutability": "view",
      "type": "function"
    },
    {
      "inputs": [],
      "name": "STAKING_FEE",
      "outputs": [
        {
          "internalType": "uint256",
          "name": "",
          "type": "uint256"
        }
      ],
      "stateMutability": "view",
      "type": "function"
    },
    {
      "inputs": [],
      "name": "accrueRewards",
      "outputs": [],
      "stateMutability": "nonpayable",
      "type": "function"
    },
    {
      "inputs": [],
      "name": "annualRewardRate",
      "outputs": [
        {
          "internalType": "uint256",
          "name": "",
          "type": "uint256"
        }
      ],
      "stateMutability": "view",
      "type": "function"
    },
    {
      "inputs": [
        {
          "internalType": "uint256",
          "name": "requestId",
          "type": "uint256"
        }
      ],
      "name": "canProcessUnstake",
      "outputs": [
        {
          "internalType": "bool",
          "name": "",
          "type": "bool"
        },
        {
          "internalType": "uint256",
          "name": "",
          "type": "uint256"
        }
      ],
      "stateMutability": "view",
      "type": "function"
    },
    {
      "inputs": [
        {
          "internalType": "address",
          "name": "",
          "type": "address"
        }
      ],
      "name": "canUnstake",
      "outputs": [
        {
          "internalType": "bool",
          "name": "",
          "type": "bool"
        },
        {
          "internalType": "uint256",
          "name": "",
          "type": "uint256"
        }
      ],
      "stateMutability": "pure",
      "type": "function"
    },
    {
      "inputs": [
        {
          "internalType": "uint256",
          "name": "requestId",
          "type": "uint256"
        }
      ],
      "name": "cancelUnstakeRequest",
      "outputs": [],
      "stateMutability": "nonpayable",
      "type": "function"
    },
    {
      "inputs": [],
      "name": "claimRewards",
      "outputs": [],
      "stateMutability": "pure",
      "type": "function"
    },
    {
      "inputs": [],
      "name": "compoundRewards",
      "outputs": [],
      "stateMutability": "pure",
      "type": "function"
    },
    {
      "inputs": [
        {
          "internalType": "uint256",
          "name": "sbftAmount",
          "type": "uint256"
        },
        {
          "internalType": "uint256",
          "name": "penaltyRate",
          "type": "uint256"
        }
      ],
      "name": "emergencyUnstake",
      "outputs": [],
      "stateMutability": "nonpayable",
      "type": "function"
    },
    {
      "inputs": [],
      "name": "emergencyWithdraw",
      "outputs": [],
      "stateMutability": "nonpayable",
      "type": "function"
    },
    {
      "inputs": [],
      "name": "getAvailableXFI",
      "outputs": [
        {
          "internalType": "uint256",
          "name": "",
          "type": "uint256"
        }
      ],
      "stateMutability": "view",
      "type": "function"
    },
    {
      "inputs": [],
      "name": "getContractStats",
      "outputs": [
        {
          "internalType": "uint256",
          "name": "",
          "type": "uint256"
        },
        {
          "internalType": "uint256",
          "name": "",
          "type": "uint256"
        },
        {
          "internalType": "uint256",
          "name": "",
          "type": "uint256"
        }
      ],
      "stateMutability": "view",
      "type": "function"
    },
    {
      "inputs": [],
      "name": "getCurrentLockPeriod",
      "outputs": [
        {
          "internalType": "uint256",
          "name": "",
          "type": "uint256"
        }
      ],
      "stateMutability": "view",
      "type": "function"
    },
    {
      "inputs": [],
      "name": "getExchangeRate",
      "outputs": [
        {
          "internalType": "uint256",
          "name": "",
          "type": "uint256"
        }
      ],
      "stateMutability": "view",
      "type": "function"
    },
    {
      "inputs": [],
      "name": "getMinStake",
      "outputs": [
        {
          "internalType": "uint256",
          "name": "",
          "type": "uint256"
        }
      ],
      "stateMutability": "view",
      "type": "function"
    },
    {
      "inputs": [
        {
          "internalType": "address",
          "name": "",
          "type": "address"
        }
      ],
      "name": "getPendingRewards",
      "outputs": [
        {
          "internalType": "uint256",
          "name": "",
          "type": "uint256"
        }
      ],
      "stateMutability": "pure",
      "type": "function"
    },
    {
      "inputs": [
        {
          "internalType": "address",
          "name": "",
          "type": "address"
        }
      ],
      "name": "getUserStake",
      "outputs": [
        {
          "components": [
            {
              "internalType": "uint256",
              "name": "stakedAmount",
              "type": "uint256"
            },
            {
              "internalType": "uint256",
              "name": "sbftBalance",
              "type": "uint256"
            },
            {
              "internalType": "uint256",
              "name": "lastRewardTime",
              "type": "uint256"
            },
            {
              "internalType": "uint256",
              "name": "pendingRewards",
              "type": "uint256"
            },
            {
              "internalType": "uint256",
              "name": "unlockTime",
              "type": "uint256"
            },
            {
              "internalType": "uint256",
              "name": "lockPeriod",
              "type": "uint256"
            }
          ],
          "internalType": "struct StakingContract.StakeInfo",
          "name": "",
          "type": "tuple"
        }
      ],
      "stateMutability": "pure",
      "type": "function"
    },
    {
      "inputs": [
        {
          "internalType": "address",
          "name": "user",
          "type": "address"
        }
      ],
      "name": "getUserUnstakeRequests",
      "outputs": [
        {
          "internalType": "uint256[]",
          "name": "",
          "type": "uint256[]"
        }
      ],
      "stateMutability": "view",
      "type": "function"
    },
    {
      "inputs": [],
      "name": "lastRewardUpdate",
      "outputs": [
        {
          "internalType": "uint256",
          "name": "",
          "type": "uint256"
        }
      ],
      "stateMutability": "view",
      "type": "function"
    },
    {
      "inputs": [],
      "name": "masterNFT",
      "outputs": [
        {
          "internalType": "contract IStakeAndBakeNFT",
          "name": "",
          "type": "address"
        }
      ],
      "stateMutability": "view",
      "type": "function"
    },
    {
      "inputs": [],
      "name": "minStake",
      "outputs": [
        {
          "internalType": "uint256",
          "name": "",
          "type": "uint256"
        }
      ],
      "stateMutability": "view",
      "type": "function"
    },
    {
      "inputs": [],
      "name": "owner",
      "outputs": [
        {
          "internalType": "address",
          "name": "",
          "type": "address"
        }
      ],
      "stateMutability": "view",
      "type": "function"
    },
    {
      "inputs": [
        {
          "internalType": "uint256",
          "name": "requestId",
          "type": "uint256"
        }
      ],
      "name": "processUnstake",
      "outputs": [],
      "stateMutability": "nonpayable",
      "type": "function"
    },
    {
      "inputs": [],
      "name": "renounceOwnership",
      "outputs": [],
      "stateMutability": "nonpayable",
      "type": "function"
    },
    {
      "inputs": [
        {
          "internalType": "uint256",
          "name": "sbftAmount",
          "type": "uint256"
        }
      ],
      "name": "requestUnstake",
      "outputs": [],
      "stateMutability": "nonpayable",
      "type": "function"
    },
    {
      "inputs": [],
      "name": "sbftToken",
      "outputs": [
        {
          "internalType": "contract ISbFTToken",
          "name": "",
          "type": "address"
        }
      ],
      "stateMutability": "view",
      "type": "function"
    },
    {
      "inputs": [
        {
          "internalType": "address",
          "name": "_masterNFT",
          "type": "address"
        }
      ],
      "name": "setMasterNFT",
      "outputs": [],
      "stateMutability": "nonpayable",
      "type": "function"
    },
    {
      "inputs": [
        {
          "internalType": "uint256",
          "name": "_newMinStake",
          "type": "uint256"
        }
      ],
      "name": "setMinStake",
      "outputs": [],
      "stateMutability": "nonpayable",
      "type": "function"
    },
    {
      "inputs": [
        {
          "internalType": "uint256",
          "name": "_newDelay",
          "type": "uint256"
        }
      ],
      "name": "setUnstakingDelay",
      "outputs": [],
      "stateMutability": "nonpayable",
      "type": "function"
    },
    {
      "inputs": [
        {
          "internalType": "uint256",
          "name": "amount",
          "type": "uint256"
        }
      ],
      "name": "stake",
      "outputs": [],
      "stateMutability": "nonpayable",
      "type": "function"
    },
    {
      "inputs": [
        {
          "internalType": "address",
          "name": "",
          "type": "address"
        }
      ],
      "name": "stakes",
      "outputs": [
        {
          "internalType": "uint256",
          "name": "stakedAmount",
          "type": "uint256"
        },
        {
          "internalType": "uint256",
          "name": "sbftBalance",
          "type": "uint256"
        },
        {
          "internalType": "uint256",
          "name": "lastRewardTime",
          "type": "uint256"
        },
        {
          "internalType": "uint256",
          "name": "pendingRewards",
          "type": "uint256"
        },
        {
          "internalType": "uint256",
          "name": "unlockTime",
          "type": "uint256"
        },
        {
          "internalType": "uint256",
          "name": "lockPeriod",
          "type": "uint256"
        }
      ],
      "stateMutability": "view",
      "type": "function"
    },
    {
      "inputs": [],
      "name": "totalFeesCollected",
      "outputs": [
        {
          "internalType": "uint256",
          "name": "",
          "type": "uint256"
        }
      ],
      "stateMutability": "view",
      "type": "function"
    },
    {
      "inputs": [],
      "name": "totalPendingUnstakes",
      "outputs": [
        {
          "internalType": "uint256",
          "name": "",
          "type": "uint256"
        }
      ],
      "stateMutability": "view",
      "type": "function"
    },
    {
      "inputs": [],
      "name": "totalStaked",
      "outputs": [
        {
          "internalType": "uint256",
          "name": "",
          "type": "uint256"
        }
      ],
      "stateMutability": "view",
      "type": "function"
    },
    {
      "inputs": [],
      "name": "totalXFIInPool",
      "outputs": [
        {
          "internalType": "uint256",
          "name": "",
          "type": "uint256"
        }
      ],
      "stateMutability": "view",
      "type": "function"
    },
    {
      "inputs": [
        {
          "internalType": "address",
          "name": "newOwner",
          "type": "address"
        }
      ],
      "name": "transferOwnership",
      "outputs": [],
      "stateMutability": "nonpayable",
      "type": "function"
    },
    {
      "inputs": [
        {
          "internalType": "uint256",
          "name": "",
          "type": "uint256"
        }
      ],
      "name": "unstake",
      "outputs": [],
      "stateMutability": "pure",
      "type": "function"
    },
    {
      "inputs": [],
      "name": "unstakeRequestCount",
      "outputs": [
        {
          "internalType": "uint256",
          "name": "",
          "type": "uint256"
        }
      ],
      "stateMutability": "view",
      "type": "function"
    },
    {
      "inputs": [
        {
          "internalType": "uint256",
          "name": "",
          "type": "uint256"
        }
      ],
      "name": "unstakeRequests",
      "outputs": [
        {
          "internalType": "address",
          "name": "user",
          "type": "address"
        },
        {
          "internalType": "uint256",
          "name": "xfiAmount",
          "type": "uint256"
        },
        {
          "internalType": "uint256",
          "name": "unlockTime",
          "type": "uint256"
        },
        {
          "internalType": "bool",
          "name": "processed",
          "type": "bool"
        }
      ],
      "stateMutability": "view",
      "type": "function"
    },
    {
      "inputs": [],
      "name": "unstakingDelay",
      "outputs": [
        {
          "internalType": "uint256",
          "name": "",
          "type": "uint256"
        }
      ],
      "stateMutability": "view",
      "type": "function"
    },
    {
      "inputs": [
        {
          "internalType": "uint256",
          "name": "newRate",
          "type": "uint256"
        }
      ],
      "name": "updateRewardRate",
      "outputs": [],
      "stateMutability": "nonpayable",
      "type": "function"
    },
    {
      "inputs": [
        {
          "internalType": "address",
          "name": "",
          "type": "address"
        },
        {
          "internalType": "uint256",
          "name": "",
          "type": "uint256"
        }
      ],
      "name": "userUnstakeRequests",
      "outputs": [
        {
          "internalType": "uint256",
          "name": "",
          "type": "uint256"
        }
      ],
      "stateMutability": "view",
      "type": "function"
    },
    {
      "inputs": [],
      "name": "xfiToken",
      "outputs": [
        {
          "internalType": "contract IERC20",
          "name": "",
          "type": "address"
        }
      ],
      "stateMutability": "view",
      "type": "function"
    }
  ],
  "bytecode": "0x608060405262093a80600555610320600655670de0b6b3a764000060105534801561002957600080fd5b50604051612599380380612599833981016040819052610048916101b3565b338061006f57604051631e4fbdf760e01b8152600060048201526024015b60405180910390fd5b61007881610147565b50600180556001600160a01b0382166100c75760405162461bcd60e51b815260206004820152601160248201527024b73b30b634b2102c2324903a37b5b2b760791b6044820152606401610066565b6001600160a01b0381166101125760405162461bcd60e51b815260206004820152601260248201527124b73b30b634b21039b1232a103a37b5b2b760711b6044820152606401610066565b600280546001600160a01b039384166001600160a01b03199182161790915560038054929093169116179055426007556101e6565b600080546001600160a01b038381166001600160a01b0319831681178455604051919092169283917f8be0079c531659141344cd1fd0a4f28419497f9722a3daafe3b4186f6b6457e09190a35050565b80516001600160a01b03811681146101ae57600080fd5b919050565b600080604083850312156101c657600080fd5b6101cf83610197565b91506101dd60208401610197565b90509250929050565b6123a4806101f56000396000f3fe608060405234801561001057600080fd5b50600436106102a05760003560e01c806388f0d8bd11610167578063d4ceb8a8116100ce578063e724280a11610087578063e724280a146105e8578063f2fde38b146105fb578063f6ed20171461060e578063f87975af14610622578063fbee5f6214610690578063ffb0449c146106a357600080fd5b8063d4ceb8a814610598578063db2e21bc146105a0578063dfe6b5d6146105a8578063e1f1c4a7146105cc578063e6a69ab8146105d5578063e6aa216c146105e057600080fd5b8063a098e5eb11610120578063a098e5eb146104f3578063a3c2710d14610506578063a694fc3a1461050f578063bbadc93a14610522578063c00c9f7f14610581578063cb1c2b5c1461058957600080fd5b806388f0d8bd146104815780638c80fd90146104895780638da5cb5b1461049c57806397286879146104ad5780639ef3a261146104c05780639fbaec12146104d357600080fd5b806342b58a821161020b57806360c6d8ae116101c457806360c6d8ae1461042957806368bbf75714610432578063715018a61461043b578063817b1cd214610443578063836dfd5a1461044c57806385f4498b1461045457600080fd5b806342b58a82146103d557806349018e41146103e8578063540df83c146103f257806354c8dbcc1461040557806356a3b5fa146104185780635c58b0791461042057600080fd5b8063230957211161025d5780632309572114610378578063296124d21461038b5780632a0c6d2a1461039e5780632e17de78146103b1578063372500ab146103c4578063375b3c0a146103cc57600080fd5b806307089246146102a557806316934fc4146102c15780631715d015146103315780631afdbce41461033a5780631ec42dd3146103445780632296728d1461036f575b600080fd5b6102ae60055481565b6040519081526020015b60405180910390f35b6103046102cf3660046121ac565b600d60205260009081526040902080546001820154600283015460038401546004850154600590950154939492939192909186565b604080519687526020870195909552938501929092526060840152608083015260a082015260c0016102b8565b6102ae60065481565b6103426106ad565b005b600354610357906001600160a01b031681565b6040516001600160a01b0390911681526020016102b8565b6102ae600c5481565b6103426103863660046121ce565b6106b7565b6102ae6103993660046121e7565b6109ad565b6103426103ac3660046121ac565b6109de565b6103426103bf3660046121ce565b610a5e565b610342610ab8565b6102ae60105481565b6103426103e3366004612211565b610b30565b6102ae62278d0081565b6103426104003660046121ce565b610fdd565b6103426104133660046121ce565b611205565b6010546102ae565b6102ae60085481565b6102ae600f5481565b6102ae60095481565b6103426112d2565b6102ae600e5481565b6102ae606481565b61046a6104623660046121ac565b506000908190565b6040805192151583526020830191909152016102b8565b6102ae6112e4565b6103426104973660046121ce565b61137a565b6000546001600160a01b0316610357565b61046a6104bb3660046121ce565b611407565b6103426104ce3660046121ce565b6114b2565b6104e66104e13660046121ac565b61153a565b6040516102b89190612233565b600454610357906001600160a01b031681565b6102ae60075481565b61034261051d3660046121ce565b6115a6565b6105356105303660046121ac565b611a10565b6040516102b89190600060c082019050825182526020830151602083015260408301516040830152606083015160608301526080830151608083015260a083015160a083015292915050565b610342611a83565b6102ae670de0b6b3a764000081565b6005546102ae565b610342611ae5565b600854600f54600654604080519384526020840192909252908201526060016102b8565b6102ae61271081565b6102ae6301e1338081565b6102ae611c3d565b600254610357906001600160a01b031681565b6103426106093660046121ac565b611d53565b6102ae61061c3660046121ac565b50600090565b6106646106303660046121ce565b600a6020526000908152604090208054600182015460028301546003909301546001600160a01b0390921692909160ff1684565b604080516001600160a01b039095168552602085019390935291830152151560608201526080016102b8565b61034261069e3660046121ce565b611d8e565b6102ae6201518081565b6106b5612015565b565b6106bf6120e9565b600081116107145760405162461bcd60e51b815260206004820152601d60248201527f416d6f756e74206d7573742062652067726561746572207468616e203000000060448201526064015b60405180910390fd5b6003546040516370a0823160e01b815233600482015282916001600160a01b0316906370a0823190602401602060405180830381865afa15801561075c573d6000803e3d6000fd5b505050506040513d601f19601f820116820180604052508101906107809190612276565b10156107ca5760405162461bcd60e51b8152602060048201526019602482015278496e73756666696369656e7420736246542062616c616e636560381b604482015260640161070b565b6107d2612015565b60006107dc611c3d565b90506000670de0b6b3a76400006107f383856122a5565b6107fd91906122c2565b600354604051632770a7eb60e21b8152336004820152602481018690529192506001600160a01b031690639dc29fac90604401600060405180830381600087803b15801561084a57600080fd5b505af115801561085e573d6000803e3d6000fd5b5050600c805460009350915082610874836122e4565b91905055905060006005544261088a91906122fd565b604080516080810182523380825260208083018881528385018681526000606086018181528a8252600a8552878220965187546001600160a01b0319166001600160a01b0390911617875592516001808801919091559151600287015591516003909501805460ff191695151595909517909455918252600b81529281208054928301815581529182200184905560088054929350859290919061092f908490612310565b92505081905550826009600082825461094891906122fd565b9091555050600854600e5560408051838152602081018790529081018490526060810182905233907f5cdb0ac2436611d93815a98d07adbaf4a8cfdbd4aaf7cc40191b35945c3e769d9060800160405180910390a2505050506109aa60018055565b50565b600b60205281600052604060002081815481106109c957600080fd5b90600052602060002001600091509150505481565b6109e6612113565b6001600160a01b038116610a3c5760405162461bcd60e51b815260206004820152601a60248201527f496e76616c6964204d6173746572204e46542061646472657373000000000000604482015260640161070b565b600480546001600160a01b0319166001600160a01b0392909216919091179055565b60405162461bcd60e51b815260206004820152602960248201527f44657072656361746564202d207573652072657175657374556e7374616b65286044820152680a481a5b9cdd19585960ba1b606482015260840161070b565b60405162461bcd60e51b815260206004820152604160248201527f44657072656361746564202d207265776172647320617265206175746f6d617460448201527f6963207669612065786368616e6765207261746520617070726563696174696f6064820152603760f91b608482015260a40161070b565b610b386120e9565b60008211610b885760405162461bcd60e51b815260206004820152601d60248201527f416d6f756e74206d7573742062652067726561746572207468616e2030000000604482015260640161070b565b6003546040516370a0823160e01b815233600482015283916001600160a01b0316906370a0823190602401602060405180830381865afa158015610bd0573d6000803e3d6000fd5b505050506040513d601f19601f82011682018060405250810190610bf49190612276565b1015610c3e5760405162461bcd60e51b8152602060048201526019602482015278496e73756666696369656e7420736246542062616c616e636560381b604482015260640161070b565b611388811115610c905760405162461bcd60e51b815260206004820152601960248201527f50656e616c74792063616e6e6f74206578636565642035302500000000000000604482015260640161070b565b610c98612015565b6000610ca2611c3d565b90506000670de0b6b3a7640000610cb983866122a5565b610cc391906122c2565b90506000612710610cd485846122a5565b610cde91906122c2565b90506000610cec8284612310565b600354604051632770a7eb60e21b8152336004820152602481018990529192506001600160a01b031690639dc29fac90604401600060405180830381600087803b158015610d3957600080fd5b505af1158015610d4d573d6000803e3d6000fd5b505050508260086000828254610d639190612310565b9091555050600854600e55600f8054839190600090610d839084906122fd565b909155505060025460405163a9059cbb60e01b8152336004820152602481018390526001600160a01b039091169063a9059cbb906044016020604051808303816000875af1158015610dd9573d6000803e3d6000fd5b505050506040513d601f19601f82011682018060405250810190610dfd9190612323565b610e195760405162461bcd60e51b815260040161070b90612345565b6004546001600160a01b031615801590610e335750600082115b15610f5e576002546004805460405163a9059cbb60e01b81526001600160a01b0391821692810192909252602482018590529091169063a9059cbb906044016020604051808303816000875af1158015610e91573d6000803e3d6000fd5b505050506040513d601f19601f82011682018060405250810190610eb59190612323565b610f015760405162461bcd60e51b815260206004820152601760248201527f50656e616c7479207472616e73666572206661696c6564000000000000000000604482015260640161070b565b60048054604051636029bf9f60e01b81529182018490526001600160a01b031690636029bf9f90602401600060405180830381600087803b158015610f4557600080fd5b505af1158015610f59573d6000803e3d6000fd5b505050505b604080518281526020810188905233917f7fc4727e062e336010f2c282598ef5f14facb3de68cf8195c2f23e1454b2b74e910160405180910390a26040518281527fc472cb3a7a659a876494d66b3063145f279701771d6150b9329c31611ed6405c9060200160405180910390a150505050610fd960018055565b5050565b610fe56120e9565b600c54811061102b5760405162461bcd60e51b8152602060048201526012602482015271125b9d985b1a59081c995c5d595cdd08125160721b604482015260640161070b565b6000818152600a6020526040902080546001600160a01b031633146110855760405162461bcd60e51b815260206004820152601060248201526f139bdd081e5bdd5c881c995c5d595cdd60821b604482015260640161070b565b600381015460ff16156110ce5760405162461bcd60e51b8152602060048201526011602482015270105b1c9958591e481c1c9bd8d95cdcd959607a1b604482015260640161070b565b6110d6612015565b60006110e0611c3d565b90506000818360010154670de0b6b3a76400006110fd91906122a5565b61110791906122c2565b60038401805460ff191660019081179091558401546008805492935090916000906111339084906122fd565b909155505060018301546009805460009061114f908490612310565b9091555050600854600e556003546040516340c10f1960e01b8152336004820152602481018390526001600160a01b03909116906340c10f1990604401600060405180830381600087803b1580156111a657600080fd5b505af11580156111ba573d6000803e3d6000fd5b505060408051878152602081018590523393507fb8e4dceea536b6e6de2800876d709ca86533d9ac00cc7a9830206a84be9aef7592500160405180910390a25050506109aa60018055565b61120d612113565b620151808110156112525760405162461bcd60e51b815260206004820152600f60248201526e11195b185e481d1bdbc81cda1bdc9d608a1b604482015260640161070b565b62278d008111156112965760405162461bcd60e51b815260206004820152600e60248201526d44656c617920746f6f206c6f6e6760901b604482015260640161070b565b60058190556040518181527f4b678d69e1faabd1a390e01a90670fffc731574c2dc303e05d7cb33b52b20f42906020015b60405180910390a150565b6112da612113565b6106b56000612140565b6002546040516370a0823160e01b815230600482015260009182916001600160a01b03909116906370a0823190602401602060405180830381865afa158015611331573d6000803e3d6000fd5b505050506040513d601f19601f820116820180604052508101906113559190612276565b90506009548111611367576000611374565b6009546113749082612310565b91505090565b611382612113565b600081116113d25760405162461bcd60e51b815260206004820181905260248201527f4d696e207374616b65206d7573742062652067726561746572207468616e2030604482015260640161070b565b60108190556040518181527f47ab46f2c8d4258304a2f5551c1cbdb6981be49631365d1ba7191288a73f39ef906020016112c7565b600080600c54831061141e57506000928392509050565b6000838152600a6020908152604091829020825160808101845281546001600160a01b0316815260018201549281019290925260028101549282019290925260039091015460ff16158015606083015261147e5750600093849350915050565b80604001514210611496575060019360009350915050565b60004282604001516114a89190612310565b9250925050915091565b6114ba612113565b6107d08111156115055760405162461bcd60e51b8152602060048201526016602482015275526174652063616e6e6f74206578636565642032302560501b604482015260640161070b565b60068190556040518181527f41d466ebd06fb97e7786086ac8b69b7eb7da798592036251291d34e9791cde01906020016112c7565b6001600160a01b0381166000908152600b602090815260409182902080548351818402810184019094528084526060939283018282801561159a57602002820191906000526020600020905b815481526020019060010190808311611586575b50505050509050919050565b6115ae6120e9565b6010548110156116005760405162461bcd60e51b815260206004820152601a60248201527f416d6f756e742062656c6f77206d696e696d756d207374616b65000000000000604482015260640161070b565b6002546040516370a0823160e01b815233600482015282916001600160a01b0316906370a0823190602401602060405180830381865afa158015611648573d6000803e3d6000fd5b505050506040513d601f19601f8201168201806040525081019061166c9190612276565b10156116ba5760405162461bcd60e51b815260206004820152601860248201527f496e73756666696369656e74205846492062616c616e63650000000000000000604482015260640161070b565b6116c2612015565b60006127106116d26064846122a5565b6116dc91906122c2565b905060006116ea8284612310565b905060006116f6611c3d565b905060008161170d84670de0b6b3a76400006122a5565b61171791906122c2565b6002546040516323b872dd60e01b8152336004820152306024820152604481018890529192506001600160a01b0316906323b872dd906064016020604051808303816000875af115801561176f573d6000803e3d6000fd5b505050506040513d601f19601f820116820180604052508101906117939190612323565b6117af5760405162461bcd60e51b815260040161070b90612345565b82600860008282546117c191906122fd565b9091555050600854600e55600f80548591906000906117e19084906122fd565b90915550506003546040516340c10f1960e01b8152336004820152602481018390526001600160a01b03909116906340c10f1990604401600060405180830381600087803b15801561183257600080fd5b505af1158015611846573d6000803e3d6000fd5b50506004546001600160a01b0316158015925090506118655750600084115b15611986576002546004805460405163a9059cbb60e01b81526001600160a01b0391821692810192909252602482018790529091169063a9059cbb906044016020604051808303816000875af11580156118c3573d6000803e3d6000fd5b505050506040513d601f19601f820116820180604052508101906118e79190612323565b6119295760405162461bcd60e51b8152602060048201526013602482015272119959481d1c985b9cd9995c8819985a5b1959606a1b604482015260640161070b565b60048054604051636029bf9f60e01b81529182018690526001600160a01b031690636029bf9f90602401600060405180830381600087803b15801561196d57600080fd5b505af1158015611981573d6000803e3d6000fd5b505050505b60408051868152602081018390529081018590526060810183905233907f9cfd25589d1eb8ad71e342a86a8524e83522e3936c0803048c08f6d9ad974f409060800160405180910390a26040518481527fc472cb3a7a659a876494d66b3063145f279701771d6150b9329c31611ed6405c9060200160405180910390a1505050506109aa60018055565b611a496040518060c001604052806000815260200160008152602001600081526020016000815260200160008152602001600081525090565b6040518060c00160405280600081526020016000815260200160008152602001600081526020016000815260200160008152509050919050565b60405162461bcd60e51b815260206004820152603160248201527f44657072656361746564202d207265776172647320617265206175746f6d61746044820152701a58d85b1b1e4818dbdb5c1bdd5b991959607a1b606482015260840161070b565b611aed612113565b6002546040516370a0823160e01b81523060048201526000916001600160a01b0316906370a0823190602401602060405180830381865afa158015611b36573d6000803e3d6000fd5b505050506040513d601f19601f82011682018060405250810190611b5a9190612276565b6002549091506001600160a01b031663a9059cbb611b806000546001600160a01b031690565b6040516001600160e01b031960e084901b1681526001600160a01b039091166004820152602481018490526044016020604051808303816000875af1158015611bcd573d6000803e3d6000fd5b505050506040513d601f19601f82011682018060405250810190611bf19190612323565b6109aa5760405162461bcd60e51b815260206004820152601960248201527f456d657267656e6379207769746864726177206661696c656400000000000000604482015260640161070b565b600080600360009054906101000a90046001600160a01b03166001600160a01b03166318160ddd6040518163ffffffff1660e01b8152600401602060405180830381865afa158015611c93573d6000803e3d6000fd5b505050506040513d601f19601f82011682018060405250810190611cb79190612276565b905080600003611cd057670de0b6b3a764000091505090565b600060075442611ce09190612310565b90506000611cf46301e133806127106122a5565b82600654600854611d0591906122a5565b611d0f91906122a5565b611d1991906122c2565b9050600081600854611d2b91906122fd565b905083611d4082670de0b6b3a76400006122a5565b611d4a91906122c2565b94505050505090565b611d5b612113565b6001600160a01b038116611d8557604051631e4fbdf760e01b81526000600482015260240161070b565b6109aa81612140565b611d966120e9565b600c548110611ddc5760405162461bcd60e51b8152602060048201526012602482015271125b9d985b1a59081c995c5d595cdd08125160721b604482015260640161070b565b6000818152600a6020526040902080546001600160a01b03163314611e365760405162461bcd60e51b815260206004820152601060248201526f139bdd081e5bdd5c881c995c5d595cdd60821b604482015260640161070b565b600381015460ff1615611e7f5760405162461bcd60e51b8152602060048201526011602482015270105b1c9958591e481c1c9bd8d95cdcd959607a1b604482015260640161070b565b8060020154421015611ec25760405162461bcd60e51b815260206004820152600c60248201526b14dd1a5b1b081b1bd8dad95960a21b604482015260640161070b565b60038101805460ff1916600190811790915581015460098054600090611ee9908490612310565b9091555050600254600182015460405163a9059cbb60e01b815233600482015260248101919091526001600160a01b039091169063a9059cbb906044016020604051808303816000875af1158015611f45573d6000803e3d6000fd5b505050506040513d601f19601f82011682018060405250810190611f699190612323565b611f855760405162461bcd60e51b815260040161070b90612345565b600181015460405133917f8afe5678fa641d4c7b1e0e9f5c781e370d85a57d57e7aca780178762158d624391611fc391868252602082015260400190565b60405180910390a26001810154604080519182526000602083015233917f7fc4727e062e336010f2c282598ef5f14facb3de68cf8195c2f23e1454b2b74e910160405180910390a2506109aa60018055565b6008546000036120255742600755565b6000600754426120359190612310565b9050806000036120425750565b60006120546301e133806127106122a5565b8260065460085461206591906122a5565b61206f91906122a5565b61207991906122c2565b905080156120e157806008600082825461209391906122fd565b9091555050600854600e557fddb861ab0397f186ae24cb62cf18b57dd03b90f496ad8c13da1c4495cb1b5f76816120c8611c3d565b6040805192835260208301919091520160405180910390a15b505042600755565b60026001540361210c57604051633ee5aeb560e01b815260040160405180910390fd5b6002600155565b6000546001600160a01b031633146106b55760405163118cdaa760e01b815233600482015260240161070b565b600080546001600160a01b038381166001600160a01b0319831681178455604051919092169283917f8be0079c531659141344cd1fd0a4f28419497f9722a3daafe3b4186f6b6457e09190a35050565b80356001600160a01b03811681146121a757600080fd5b919050565b6000602082840312156121be57600080fd5b6121c782612190565b9392505050565b6000602082840312156121e057600080fd5b5035919050565b600080604083850312156121fa57600080fd5b61220383612190565b946020939093013593505050565b6000806040838503121561222457600080fd5b50508035926020909101359150565b602080825282518282018190526000918401906040840190835b8181101561226b57835183526020938401939092019160010161224d565b509095945050505050565b60006020828403121561228857600080fd5b5051919050565b634e487b7160e01b600052601160045260246000fd5b80820281158282048414176122bc576122bc61228f565b92915050565b6000826122df57634e487b7160e01b600052601260045260246000fd5b500490565b6000600182016122f6576122f661228f565b5060010190565b808201808211156122bc576122bc61228f565b818103818111156122bc576122bc61228f565b60006020828403121561233557600080fd5b815180151581146121c757600080fd5b6020808252600f908201526e151c985b9cd9995c8819985a5b1959608a1b60408201526060019056fea26469706673582212204ba298eaec712645ac4d82441942f691033557e48d8fbbb4f2818077f5285d5464736f6c634300081c0033",
  "linkReferences": {},
  "deployedLinkReferences": {}
}