{
  "_format": "hh-sol-artifact-1",
  "contractName": "SbFTBridgeFactory",
  "sourceName": "contracts/bridge/sbFTBridgeContract.sol",
  "abi": [
    {
      "inputs": [],
      "stateMutability": "nonpayable",
      "type": "constructor"
    },
    {
      "inputs": [
        {
          "internalType": "address",
          "name": "owner",
          "type": "address"
        }
      ],
      "name": "OwnableInvalidOwner",
      "type": "error"
    },
    {
      "inputs": [
        {
          "internalType": "address",
          "name": "account",
          "type": "address"
        }
      ],
      "name": "OwnableUnauthorizedAccount",
      "type": "error"
    },
    {
      "anonymous": false,
      "inputs": [
        {
          "indexed": true,
          "internalType": "address",
          "name": "bridge",
          "type": "address"
        },
        {
          "indexed": true,
          "internalType": "address",
          "name": "token",
          "type": "address"
        },
        {
          "indexed": false,
          "internalType": "bool",
          "name": "isSourceChain",
          "type": "bool"
        },
        {
          "indexed": true,
          "internalType": "uint32",
          "name": "chainId",
          "type": "uint32"
        }
      ],
      "name": "BridgeDeployed",
      "type": "event"
    },
    {
      "anonymous": false,
      "inputs": [
        {
          "indexed": true,
          "internalType": "address",
          "name": "previousOwner",
          "type": "address"
        },
        {
          "indexed": true,
          "internalType": "address",
          "name": "newOwner",
          "type": "address"
        }
      ],
      "name": "OwnershipTransferred",
      "type": "event"
    },
    {
      "inputs": [
        {
          "internalType": "address",
          "name": "_endpoint",
          "type": "address"
        },
        {
          "internalType": "string",
          "name": "_tokenName",
          "type": "string"
        },
        {
          "internalType": "string",
          "name": "_tokenSymbol",
          "type": "string"
        },
        {
          "internalType": "uint32",
          "name": "_chainId",
          "type": "uint32"
        }
      ],
      "name": "deployDestinationBridge",
      "outputs": [
        {
          "internalType": "address",
          "name": "bridge",
          "type": "address"
        },
        {
          "internalType": "address",
          "name": "wrappedToken",
          "type": "address"
        }
      ],
      "stateMutability": "nonpayable",
      "type": "function"
    },
    {
      "inputs": [
        {
          "internalType": "address",
          "name": "_endpoint",
          "type": "address"
        },
        {
          "internalType": "address",
          "name": "_sbftToken",
          "type": "address"
        },
        {
          "internalType": "uint32",
          "name": "_chainId",
          "type": "uint32"
        }
      ],
      "name": "deploySourceBridge",
      "outputs": [
        {
          "internalType": "address",
          "name": "bridge",
          "type": "address"
        }
      ],
      "stateMutability": "nonpayable",
      "type": "function"
    },
    {
      "inputs": [],
      "name": "owner",
      "outputs": [
        {
          "internalType": "address",
          "name": "",
          "type": "address"
        }
      ],
      "stateMutability": "view",
      "type": "function"
    },
    {
      "inputs": [],
      "name": "renounceOwnership",
      "outputs": [],
      "stateMutability": "nonpayable",
      "type": "function"
    },
    {
      "inputs": [
        {
          "internalType": "address",
          "name": "newOwner",
          "type": "address"
        }
      ],
      "name": "transferOwnership",
      "outputs": [],
      "stateMutability": "nonpayable",
      "type": "function"
    }
  ],
  "bytecode": "0x6080604052348015600f57600080fd5b503380603557604051631e4fbdf760e01b81526000600482015260240160405180910390fd5b603c816041565b506091565b600080546001600160a01b038381166001600160a01b0319831681178455604051919092169283917f8be0079c531659141344cd1fd0a4f28419497f9722a3daafe3b4186f6b6457e09190a35050565b614160806100a06000396000f3fe608060405234801561001057600080fd5b50600436106100575760003560e01c80633fcb55db1461005c5780635519d5c614610094578063715018a6146100bf5780638da5cb5b146100c9578063f2fde38b146100da575b600080fd5b61006f61006a36600461057a565b6100ed565b604080516001600160a01b039384168152929091166020830152015b60405180910390f35b6100a76100a2366004610604565b6102a0565b6040516001600160a01b03909116815260200161008b565b6100c76103b7565b005b6000546001600160a01b03166100a7565b6100c76100e8366004610647565b6103cb565b6000806100f861040e565b60008585336040516101099061048b565b610115939291906106af565b604051809103906000f080158015610131573d6000803e3d6000fd5b50905060008733600060405161014690610498565b6001600160a01b03938416815292909116602083015215156040820152606001604051809103906000f080158015610182573d6000803e3d6000fd5b50604051631352746960e11b81526001600160a01b038481166004830152919250908216906326a4e8d290602401600060405180830381600087803b1580156101ca57600080fd5b505af11580156101de573d6000803e3d6000fd5b505060405163059367b360e11b81526001600160a01b03848116600483015285169250630b26cf669150602401600060405180830381600087803b15801561022557600080fd5b505af1158015610239573d6000803e3d6000fd5b505050508463ffffffff16826001600160a01b0316826001600160a01b03167f960863fe7bc4ab9e6dcbde3e44e4c4472de2d6c010f67004cb9cf15ff6e6ded8600060405161028c911515815260200190565b60405180910390a497909650945050505050565b60006102aa61040e565b6000843360016040516102bc90610498565b6001600160a01b03938416815292909116602083015215156040820152606001604051809103906000f0801580156102f8573d6000803e3d6000fd5b50604051631352746960e11b81526001600160a01b038681166004830152919250908216906326a4e8d290602401600060405180830381600087803b15801561034057600080fd5b505af1158015610354573d6000803e3d6000fd5b505050508263ffffffff16846001600160a01b0316826001600160a01b03167f960863fe7bc4ab9e6dcbde3e44e4c4472de2d6c010f67004cb9cf15ff6e6ded860016040516103a7911515815260200190565b60405180910390a4949350505050565b6103bf61040e565b6103c9600061043b565b565b6103d361040e565b6001600160a01b03811661040257604051631e4fbdf760e01b8152600060048201526024015b60405180910390fd5b61040b8161043b565b50565b6000546001600160a01b031633146103c95760405163118cdaa760e01b81523360048201526024016103f9565b600080546001600160a01b038381166001600160a01b0319831681178455604051919092169283917f8be0079c531659141344cd1fd0a4f28419497f9722a3daafe3b4186f6b6457e09190a35050565b6110be806106ee83390190565b61297f806117ac83390190565b80356001600160a01b03811681146104bc57600080fd5b919050565b634e487b7160e01b600052604160045260246000fd5b600082601f8301126104e857600080fd5b813567ffffffffffffffff811115610502576105026104c1565b604051601f8201601f19908116603f0116810167ffffffffffffffff81118282101715610531576105316104c1565b60405281815283820160200185101561054957600080fd5b816020850160208301376000918101602001919091529392505050565b803563ffffffff811681146104bc57600080fd5b6000806000806080858703121561059057600080fd5b610599856104a5565b9350602085013567ffffffffffffffff8111156105b557600080fd5b6105c1878288016104d7565b935050604085013567ffffffffffffffff8111156105de57600080fd5b6105ea878288016104d7565b9250506105f960608601610566565b905092959194509250565b60008060006060848603121561061957600080fd5b610622846104a5565b9250610630602085016104a5565b915061063e60408501610566565b90509250925092565b60006020828403121561065957600080fd5b610662826104a5565b9392505050565b6000815180845260005b8181101561068f57602081850181015186830182015201610673565b506000602082860101526020601f19601f83011685010191505092915050565b6060815260006106c26060830186610669565b82810360208401526106d48186610669565b91505060018060a01b038316604083015294935050505056fe608060405234801561001057600080fd5b506040516110be3803806110be83398101604081905261002f91610199565b808383600361003e83826102ad565b50600461004b82826102ad565b5050506001600160a01b03811661007c57604051631e4fbdf760e01b81526000600482015260240160405180910390fd5b6100858161008e565b5050505061036b565b600580546001600160a01b038381166001600160a01b0319831681179093556040519116919082907f8be0079c531659141344cd1fd0a4f28419497f9722a3daafe3b4186f6b6457e090600090a35050565b634e487b7160e01b600052604160045260246000fd5b600082601f83011261010757600080fd5b81516001600160401b03811115610120576101206100e0565b604051601f8201601f19908116603f011681016001600160401b038111828210171561014e5761014e6100e0565b60405281815283820160200185101561016657600080fd5b60005b8281101561018557602081860181015183830182015201610169565b506000918101602001919091529392505050565b6000806000606084860312156101ae57600080fd5b83516001600160401b038111156101c457600080fd5b6101d0868287016100f6565b602086015190945090506001600160401b038111156101ee57600080fd5b6101fa868287016100f6565b604086015190935090506001600160a01b038116811461021957600080fd5b809150509250925092565b600181811c9082168061023857607f821691505b60208210810361025857634e487b7160e01b600052602260045260246000fd5b50919050565b601f8211156102a857806000526020600020601f840160051c810160208510156102855750805b601f840160051c820191505b818110156102a55760008155600101610291565b50505b505050565b81516001600160401b038111156102c6576102c66100e0565b6102da816102d48454610224565b8461025e565b6020601f82116001811461030e57600083156102f65750848201515b600019600385901b1c1916600184901b1784556102a5565b600084815260208120601f198516915b8281101561033e578785015182556020948501946001909201910161031e565b508482101561035c5786840151600019600387901b60f8161c191681555b50505050600190811b01905550565b610d448061037a6000396000f3fe608060405234801561001057600080fd5b506004361061010b5760003560e01c8063715018a6116100a2578063a9059cbb11610071578063a9059cbb1461021e578063cd59658314610231578063d4d7b19a14610244578063dd62ed3e1461026f578063f2fde38b146102a857600080fd5b8063715018a6146101d65780638da5cb5b146101de57806395d89b41146102035780639dc29fac1461020b57600080fd5b806323b872dd116100de57806323b872dd14610178578063313ce5671461018b57806340c10f191461019a57806370a08231146101ad57600080fd5b806306fdde0314610110578063095ea7b31461012e5780630b26cf661461015157806318160ddd14610166575b600080fd5b6101186102bb565b6040516101259190610b8d565b60405180910390f35b61014161013c366004610bf7565b61034d565b6040519015158152602001610125565b61016461015f366004610c21565b610367565b005b6002545b604051908152602001610125565b610141610186366004610c43565b610414565b60405160128152602001610125565b6101646101a8366004610bf7565b610438565b61016a6101bb366004610c21565b6001600160a01b031660009081526020819052604090205490565b610164610593565b6005546001600160a01b03165b6040516001600160a01b039091168152602001610125565b6101186105a7565b610164610219366004610bf7565b6105b6565b61014161022c366004610bf7565b610763565b6006546101eb906001600160a01b031681565b610141610252366004610c21565b6001600160a01b0316600090815260208190526040902054151590565b61016a61027d366004610c80565b6001600160a01b03918216600090815260016020908152604080832093909416825291909152205490565b6101646102b6366004610c21565b610771565b6060600380546102ca90610cb3565b80601f01602080910402602001604051908101604052809291908181526020018280546102f690610cb3565b80156103435780601f1061031857610100808354040283529160200191610343565b820191906000526020600020905b81548152906001019060200180831161032657829003601f168201915b5050505050905090565b60003361035b8185856107af565b60019150505b92915050565b61036f6107c1565b6001600160a01b0381166103ca5760405162461bcd60e51b815260206004820152601760248201527f496e76616c69642062726964676520636f6e747261637400000000000000000060448201526064015b60405180910390fd5b600680546001600160a01b0319166001600160a01b0383169081179091556040517fad098d6e912c08ed9aa3ee6ca9529da44a959d4c6251c6b8b088af216c1e350690600090a250565b6000336104228582856107ee565b61042d85858561086d565b506001949350505050565b6006546001600160a01b031633146104925760405162461bcd60e51b815260206004820152601d60248201527f4f6e6c792062726964676520636f6e74726163742063616e206d696e7400000060448201526064016103c1565b6001600160a01b0382166104e85760405162461bcd60e51b815260206004820152601b60248201527f43616e6e6f74206d696e7420746f207a65726f2061646472657373000000000060448201526064016103c1565b600081116105385760405162461bcd60e51b815260206004820152601d60248201527f416d6f756e74206d7573742062652067726561746572207468616e203000000060448201526064016103c1565b61054282826108cc565b816001600160a01b03167f2e8ac5177a616f2aec08c3048f5021e4e9743ece034e8d83ba5caf76688bb4758261057760025490565b6040805192835260208301919091520160405180910390a25050565b61059b6107c1565b6105a56000610906565b565b6060600480546102ca90610cb3565b6006546001600160a01b031633146106105760405162461bcd60e51b815260206004820152601d60248201527f4f6e6c792062726964676520636f6e74726163742063616e206275726e00000060448201526064016103c1565b6001600160a01b0382166106665760405162461bcd60e51b815260206004820152601d60248201527f43616e6e6f74206275726e2066726f6d207a65726f206164647265737300000060448201526064016103c1565b600081116106b65760405162461bcd60e51b815260206004820152601d60248201527f416d6f756e74206d7573742062652067726561746572207468616e203000000060448201526064016103c1565b806106d6836001600160a01b031660009081526020819052604090205490565b10156107245760405162461bcd60e51b815260206004820152601c60248201527f496e73756666696369656e742062616c616e636520746f206275726e0000000060448201526064016103c1565b61072e8282610958565b816001600160a01b03167fccbea4088a3b7ae9ca2d15fab9a9742a4075b4d7247768a1eecea917565aba008261057760025490565b60003361035b81858561086d565b6107796107c1565b6001600160a01b0381166107a357604051631e4fbdf760e01b8152600060048201526024016103c1565b6107ac81610906565b50565b6107bc838383600161098e565b505050565b6005546001600160a01b031633146105a55760405163118cdaa760e01b81523360048201526024016103c1565b6001600160a01b03838116600090815260016020908152604080832093861683529290522054600019811015610867578181101561085857604051637dc7a0d960e11b81526001600160a01b038416600482015260248101829052604481018390526064016103c1565b6108678484848403600061098e565b50505050565b6001600160a01b03831661089757604051634b637e8f60e11b8152600060048201526024016103c1565b6001600160a01b0382166108c15760405163ec442f0560e01b8152600060048201526024016103c1565b6107bc838383610a63565b6001600160a01b0382166108f65760405163ec442f0560e01b8152600060048201526024016103c1565b61090260008383610a63565b5050565b600580546001600160a01b038381166001600160a01b0319831681179093556040519116919082907f8be0079c531659141344cd1fd0a4f28419497f9722a3daafe3b4186f6b6457e090600090a35050565b6001600160a01b03821661098257604051634b637e8f60e11b8152600060048201526024016103c1565b61090282600083610a63565b6001600160a01b0384166109b85760405163e602df0560e01b8152600060048201526024016103c1565b6001600160a01b0383166109e257604051634a1406b160e11b8152600060048201526024016103c1565b6001600160a01b038085166000908152600160209081526040808320938716835292905220829055801561086757826001600160a01b0316846001600160a01b03167f8c5be1e5ebec7d5bd14f71427d1e84f3dd0314c0f7b2291e5b200ac8c7c3b92584604051610a5591815260200190565b60405180910390a350505050565b6001600160a01b038316610a8e578060026000828254610a839190610ced565b90915550610b009050565b6001600160a01b03831660009081526020819052604090205481811015610ae15760405163391434e360e21b81526001600160a01b038516600482015260248101829052604481018390526064016103c1565b6001600160a01b03841660009081526020819052604090209082900390555b6001600160a01b038216610b1c57600280548290039055610b3b565b6001600160a01b03821660009081526020819052604090208054820190555b816001600160a01b0316836001600160a01b03167fddf252ad1be2c89b69c2b068fc378daa952ba7f163c4a11628f55a4df523b3ef83604051610b8091815260200190565b60405180910390a3505050565b602081526000825180602084015260005b81811015610bbb5760208186018101516040868401015201610b9e565b506000604082850101526040601f19601f83011684010191505092915050565b80356001600160a01b0381168114610bf257600080fd5b919050565b60008060408385031215610c0a57600080fd5b610c1383610bdb565b946020939093013593505050565b600060208284031215610c3357600080fd5b610c3c82610bdb565b9392505050565b600080600060608486031215610c5857600080fd5b610c6184610bdb565b9250610c6f60208501610bdb565b929592945050506040919091013590565b60008060408385031215610c9357600080fd5b610c9c83610bdb565b9150610caa60208401610bdb565b90509250929050565b600181811c90821680610cc757607f821691505b602082108103610ce757634e487b7160e01b600052602260045260246000fd5b50919050565b8082018082111561036157634e487b7160e01b600052601160045260246000fdfea26469706673582212200a1a685712fe0b23bf597f0d99db3c4a8ee4bd7ccd1404bd05f2d0426630865664736f6c634300081c003360a06040526064600655600b805460ff1916905534801561001f57600080fd5b5060405161297f38038061297f83398101604081905261003e916101a1565b82828181806001600160a01b03811661007157604051631e4fbdf760e01b81526000600482015260240160405180910390fd5b61007a81610135565b506001600160a01b0380831660805281166100a857604051632d618d8160e21b815260040160405180910390fd5b60805160405163ca5eb5e160e01b81526001600160a01b0383811660048301529091169063ca5eb5e190602401600060405180830381600087803b1580156100ef57600080fd5b505af1158015610103573d6000803e3d6000fd5b50506001600355505060058054951515600160a01b0260ff60a01b1990961695909517909455506101ed945050505050565b600080546001600160a01b038381166001600160a01b0319831681178455604051919092169283917f8be0079c531659141344cd1fd0a4f28419497f9722a3daafe3b4186f6b6457e09190a35050565b80516001600160a01b038116811461019c57600080fd5b919050565b6000806000606084860312156101b657600080fd5b6101bf84610185565b92506101cd60208501610185565b9150604084015180151581146101e257600080fd5b809150509250925092565b60805161274d6102326000396000818161042e015281816106ec015281816112bd015281816116b7015281816117d201528181611aa10152611b58015261274d6000f3fe60806040526004361061020f5760003560e01c80637dd0480f11610118578063b98bd070116100a0578063e1f1c4a71161006f578063e1f1c4a71461065d578063e3c374b814610673578063f071db5a14610694578063f2fde38b146106aa578063ff7bd03d146106ca57600080fd5b8063b98bd070146105d0578063bb0b6a53146105f0578063bc70b3541461061d578063ca5eb5e11461063d57600080fd5b806388ba16ab116100e757806388ba16ab146105425780638a5d5fec146105725780638da5cb5b14610587578063a3c2c462146105a5578063a82f143c146105bb57600080fd5b80637dd0480f146104db57806382413eac146104f057806382b12dd714610510578063886688c11461052657600080fd5b80632b361d371161019b5780635e280f111161016a5780635e280f111461041c57806367a1791a146104505780636ccf20d514610474578063715018a61461048e5780637d25a05e146104a357600080fd5b80632b361d371461038f5780633400288b146103af5780635535d461146103cf5780635a1c0366146103fc57600080fd5b80631ec42dd3116101e25780631ec42dd3146102b85780632165cbb7146102f0578063222a544c1461032157806326a4e8d2146103345780632b0f638c1461035457600080fd5b80630f7ccaf01461021457806313137d651461024157806317442b70146102565780631bd31ef614610278575b600080fd5b34801561022057600080fd5b50610229600181565b60405161ffff90911681526020015b60405180910390f35b61025461024f366004611cf5565b6106ea565b005b34801561026257600080fd5b5060408051600181526002602082015201610238565b34801561028457600080fd5b506102a8610293366004611d96565b60009081526007602052604090205460ff1690565b6040519015158152602001610238565b3480156102c457600080fd5b506004546102d8906001600160a01b031681565b6040516001600160a01b039091168152602001610238565b3480156102fc57600080fd5b50600854600954600a5460408051938452602084019290925290820152606001610238565b61025461032f366004611dc8565b6107aa565b34801561034057600080fd5b5061025461034f366004611e21565b610d14565b34801561036057600080fd5b5061037461036f366004611e45565b610e08565b60408051825181526020928301519281019290925201610238565b34801561039b57600080fd5b506005546102d8906001600160a01b031681565b3480156103bb57600080fd5b506102546103ca366004611ebb565b610edc565b3480156103db57600080fd5b506103ef6103ea366004611ef7565b610ef2565b6040516102389190611f7a565b34801561040857600080fd5b50610254610417366004611d96565b610f97565b34801561042857600080fd5b506102d87f000000000000000000000000000000000000000000000000000000000000000081565b34801561045c57600080fd5b5061046660085481565b604051908152602001610238565b34801561048057600080fd5b50600b546102a89060ff1681565b34801561049a57600080fd5b50610254611025565b3480156104af57600080fd5b506104c36104be366004611ebb565b611039565b6040516001600160401b039091168152602001610238565b3480156104e757600080fd5b50610254611042565b3480156104fc57600080fd5b506102a861050b366004611f8d565b611082565b34801561051c57600080fd5b5061046660065481565b34801561053257600080fd5b50610466670de0b6b3a764000081565b34801561054e57600080fd5b506102a861055d366004611d96565b60076020526000908152604090205460ff1681565b34801561057e57600080fd5b50610229600281565b34801561059357600080fd5b506000546001600160a01b03166102d8565b3480156105b157600080fd5b5061046660095481565b3480156105c757600080fd5b50610254611097565b3480156105dc57600080fd5b506102546105eb366004611ff3565b6110d4565b3480156105fc57600080fd5b5061046661060b366004612068565b60016020526000908152604090205481565b34801561062957600080fd5b506103ef610638366004612083565b6110ee565b34801561064957600080fd5b50610254610658366004611e21565b611296565b34801561066957600080fd5b5061046661271081565b34801561067f57600080fd5b506005546102a890600160a01b900460ff1681565b3480156106a057600080fd5b50610466600a5481565b3480156106b657600080fd5b506102546106c5366004611e21565b61131c565b3480156106d657600080fd5b506102a86106e53660046120cb565b61135a565b7f00000000000000000000000000000000000000000000000000000000000000006001600160a01b0316331461073a576040516391ac5e4f60e01b81523360048201526024015b60405180910390fd5b602087018035906107549061074f908a612068565b611390565b14610792576107666020880188612068565b60405163309afaf360e21b815263ffffffff909116600482015260208801356024820152604401610731565b6107a1878787878787876113cc565b50505050505050565b6107b261165a565b600b5460ff16156107f85760405162461bcd60e51b815260206004820152601060248201526f109c9a5919d9481a5cc81c185d5cd95960821b6044820152606401610731565b670de0b6b3a76400008310156108475760405162461bcd60e51b8152602060048201526014602482015273416d6f756e742062656c6f77206d696e696d756d60601b6044820152606401610731565b63ffffffff84166000908152600160205260409020546108a95760405162461bcd60e51b815260206004820152601a60248201527f44657374696e6174696f6e206e6f7420636f6e666967757265640000000000006044820152606401610731565b6005548390600090600160a01b900460ff1615610a8a576004546001600160a01b031661090d5760405162461bcd60e51b81526020600482015260126024820152711cd89195081d1bdad95b881b9bdd081cd95d60721b6044820152606401610731565b600480546040516370a0823160e01b8152339281019290925286916001600160a01b03909116906370a0823190602401602060405180830381865afa15801561095a573d6000803e3d6000fd5b505050506040513d601f19601f8201168201806040525081019061097e91906120e7565b10156109c35760405162461bcd60e51b8152602060048201526014602482015273496e73756666696369656e742062616c616e636560601b6044820152606401610731565b612710600654866109d49190612116565b6109de919061212d565b90506109ea818661214f565b60048054604051632770a7eb60e21b81523392810192909252602482018890529193506001600160a01b0390911690639dc29fac90604401600060405180830381600087803b158015610a3c57600080fd5b505af1158015610a50573d6000803e3d6000fd5b505050508460086000828254610a669190612162565b9250508190555080600a6000828254610a7f9190612162565b90915550610bf09050565b6005546001600160a01b0316610ada5760405162461bcd60e51b815260206004820152601560248201527415dc985c1c1959081d1bdad95b881b9bdd081cd95d605a1b6044820152606401610731565b6005546040516370a0823160e01b815233600482015286916001600160a01b0316906370a0823190602401602060405180830381865afa158015610b22573d6000803e3d6000fd5b505050506040513d601f19601f82011682018060405250810190610b4691906120e7565b1015610b8b5760405162461bcd60e51b8152602060048201526014602482015273496e73756666696369656e742062616c616e636560601b6044820152606401610731565b600554604051632770a7eb60e21b8152336004820152602481018790526001600160a01b0390911690639dc29fac90604401600060405180830381600087803b158015610bd757600080fd5b505af1158015610beb573d6000803e3d6000fd5b505050505b6040516bffffffffffffffffffffffff193360601b1660208201526034810186905242605482015243607482015260009060940160408051601f198184030181528282528051602091820120339184019190915290820185905260608201819052915060009060800160405160208183030381529060405290506000600560149054906101000a900460ff16610c87576002610c8a565b60015b9050610cb98983610c9d8c858c8c6110ee565b6040518060400160405280348152602001600081525033611684565b506040805189815260208101869052849163ffffffff8c169133917f31df956c3b8a383361ed8eec51d4bbe93275da01e3bf7a61135e9045274b06a1910160405180910390a45050505050610d0e6001600355565b50505050565b610d1c61178f565b6001600160a01b038116610d6a5760405162461bcd60e51b8152602060048201526015602482015274496e76616c696420746f6b656e206164647265737360581b6044820152606401610731565b600554600160a01b900460ff1615610d9c57600480546001600160a01b0319166001600160a01b038316179055610db8565b600580546001600160a01b0319166001600160a01b0383161790555b600554604051600160a01b90910460ff16151581526001600160a01b038216907f105d893190417ed7090e9e59c22d9cfead8e1c0da7f67524248d42312aa865ae9060200160405180910390a250565b60408051808201909152600080825260208201526040516bffffffffffffffffffffffff193360601b1660208201526034810186905242605482015260009060740160408051601f198184030181528282528051602091820120339184019190915290820188905260608201819052915060009060800160405160208183030381529060405290506000600560149054906101000a900460ff16610ead576002610eb0565b60015b90506000610ec08a838a8a6110ee565b9050610ece8a8483896117bc565b9a9950505050505050505050565b610ee461178f565b610eee828261189d565b5050565b600260209081526000928352604080842090915290825290208054610f1690612175565b80601f0160208091040260200160405190810160405280929190818152602001828054610f4290612175565b8015610f8f5780601f10610f6457610100808354040283529160200191610f8f565b820191906000526020600020905b815481529060010190602001808311610f7257829003601f168201915b505050505081565b610f9f61178f565b6103e8811115610fe95760405162461bcd60e51b81526020600482015260156024820152744665652063616e6e6f74206578636565642031302560581b6044820152606401610731565b60068190556040518181527f42dfb00d085d601e55327921154ae76c1b24270b026c5a0c51caee18eb4c401f906020015b60405180910390a150565b61102d61178f565b61103760006118f2565b565b60005b92915050565b61104a61178f565b600b805460ff191660011790556040517fa792dfa3fb24493cee8b0e7ac02691be17dc3a12379ad382ad5d670c9736167390600090a1565b6001600160a01b03811630145b949350505050565b61109f61178f565b600b805460ff191690556040517f8c9a6f4b5a3a5753cc4d30f9ee061684c79bc450c355fc09e79317cfa2195f3190600090a1565b6110dc61178f565b610eee6110e98284612217565b611942565b63ffffffff8416600090815260026020908152604080832061ffff8716845290915281208054606092919061112290612175565b80601f016020809104026020016040519081016040528092919081815260200182805461114e90612175565b801561119b5780601f106111705761010080835404028352916020019161119b565b820191906000526020600020905b81548152906001019060200180831161117e57829003601f168201915b5050505050905080516000036111eb5783838080601f01602080910402602001604051908101604052809392919081815260200183838082843760009201919091525092945061108f9350505050565b60008390036111fb57905061108f565b600283106112795761124284848080601f016020809104026020016040519081016040528093929190818152602001838380828437600092019190915250611a4992505050565b806112508460028188612359565b60405160200161126293929190612383565b60405160208183030381529060405291505061108f565b8383604051639a6d49cd60e01b81526004016107319291906123ab565b61129e61178f565b60405163ca5eb5e160e01b81526001600160a01b0382811660048301527f0000000000000000000000000000000000000000000000000000000000000000169063ca5eb5e190602401600060405180830381600087803b15801561130157600080fd5b505af1158015611315573d6000803e3d6000fd5b5050505050565b61132461178f565b6001600160a01b03811661134e57604051631e4fbdf760e01b815260006004820152602401610731565b611357816118f2565b50565b60006020820180359060019083906113729086612068565b63ffffffff1681526020810191909152604001600020541492915050565b63ffffffff81166000908152600160205260408120548061103c5760405163f6ff4fb760e01b815263ffffffff84166004820152602401610731565b600080806113dc878901896123da565b600081815260076020526040902054929550909350915060ff16156114435760405162461bcd60e51b815260206004820152601960248201527f4d65737361676520616c72656164792070726f636573736564000000000000006044820152606401610731565b6000818152600760205260409020805460ff19166001179055600554600160a01b900460ff1615611528576004546001600160a01b03166114bb5760405162461bcd60e51b81526020600482015260126024820152711cd89195081d1bdad95b881b9bdd081cd95d60721b6044820152606401610731565b600480546040516340c10f1960e01b81526001600160a01b0386811693820193909352602481018590529116906340c10f1990604401600060405180830381600087803b15801561150b57600080fd5b505af115801561151f573d6000803e3d6000fd5b505050506115df565b6005546001600160a01b03166115785760405162461bcd60e51b815260206004820152601560248201527415dc985c1c1959081d1bdad95b881b9bdd081cd95d605a1b6044820152606401610731565b6005546040516340c10f1960e01b81526001600160a01b03858116600483015260248201859052909116906340c10f1990604401600060405180830381600087803b1580156115c657600080fd5b505af11580156115da573d6000803e3d6000fd5b505050505b81600960008282546115f19190612162565b9091555081905061160560208c018c612068565b63ffffffff16846001600160a01b03167f25af65541baca45fc26d0b9ae97cee5ad22128a47b5852290a2f324847e33fe08560405161164691815260200190565b60405180910390a450505050505050505050565b60026003540361167d57604051633ee5aeb560e01b815260040160405180910390fd5b6002600355565b61168c611c39565b600061169b8460000151611a75565b6020850151909150156116b5576116b58460200151611a9d565b7f00000000000000000000000000000000000000000000000000000000000000006001600160a01b0316632637a450826040518060a001604052808b63ffffffff1681526020016117058c611390565b81526020018a815260200189815260200160008960200151111515815250866040518463ffffffff1660e01b815260040161174192919061240f565b60806040518083038185885af115801561175f573d6000803e3d6000fd5b50505050506040513d601f19601f8201168201806040525081019061178491906124d6565b979650505050505050565b6000546001600160a01b031633146110375760405163118cdaa760e01b8152336004820152602401610731565b60408051808201909152600080825260208201527f00000000000000000000000000000000000000000000000000000000000000006001600160a01b031663ddc28c586040518060a001604052808863ffffffff16815260200161181f89611390565b8152602001878152602001868152602001851515815250306040518363ffffffff1660e01b815260040161185492919061240f565b6040805180830381865afa158015611870573d6000803e3d6000fd5b505050506040513d601f19601f82011682018060405250810190611894919061252e565b95945050505050565b63ffffffff8216600081815260016020908152604091829020849055815192835282018390527f238399d427b947898edb290f5ff0f9109849b1c3ba196a42e35f00c50a54b98b910160405180910390a15050565b600080546001600160a01b038381166001600160a01b0319831681178455604051919092169283917f8be0079c531659141344cd1fd0a4f28419497f9722a3daafe3b4186f6b6457e09190a35050565b60005b8151811015611a19576119748282815181106119635761196361254a565b602002602001015160400151611a49565b8181815181106119865761198661254a565b602002602001015160400151600260008484815181106119a8576119a861254a565b60200260200101516000015163ffffffff1663ffffffff16815260200190815260200160002060008484815181106119e2576119e261254a565b60200260200101516020015161ffff1661ffff1681526020019081526020016000209081611a1091906125ac565b50600101611945565b507fbe4864a8e820971c0247f5992e2da559595f7bf076a21cb5928d443d2a13b6748160405161101a919061266a565b600281015161ffff8116600314610eee5781604051639a6d49cd60e01b81526004016107319190611f7a565b6000813414611a99576040516304fb820960e51b8152346004820152602401610731565b5090565b60007f00000000000000000000000000000000000000000000000000000000000000006001600160a01b031663e4fe1d946040518163ffffffff1660e01b8152600401602060405180830381865afa158015611afd573d6000803e3d6000fd5b505050506040513d601f19601f82011682018060405250810190611b2191906126fa565b90506001600160a01b038116611b4a576040516329b99a9560e11b815260040160405180910390fd5b6040805133602482018190527f00000000000000000000000000000000000000000000000000000000000000006001600160a01b0381811660448501526064808501889052855180860390910181526084909401909452602080840180516001600160e01b03166323b872dd60e01b1781528451610eee968816958993610d0e93889360009283929091839182885af180611beb576040513d6000823e3d81fd5b50506000513d91508115611c03578060011415611c10565b6001600160a01b0384163b155b15610d0e57604051635274afe760e01b81526001600160a01b0385166004820152602401610731565b60405180606001604052806000801916815260200160006001600160401b03168152602001611c7b604051806040016040528060008152602001600081525090565b905290565b600060608284031215611c9257600080fd5b50919050565b60008083601f840112611caa57600080fd5b5081356001600160401b03811115611cc157600080fd5b602083019150836020828501011115611cd957600080fd5b9250929050565b6001600160a01b038116811461135757600080fd5b600080600080600080600060e0888a031215611d1057600080fd5b611d1a8989611c80565b96506060880135955060808801356001600160401b03811115611d3c57600080fd5b611d488a828b01611c98565b90965094505060a0880135611d5c81611ce0565b925060c08801356001600160401b03811115611d7757600080fd5b611d838a828b01611c98565b989b979a50959850939692959293505050565b600060208284031215611da857600080fd5b5035919050565b803563ffffffff81168114611dc357600080fd5b919050565b60008060008060608587031215611dde57600080fd5b611de785611daf565b93506020850135925060408501356001600160401b03811115611e0957600080fd5b611e1587828801611c98565b95989497509550505050565b600060208284031215611e3357600080fd5b8135611e3e81611ce0565b9392505050565b600080600080600060808688031215611e5d57600080fd5b611e6686611daf565b94506020860135935060408601356001600160401b03811115611e8857600080fd5b611e9488828901611c98565b90945092505060608601358015158114611ead57600080fd5b809150509295509295909350565b60008060408385031215611ece57600080fd5b611ed783611daf565b946020939093013593505050565b803561ffff81168114611dc357600080fd5b60008060408385031215611f0a57600080fd5b611f1383611daf565b9150611f2160208401611ee5565b90509250929050565b60005b83811015611f45578181015183820152602001611f2d565b50506000910152565b60008151808452611f66816020860160208601611f2a565b601f01601f19169290920160200192915050565b602081526000611e3e6020830184611f4e565b60008060008060a08587031215611fa357600080fd5b611fad8686611c80565b935060608501356001600160401b03811115611fc857600080fd5b611fd487828801611c98565b9094509250506080850135611fe881611ce0565b939692955090935050565b6000806020838503121561200657600080fd5b82356001600160401b0381111561201c57600080fd5b8301601f8101851361202d57600080fd5b80356001600160401b0381111561204357600080fd5b8560208260051b840101111561205857600080fd5b6020919091019590945092505050565b60006020828403121561207a57600080fd5b611e3e82611daf565b6000806000806060858703121561209957600080fd5b6120a285611daf565b93506120b060208601611ee5565b925060408501356001600160401b03811115611e0957600080fd5b6000606082840312156120dd57600080fd5b611e3e8383611c80565b6000602082840312156120f957600080fd5b5051919050565b634e487b7160e01b600052601160045260246000fd5b808202811582820484141761103c5761103c612100565b60008261214a57634e487b7160e01b600052601260045260246000fd5b500490565b8181038181111561103c5761103c612100565b8082018082111561103c5761103c612100565b600181811c9082168061218957607f821691505b602082108103611c9257634e487b7160e01b600052602260045260246000fd5b634e487b7160e01b600052604160045260246000fd5b604051606081016001600160401b03811182821017156121e1576121e16121a9565b60405290565b604051601f8201601f191681016001600160401b038111828210171561220f5761220f6121a9565b604052919050565b60006001600160401b03831115612230576122306121a9565b8260051b612240602082016121e7565b8481529083019060208101903683111561225957600080fd5b845b8381101561234f5780356001600160401b0381111561227957600080fd5b8601606036829003121561228c57600080fd5b6122946121bf565b61229d82611daf565b81526122ab60208301611ee5565b602082015260408201356001600160401b038111156122c957600080fd5b919091019036601f8301126122dd57600080fd5b81356001600160401b038111156122f6576122f66121a9565b612309601f8201601f19166020016121e7565b81815236602083860101111561231e57600080fd5b816020850160208301376000602083830101528060408401525050808552505060208301925060208101905061225b565b5095945050505050565b6000808585111561236957600080fd5b8386111561237657600080fd5b5050820193919092039150565b60008451612395818460208901611f2a565b8201838582376000930192835250909392505050565b60208152816020820152818360408301376000818301604090810191909152601f909201601f19160101919050565b6000806000606084860312156123ef57600080fd5b83356123fa81611ce0565b95602085013595506040909401359392505050565b6040815263ffffffff8351166040820152602083015160608201526000604084015160a0608084015261244560e0840182611f4e565b90506060850151603f198483030160a08501526124628282611f4e565b60809690960151151560c08501525050506001600160a01b039190911660209091015290565b60006040828403121561249a57600080fd5b604080519081016001600160401b03811182821017156124bc576124bc6121a9565b604052825181526020928301519281019290925250919050565b600060808284031280156124e957600080fd5b506124f26121bf565b8251815260208301516001600160401b038116811461251057600080fd5b60208201526125228460408501612488565b60408201529392505050565b60006040828403121561254057600080fd5b611e3e8383612488565b634e487b7160e01b600052603260045260246000fd5b601f8211156125a757806000526020600020601f840160051c810160208510156125875750805b601f840160051c820191505b818110156113155760008155600101612593565b505050565b81516001600160401b038111156125c5576125c56121a9565b6125d9816125d38454612175565b84612560565b6020601f82116001811461260d57600083156125f55750848201515b600019600385901b1c1916600184901b178455611315565b600084815260208120601f198516915b8281101561263d578785015182556020948501946001909201910161261d565b508482101561265b5786840151600019600387901b60f8161c191681555b50505050600190811b01905550565b6000602082016020835280845180835260408501915060408160051b86010192506020860160005b828110156126ee57603f19878603018452815163ffffffff815116865261ffff602082015116602087015260408101519050606060408701526126d86060870182611f4e565b9550506020938401939190910190600101612692565b50929695505050505050565b60006020828403121561270c57600080fd5b8151611e3e81611ce056fea26469706673582212206af46d0ab968822b09efce5b46a4ef6063ce73f9e52e6359188f159112a9bbaf64736f6c634300081c0033a26469706673582212203adb3b1d406c7a969ead871b50546bee6cd4fdae66dd3d291af8042594c8bda364736f6c634300081c0033",
  "linkReferences": {},
  "deployedLinkReferences": {}
}