{
  "_format": "hh-sol-artifact-1",
  "contractName": "VotingContract",
  "sourceName": "contracts/governance/VotingContract.sol",
  "abi": [
    {
      "inputs": [
        {
          "internalType": "address",
          "name": "_sbftToken",
          "type": "address"
        }
      ],
      "stateMutability": "nonpayable",
      "type": "constructor"
    },
    {
      "inputs": [
        {
          "internalType": "address",
          "name": "owner",
          "type": "address"
        }
      ],
      "name": "OwnableInvalidOwner",
      "type": "error"
    },
    {
      "inputs": [
        {
          "internalType": "address",
          "name": "account",
          "type": "address"
        }
      ],
      "name": "OwnableUnauthorizedAccount",
      "type": "error"
    },
    {
      "inputs": [],
      "name": "ReentrancyGuardReentrantCall",
      "type": "error"
    },
    {
      "anonymous": false,
      "inputs": [
        {
          "indexed": true,
          "internalType": "address",
          "name": "previousOwner",
          "type": "address"
        },
        {
          "indexed": true,
          "internalType": "address",
          "name": "newOwner",
          "type": "address"
        }
      ],
      "name": "OwnershipTransferred",
      "type": "event"
    },
    {
      "anonymous": false,
      "inputs": [
        {
          "indexed": true,
          "internalType": "uint256",
          "name": "proposalId",
          "type": "uint256"
        }
      ],
      "name": "ProposalCanceled",
      "type": "event"
    },
    {
      "anonymous": false,
      "inputs": [
        {
          "indexed": true,
          "internalType": "uint256",
          "name": "proposalId",
          "type": "uint256"
        },
        {
          "indexed": false,
          "internalType": "string",
          "name": "title",
          "type": "string"
        },
        {
          "indexed": true,
          "internalType": "address",
          "name": "proposer",
          "type": "address"
        },
        {
          "indexed": false,
          "internalType": "uint256",
          "name": "startTime",
          "type": "uint256"
        },
        {
          "indexed": false,
          "internalType": "uint256",
          "name": "endTime",
          "type": "uint256"
        },
        {
          "indexed": false,
          "internalType": "enum VotingContract.ProposalType",
          "name": "proposalType",
          "type": "uint8"
        }
      ],
      "name": "ProposalCreated",
      "type": "event"
    },
    {
      "anonymous": false,
      "inputs": [
        {
          "indexed": true,
          "internalType": "uint256",
          "name": "proposalId",
          "type": "uint256"
        },
        {
          "indexed": false,
          "internalType": "bool",
          "name": "passed",
          "type": "bool"
        },
        {
          "indexed": false,
          "internalType": "uint256",
          "name": "yesVotes",
          "type": "uint256"
        },
        {
          "indexed": false,
          "internalType": "uint256",
          "name": "noVotes",
          "type": "uint256"
        },
        {
          "indexed": false,
          "internalType": "uint256",
          "name": "totalVotingPower",
          "type": "uint256"
        }
      ],
      "name": "ProposalExecuted",
      "type": "event"
    },
    {
      "anonymous": false,
      "inputs": [
        {
          "indexed": true,
          "internalType": "uint256",
          "name": "proposalId",
          "type": "uint256"
        },
        {
          "indexed": true,
          "internalType": "address",
          "name": "voter",
          "type": "address"
        },
        {
          "indexed": false,
          "internalType": "bool",
          "name": "support",
          "type": "bool"
        },
        {
          "indexed": false,
          "internalType": "uint256",
          "name": "votingPower",
          "type": "uint256"
        }
      ],
      "name": "VoteCast",
      "type": "event"
    },
    {
      "inputs": [],
      "name": "BASIS_POINTS",
      "outputs": [
        {
          "internalType": "uint256",
          "name": "",
          "type": "uint256"
        }
      ],
      "stateMutability": "view",
      "type": "function"
    },
    {
      "inputs": [],
      "name": "MIN_SBFT_TO_PROPOSE",
      "outputs": [
        {
          "internalType": "uint256",
          "name": "",
          "type": "uint256"
        }
      ],
      "stateMutability": "view",
      "type": "function"
    },
    {
      "inputs": [],
      "name": "QUORUM_PERCENTAGE",
      "outputs": [
        {
          "internalType": "uint256",
          "name": "",
          "type": "uint256"
        }
      ],
      "stateMutability": "view",
      "type": "function"
    },
    {
      "inputs": [],
      "name": "VOTING_PERIOD",
      "outputs": [
        {
          "internalType": "uint256",
          "name": "",
          "type": "uint256"
        }
      ],
      "stateMutability": "view",
      "type": "function"
    },
    {
      "inputs": [
        {
          "internalType": "uint256",
          "name": "",
          "type": "uint256"
        }
      ],
      "name": "activeProposals",
      "outputs": [
        {
          "internalType": "uint256",
          "name": "",
          "type": "uint256"
        }
      ],
      "stateMutability": "view",
      "type": "function"
    },
    {
      "inputs": [
        {
          "internalType": "uint256",
          "name": "proposalId",
          "type": "uint256"
        }
      ],
      "name": "canExecuteProposal",
      "outputs": [
        {
          "internalType": "bool",
          "name": "",
          "type": "bool"
        }
      ],
      "stateMutability": "view",
      "type": "function"
    },
    {
      "inputs": [
        {
          "internalType": "uint256",
          "name": "proposalId",
          "type": "uint256"
        }
      ],
      "name": "cancelProposal",
      "outputs": [],
      "stateMutability": "nonpayable",
      "type": "function"
    },
    {
      "inputs": [
        {
          "internalType": "string",
          "name": "title",
          "type": "string"
        },
        {
          "internalType": "string",
          "name": "description",
          "type": "string"
        },
        {
          "internalType": "enum VotingContract.ProposalType",
          "name": "proposalType",
          "type": "uint8"
        }
      ],
      "name": "createProposal",
      "outputs": [],
      "stateMutability": "nonpayable",
      "type": "function"
    },
    {
      "inputs": [
        {
          "internalType": "uint256",
          "name": "proposalId",
          "type": "uint256"
        }
      ],
      "name": "executeProposal",
      "outputs": [],
      "stateMutability": "nonpayable",
      "type": "function"
    },
    {
      "inputs": [],
      "name": "getActiveProposals",
      "outputs": [
        {
          "internalType": "uint256[]",
          "name": "",
          "type": "uint256[]"
        }
      ],
      "stateMutability": "view",
      "type": "function"
    },
    {
      "inputs": [
        {
          "internalType": "uint256",
          "name": "proposalId",
          "type": "uint256"
        }
      ],
      "name": "getProposal",
      "outputs": [
        {
          "components": [
            {
              "internalType": "uint256",
              "name": "id",
              "type": "uint256"
            },
            {
              "internalType": "string",
              "name": "title",
              "type": "string"
            },
            {
              "internalType": "string",
              "name": "description",
              "type": "string"
            },
            {
              "internalType": "address",
              "name": "proposer",
              "type": "address"
            },
            {
              "internalType": "uint256",
              "name": "startTime",
              "type": "uint256"
            },
            {
              "internalType": "uint256",
              "name": "endTime",
              "type": "uint256"
            },
            {
              "internalType": "uint256",
              "name": "yesVotes",
              "type": "uint256"
            },
            {
              "internalType": "uint256",
              "name": "noVotes",
              "type": "uint256"
            },
            {
              "internalType": "uint256",
              "name": "totalVotingPower",
              "type": "uint256"
            },
            {
              "internalType": "bool",
              "name": "executed",
              "type": "bool"
            },
            {
              "internalType": "bool",
              "name": "passed",
              "type": "bool"
            },
            {
              "internalType": "enum VotingContract.ProposalType",
              "name": "proposalType",
              "type": "uint8"
            }
          ],
          "internalType": "struct VotingContract.Proposal",
          "name": "",
          "type": "tuple"
        }
      ],
      "stateMutability": "view",
      "type": "function"
    },
    {
      "inputs": [
        {
          "internalType": "uint256",
          "name": "proposalId",
          "type": "uint256"
        }
      ],
      "name": "getProposalResults",
      "outputs": [
        {
          "internalType": "uint256",
          "name": "yesVotes",
          "type": "uint256"
        },
        {
          "internalType": "uint256",
          "name": "noVotes",
          "type": "uint256"
        },
        {
          "internalType": "uint256",
          "name": "totalVotingPower",
          "type": "uint256"
        },
        {
          "internalType": "bool",
          "name": "quorumMet",
          "type": "bool"
        },
        {
          "internalType": "bool",
          "name": "passed",
          "type": "bool"
        }
      ],
      "stateMutability": "view",
      "type": "function"
    },
    {
      "inputs": [
        {
          "internalType": "uint256",
          "name": "proposalId",
          "type": "uint256"
        },
        {
          "internalType": "address",
          "name": "voter",
          "type": "address"
        }
      ],
      "name": "getVote",
      "outputs": [
        {
          "components": [
            {
              "internalType": "bool",
              "name": "support",
              "type": "bool"
            },
            {
              "internalType": "uint256",
              "name": "votingPower",
              "type": "uint256"
            },
            {
              "internalType": "uint256",
              "name": "timestamp",
              "type": "uint256"
            }
          ],
          "internalType": "struct VotingContract.Vote",
          "name": "",
          "type": "tuple"
        }
      ],
      "stateMutability": "view",
      "type": "function"
    },
    {
      "inputs": [
        {
          "internalType": "address",
          "name": "user",
          "type": "address"
        }
      ],
      "name": "getVotingPower",
      "outputs": [
        {
          "internalType": "uint256",
          "name": "",
          "type": "uint256"
        }
      ],
      "stateMutability": "view",
      "type": "function"
    },
    {
      "inputs": [
        {
          "internalType": "uint256",
          "name": "",
          "type": "uint256"
        },
        {
          "internalType": "address",
          "name": "",
          "type": "address"
        }
      ],
      "name": "hasVoted",
      "outputs": [
        {
          "internalType": "bool",
          "name": "",
          "type": "bool"
        }
      ],
      "stateMutability": "view",
      "type": "function"
    },
    {
      "inputs": [],
      "name": "owner",
      "outputs": [
        {
          "internalType": "address",
          "name": "",
          "type": "address"
        }
      ],
      "stateMutability": "view",
      "type": "function"
    },
    {
      "inputs": [],
      "name": "proposalCount",
      "outputs": [
        {
          "internalType": "uint256",
          "name": "",
          "type": "uint256"
        }
      ],
      "stateMutability": "view",
      "type": "function"
    },
    {
      "inputs": [
        {
          "internalType": "uint256",
          "name": "",
          "type": "uint256"
        }
      ],
      "name": "proposals",
      "outputs": [
        {
          "internalType": "uint256",
          "name": "id",
          "type": "uint256"
        },
        {
          "internalType": "string",
          "name": "title",
          "type": "string"
        },
        {
          "internalType": "string",
          "name": "description",
          "type": "string"
        },
        {
          "internalType": "address",
          "name": "proposer",
          "type": "address"
        },
        {
          "internalType": "uint256",
          "name": "startTime",
          "type": "uint256"
        },
        {
          "internalType": "uint256",
          "name": "endTime",
          "type": "uint256"
        },
        {
          "internalType": "uint256",
          "name": "yesVotes",
          "type": "uint256"
        },
        {
          "internalType": "uint256",
          "name": "noVotes",
          "type": "uint256"
        },
        {
          "internalType": "uint256",
          "name": "totalVotingPower",
          "type": "uint256"
        },
        {
          "internalType": "bool",
          "name": "executed",
          "type": "bool"
        },
        {
          "internalType": "bool",
          "name": "passed",
          "type": "bool"
        },
        {
          "internalType": "enum VotingContract.ProposalType",
          "name": "proposalType",
          "type": "uint8"
        }
      ],
      "stateMutability": "view",
      "type": "function"
    },
    {
      "inputs": [],
      "name": "renounceOwnership",
      "outputs": [],
      "stateMutability": "nonpayable",
      "type": "function"
    },
    {
      "inputs": [],
      "name": "sbftToken",
      "outputs": [
        {
          "internalType": "contract ISbFTToken",
          "name": "",
          "type": "address"
        }
      ],
      "stateMutability": "view",
      "type": "function"
    },
    {
      "inputs": [
        {
          "internalType": "address",
          "name": "newOwner",
          "type": "address"
        }
      ],
      "name": "transferOwnership",
      "outputs": [],
      "stateMutability": "nonpayable",
      "type": "function"
    },
    {
      "inputs": [
        {
          "internalType": "uint256",
          "name": "proposalId",
          "type": "uint256"
        },
        {
          "internalType": "bool",
          "name": "support",
          "type": "bool"
        }
      ],
      "name": "vote",
      "outputs": [],
      "stateMutability": "nonpayable",
      "type": "function"
    },
    {
      "inputs": [
        {
          "internalType": "uint256",
          "name": "",
          "type": "uint256"
        },
        {
          "internalType": "address",
          "name": "",
          "type": "address"
        }
      ],
      "name": "votes",
      "outputs": [
        {
          "internalType": "bool",
          "name": "support",
          "type": "bool"
        },
        {
          "internalType": "uint256",
          "name": "votingPower",
          "type": "uint256"
        },
        {
          "internalType": "uint256",
          "name": "timestamp",
          "type": "uint256"
        }
      ],
      "stateMutability": "view",
      "type": "function"
    }
  ],
  "bytecode": "0x608060405234801561001057600080fd5b50604051611e6a380380611e6a83398101604081905261002f91610124565b338061005657604051631e4fbdf760e01b8152600060048201526024015b60405180910390fd5b61005f816100d4565b50600180556001600160a01b0381166100af5760405162461bcd60e51b815260206004820152601260248201527124b73b30b634b21039b1232a103a37b5b2b760711b604482015260640161004d565b600280546001600160a01b0319166001600160a01b0392909216919091179055610154565b600080546001600160a01b038381166001600160a01b0319831681178455604051919092169283917f8be0079c531659141344cd1fd0a4f28419497f9722a3daafe3b4186f6b6457e09190a35050565b60006020828403121561013657600080fd5b81516001600160a01b038116811461014d57600080fd5b9392505050565b611d07806101636000396000f3fe608060405234801561001057600080fd5b506004361061014d5760003560e01c8063bb4d4436116100c3578063e0a8f6f51161007c578063e0a8f6f51461038d578063e1f1c4a7146103a0578063e40824f8146103a9578063eccc51fd146103bc578063ee8a7c15146103cf578063f2fde38b146103d857600080fd5b8063bb4d4436146102ac578063bc3f931f146102bf578063c7f758a8146102f6578063c9d27afe14610316578063d23254b414610329578063da35c6641461038457600080fd5b80635bdcd008116101155780635bdcd00814610219578063715018a614610258578063824ea8ed146102605780638912cd51146102735780638da5cb5b14610291578063b1610d7e146102a257600080fd5b8063013cf08b146101525780630d61b519146101865780631ec42dd31461019b57806343859632146101c65780635584c4f914610204575b600080fd5b610165610160366004611634565b6103eb565b60405161017d9c9b9a999897969594939291906116cb565b60405180910390f35b610199610194366004611634565b61056a565b005b6002546101ae906001600160a01b031681565b6040516001600160a01b03909116815260200161017d565b6101f46101d4366004611775565b600560209081526000928352604080842090915290825290205460ff1681565b604051901515815260200161017d565b61020c610713565b60405161017d91906117a1565b61022c610227366004611634565b61076b565b60408051958652602086019490945292840191909152151560608301521515608082015260a00161017d565b61019961080e565b6101f461026e366004611634565b610822565b610283683635c9adc5dea0000081565b60405190815260200161017d565b6000546001600160a01b03166101ae565b61028362093a8081565b6102836102ba3660046117e4565b610862565b6102d26102cd366004611775565b6108d7565b6040805182511515815260208084015190820152918101519082015260600161017d565b610309610304366004611634565b61094c565b60405161017d91906117ff565b6101996103243660046118d9565b610b5f565b610367610337366004611775565b600460209081526000928352604080842090915290825290208054600182015460029092015460ff909116919083565b60408051931515845260208401929092529082015260600161017d565b61028360065481565b61019961039b366004611634565b610e5f565b61028361271081565b6102836103b7366004611634565b610f6c565b6101996103ca366004611957565b610f8d565b6102836103e881565b6101996103e63660046117e4565b611423565b6003602052600090815260409020805460018201805491929161040d906119e4565b80601f0160208091040260200160405190810160405280929190818152602001828054610439906119e4565b80156104865780601f1061045b57610100808354040283529160200191610486565b820191906000526020600020905b81548152906001019060200180831161046957829003601f168201915b50505050509080600201805461049b906119e4565b80601f01602080910402602001604051908101604052809291908181526020018280546104c7906119e4565b80156105145780601f106104e957610100808354040283529160200191610514565b820191906000526020600020905b8154815290600101906020018083116104f757829003601f168201915b5050505060038301546004840154600585015460068601546007870154600888015460099098015496976001600160a01b03909516969395509193909260ff80821691610100810482169162010000909104168c565b60065481106105945760405162461bcd60e51b815260040161058b90611a1e565b60405180910390fd5b6000818152600360205260409020600581015442116105f55760405162461bcd60e51b815260206004820152601760248201527f566f74696e6720706572696f64206e6f7420656e646564000000000000000000604482015260640161058b565b600981015460ff161561061a5760405162461bcd60e51b815260040161058b90611a55565b6000816007015482600601546106309190611aa2565b905060006127106103e884600801546106499190611ab5565b6106539190611acc565b6007840154600685015460098601805460ff19166001179055919250828410801592919091119082906106835750805b6009860180549115156101000261ff00199092169190911790556106a686611461565b60098501546006860154600787015460088801546040805161010090950460ff1615158552602085019390935291830152606082015286907ff6b96ada030fa45f23da86f0d66092a36a56b4950ccc57d36f9ededd35cb41a09060800160405180910390a2505050505050565b6060600780548060200260200160405190810160405280929190818152602001828054801561076157602002820191906000526020600020905b81548152602001906001019080831161074d575b5050505050905090565b600080600080600060065486106107945760405162461bcd60e51b815260040161058b90611a1e565b6000868152600360205260408120600781015460068201549192916107b99190611aa2565b905060006127106103e884600801546107d29190611ab5565b6107dc9190611acc565b600684015460078501546008860154600990960154919c909b50949950921015965050610100900460ff169350915050565b61081661150f565b610820600061153c565b565b6000600654821061083557506000919050565b600082815260036020526040902060058101544211801561085b5750600981015460ff16155b9392505050565b6002546040516370a0823160e01b81526001600160a01b03838116600483015260009216906370a0823190602401602060405180830381865afa1580156108ad573d6000803e3d6000fd5b505050506040513d601f19601f820116820180604052508101906108d19190611aee565b92915050565b6108fd604051806060016040528060001515815260200160008152602001600081525090565b5060009182526004602090815260408084206001600160a01b03939093168452918152918190208151606081018352815460ff1615158152600182015493810193909352600201549082015290565b6109546115b6565b60065482106109755760405162461bcd60e51b815260040161058b90611a1e565b6003600083815260200190815260200160002060405180610180016040529081600082015481526020016001820180546109ae906119e4565b80601f01602080910402602001604051908101604052809291908181526020018280546109da906119e4565b8015610a275780601f106109fc57610100808354040283529160200191610a27565b820191906000526020600020905b815481529060010190602001808311610a0a57829003601f168201915b50505050508152602001600282018054610a40906119e4565b80601f0160208091040260200160405190810160405280929190818152602001828054610a6c906119e4565b8015610ab95780601f10610a8e57610100808354040283529160200191610ab9565b820191906000526020600020905b815481529060010190602001808311610a9c57829003601f168201915b50505091835250506003828101546001600160a01b03166020830152600483015460408301526005830154606083015260068301546080830152600783015460a0830152600883015460c0830152600983015460ff808216151560e0850152610100808304821615159085015261012090930192620100009091041690811115610b4557610b45611693565b6003811115610b5657610b56611693565b90525092915050565b610b6761158c565b6006548210610b885760405162461bcd60e51b815260040161058b90611a1e565b600082815260056020908152604080832033845290915290205460ff1615610be25760405162461bcd60e51b815260206004820152600d60248201526c105b1c9958591e481d9bdd1959609a1b604482015260640161058b565b60008281526003602052604090206004810154421015610c395760405162461bcd60e51b8152602060048201526012602482015271159bdd1a5b99c81b9bdd081cdd185c9d195960721b604482015260640161058b565b8060050154421115610c835760405162461bcd60e51b8152602060048201526013602482015272159bdd1a5b99c81c195c9a5bd908195b991959606a1b604482015260640161058b565b600981015460ff1615610ca85760405162461bcd60e51b815260040161058b90611a55565b6002546040516370a0823160e01b81523360048201526000916001600160a01b0316906370a0823190602401602060405180830381865afa158015610cf1573d6000803e3d6000fd5b505050506040513d601f19601f82011682018060405250810190610d159190611aee565b905060008111610d595760405162461bcd60e51b815260206004820152600f60248201526e2737903b37ba34b733903837bbb2b960891b604482015260640161058b565b6040805160608101825284158015825260208083018581524284860190815260008a815260048452868120338083529085528782209651875490151560ff19918216178855935160018089019190915592516002909701969096558a81526005845286812095815294909252939092208054909316909117909155610df75780826006016000828254610dec9190611aa2565b90915550610e119050565b80826007016000828254610e0b9190611aa2565b90915550505b60408051841515815260208101839052339186917fcbdf6214089cba887ecbf35a0b6a734589959c9763342c756bb2a80ca2bc9f6e910160405180910390a35050610e5b60018055565b5050565b6006548110610e805760405162461bcd60e51b815260040161058b90611a1e565b6000818152600360205260409020600981015460ff1615610eb35760405162461bcd60e51b815260040161058b90611a55565b60038101546001600160a01b0316331480610ed857506000546001600160a01b031633145b610f245760405162461bcd60e51b815260206004820152601860248201527f4e6f7420617574686f72697a656420746f2063616e63656c0000000000000000604482015260640161058b565b60098101805461ffff19166001179055610f3d82611461565b60405182907f789cf55be980739dad1d0699b93b58e806b51c9d96619bfa8fe0a28abaa7b30c90600090a25050565b60078181548110610f7c57600080fd5b600091825260209091200154905081565b83610fd25760405162461bcd60e51b81526020600482015260156024820152745469746c652063616e6e6f7420626520656d70747960581b604482015260640161058b565b8161101f5760405162461bcd60e51b815260206004820152601b60248201527f4465736372697074696f6e2063616e6e6f7420626520656d7074790000000000604482015260640161058b565b6002546040516370a0823160e01b8152336004820152683635c9adc5dea00000916001600160a01b0316906370a0823190602401602060405180830381865afa158015611070573d6000803e3d6000fd5b505050506040513d601f19601f820116820180604052508101906110949190611aee565b10156110e25760405162461bcd60e51b815260206004820152601c60248201527f496e73756666696369656e74207362465420746f2070726f706f736500000000604482015260640161058b565b60068054600091826110f383611b07565b90915550905042600061110962093a8083611aa2565b90506000600260009054906101000a90046001600160a01b03166001600160a01b03166318160ddd6040518163ffffffff1660e01b8152600401602060405180830381865afa158015611160573d6000803e3d6000fd5b505050506040513d601f19601f820116820180604052508101906111849190611aee565b9050600081116111d65760405162461bcd60e51b815260206004820152601d60248201527f4e6f207362465420746f6b656e7320696e2063697263756c6174696f6e000000604482015260640161058b565b6040518061018001604052808581526020018a8a8080601f016020809104026020016040519081016040528093929190818152602001838380828437600092019190915250505090825250604080516020601f8b0181900481028201810190925289815291810191908a908a9081908401838280828437600092018290525093855250503360208401525060408201869052606082018590526080820181905260a0820181905260c0820184905260e08201819052610100820152610120018660038111156112a7576112a7611693565b90526000858152600360209081526040909120825181559082015160018201906112d19082611b85565b50604082015160028201906112e69082611b85565b506060820151600382810180546001600160a01b0319166001600160a01b03909316929092179091556080830151600483015560a0830151600583015560c0830151600683015560e0830151600783015561010080840151600884015561012084015160098401805461014087015161ffff1990911692151561ff00191692909217911515909202178082556101608501519262ff000019909116906201000090849081111561139857611398611693565b021790555050600780546001810182556000919091527fa66cc928b5edb82af9bd49922954155ab7b0942694bea4ce44661d9a8736c6880185905550604051339085907f8acb73771e980515981b873fe5cb3a2f96acb79e16eedc95071aeb42f1ded74a90611410908d908d90899089908d90611c44565b60405180910390a3505050505050505050565b61142b61150f565b6001600160a01b03811661145557604051631e4fbdf760e01b81526000600482015260240161058b565b61145e8161153c565b50565b60005b600754811015610e5b57816007828154811061148257611482611c92565b90600052602060002001540361150757600780546114a290600190611ca8565b815481106114b2576114b2611c92565b9060005260206000200154600782815481106114d0576114d0611c92565b60009182526020909120015560078054806114ed576114ed611cbb565b600190038181906000526020600020016000905590555050565b600101611464565b6000546001600160a01b031633146108205760405163118cdaa760e01b815233600482015260240161058b565b600080546001600160a01b038381166001600160a01b0319831681178455604051919092169283917f8be0079c531659141344cd1fd0a4f28419497f9722a3daafe3b4186f6b6457e09190a35050565b6002600154036115af57604051633ee5aeb560e01b815260040160405180910390fd5b6002600155565b60405180610180016040528060008152602001606081526020016060815260200160006001600160a01b0316815260200160008152602001600081526020016000815260200160008152602001600081526020016000151581526020016000151581526020016000600381111561162f5761162f611693565b905290565b60006020828403121561164657600080fd5b5035919050565b6000815180845260005b8181101561167357602081850181015186830182015201611657565b506000602082860101526020601f19601f83011685010191505092915050565b634e487b7160e01b600052602160045260246000fd5b600481106116c757634e487b7160e01b600052602160045260246000fd5b9052565b8c8152610180602082015260006116e661018083018e61164d565b82810360408401526116f8818e61164d565b91505060018060a01b038b1660608301528960808301528860a08301528760c08301528660e0830152856101008301528415156101208301528315156101408301526117486101608301846116a9565b9d9c50505050505050505050505050565b80356001600160a01b038116811461177057600080fd5b919050565b6000806040838503121561178857600080fd5b8235915061179860208401611759565b90509250929050565b602080825282518282018190526000918401906040840190835b818110156117d95783518352602093840193909201916001016117bb565b509095945050505050565b6000602082840312156117f657600080fd5b61085b82611759565b60208152815160208201526000602083015161018060408401526118276101a084018261164d565b90506040840151601f19848303016060850152611844828261164d565b915050606084015161186160808501826001600160a01b03169052565b50608084015160a084015260a084015160c084015260c084015160e084015260e08401516101008401526101008401516101208401526101208401516118ac61014085018215159052565b50610140840151801515610160850152506101608401516118d16101808501826116a9565b509392505050565b600080604083850312156118ec57600080fd5b823591506020830135801515811461190357600080fd5b809150509250929050565b60008083601f84011261192057600080fd5b50813567ffffffffffffffff81111561193857600080fd5b60208301915083602082850101111561195057600080fd5b9250929050565b60008060008060006060868803121561196f57600080fd5b853567ffffffffffffffff81111561198657600080fd5b6119928882890161190e565b909650945050602086013567ffffffffffffffff8111156119b257600080fd5b6119be8882890161190e565b9094509250506040860135600481106119d657600080fd5b809150509295509295909350565b600181811c908216806119f857607f821691505b602082108103611a1857634e487b7160e01b600052602260045260246000fd5b50919050565b60208082526017908201527f50726f706f73616c20646f6573206e6f74206578697374000000000000000000604082015260600190565b60208082526019908201527f50726f706f73616c20616c726561647920657865637574656400000000000000604082015260600190565b634e487b7160e01b600052601160045260246000fd5b808201808211156108d1576108d1611a8c565b80820281158282048414176108d1576108d1611a8c565b600082611ae957634e487b7160e01b600052601260045260246000fd5b500490565b600060208284031215611b0057600080fd5b5051919050565b600060018201611b1957611b19611a8c565b5060010190565b634e487b7160e01b600052604160045260246000fd5b601f821115611b8057806000526020600020601f840160051c81016020851015611b5d5750805b601f840160051c820191505b81811015611b7d5760008155600101611b69565b50505b505050565b815167ffffffffffffffff811115611b9f57611b9f611b20565b611bb381611bad84546119e4565b84611b36565b6020601f821160018114611be75760008315611bcf5750848201515b600019600385901b1c1916600184901b178455611b7d565b600084815260208120601f198516915b82811015611c175787850151825560209485019460019092019101611bf7565b5084821015611c355786840151600019600387901b60f8161c191681555b50505050600190811b01905550565b60808152846080820152848660a0830137600060a08683010152600060a0601f19601f8801168301019050846020830152836040830152611c8860608301846116a9565b9695505050505050565b634e487b7160e01b600052603260045260246000fd5b818103818111156108d1576108d1611a8c565b634e487b7160e01b600052603160045260246000fdfea26469706673582212203534c0d9e41007cc5a59a8f0b57f665300788b9ec3d18430b46b819653435f4e64736f6c634300081c0033",
  "linkReferences": {},
  "deployedLinkReferences": {}
}