{
  "_format": "hh-sol-artifact-1",
  "contractName": "WrappedSbFTToken",
  "sourceName": "contracts/tokens/WrappedsbFTToken.sol",
  "abi": [
    {
      "inputs": [
        {
          "internalType": "string",
          "name": "name",
          "type": "string"
        },
        {
          "internalType": "string",
          "name": "symbol",
          "type": "string"
        }
      ],
      "stateMutability": "nonpayable",
      "type": "constructor"
    },
    {
      "inputs": [
        {
          "internalType": "address",
          "name": "spender",
          "type": "address"
        },
        {
          "internalType": "uint256",
          "name": "allowance",
          "type": "uint256"
        },
        {
          "internalType": "uint256",
          "name": "needed",
          "type": "uint256"
        }
      ],
      "name": "ERC20InsufficientAllowance",
      "type": "error"
    },
    {
      "inputs": [
        {
          "internalType": "address",
          "name": "sender",
          "type": "address"
        },
        {
          "internalType": "uint256",
          "name": "balance",
          "type": "uint256"
        },
        {
          "internalType": "uint256",
          "name": "needed",
          "type": "uint256"
        }
      ],
      "name": "ERC20InsufficientBalance",
      "type": "error"
    },
    {
      "inputs": [
        {
          "internalType": "address",
          "name": "approver",
          "type": "address"
        }
      ],
      "name": "ERC20InvalidApprover",
      "type": "error"
    },
    {
      "inputs": [
        {
          "internalType": "address",
          "name": "receiver",
          "type": "address"
        }
      ],
      "name": "ERC20InvalidReceiver",
      "type": "error"
    },
    {
      "inputs": [
        {
          "internalType": "address",
          "name": "sender",
          "type": "address"
        }
      ],
      "name": "ERC20InvalidSender",
      "type": "error"
    },
    {
      "inputs": [
        {
          "internalType": "address",
          "name": "spender",
          "type": "address"
        }
      ],
      "name": "ERC20InvalidSpender",
      "type": "error"
    },
    {
      "inputs": [
        {
          "internalType": "address",
          "name": "owner",
          "type": "address"
        }
      ],
      "name": "OwnableInvalidOwner",
      "type": "error"
    },
    {
      "inputs": [
        {
          "internalType": "address",
          "name": "account",
          "type": "address"
        }
      ],
      "name": "OwnableUnauthorizedAccount",
      "type": "error"
    },
    {
      "anonymous": false,
      "inputs": [
        {
          "indexed": true,
          "internalType": "address",
          "name": "owner",
          "type": "address"
        },
        {
          "indexed": true,
          "internalType": "address",
          "name": "spender",
          "type": "address"
        },
        {
          "indexed": false,
          "internalType": "uint256",
          "name": "value",
          "type": "uint256"
        }
      ],
      "name": "Approval",
      "type": "event"
    },
    {
      "anonymous": false,
      "inputs": [
        {
          "indexed": true,
          "internalType": "address",
          "name": "bridgeContract",
          "type": "address"
        }
      ],
      "name": "BridgeContractSet",
      "type": "event"
    },
    {
      "anonymous": false,
      "inputs": [
        {
          "indexed": true,
          "internalType": "address",
          "name": "previousOwner",
          "type": "address"
        },
        {
          "indexed": true,
          "internalType": "address",
          "name": "newOwner",
          "type": "address"
        }
      ],
      "name": "OwnershipTransferred",
      "type": "event"
    },
    {
      "anonymous": false,
      "inputs": [
        {
          "indexed": true,
          "internalType": "address",
          "name": "from",
          "type": "address"
        },
        {
          "indexed": false,
          "internalType": "uint256",
          "name": "amount",
          "type": "uint256"
        },
        {
          "indexed": false,
          "internalType": "uint256",
          "name": "totalSupply",
          "type": "uint256"
        }
      ],
      "name": "TokensBurned",
      "type": "event"
    },
    {
      "anonymous": false,
      "inputs": [
        {
          "indexed": true,
          "internalType": "address",
          "name": "to",
          "type": "address"
        },
        {
          "indexed": false,
          "internalType": "uint256",
          "name": "amount",
          "type": "uint256"
        },
        {
          "indexed": false,
          "internalType": "uint256",
          "name": "totalSupply",
          "type": "uint256"
        }
      ],
      "name": "TokensMinted",
      "type": "event"
    },
    {
      "anonymous": false,
      "inputs": [
        {
          "indexed": true,
          "internalType": "address",
          "name": "from",
          "type": "address"
        },
        {
          "indexed": true,
          "internalType": "address",
          "name": "to",
          "type": "address"
        },
        {
          "indexed": false,
          "internalType": "uint256",
          "name": "value",
          "type": "uint256"
        }
      ],
      "name": "Transfer",
      "type": "event"
    },
    {
      "inputs": [
        {
          "internalType": "address",
          "name": "owner",
          "type": "address"
        },
        {
          "internalType": "address",
          "name": "spender",
          "type": "address"
        }
      ],
      "name": "allowance",
      "outputs": [
        {
          "internalType": "uint256",
          "name": "",
          "type": "uint256"
        }
      ],
      "stateMutability": "view",
      "type": "function"
    },
    {
      "inputs": [
        {
          "internalType": "address",
          "name": "spender",
          "type": "address"
        },
        {
          "internalType": "uint256",
          "name": "value",
          "type": "uint256"
        }
      ],
      "name": "approve",
      "outputs": [
        {
          "internalType": "bool",
          "name": "",
          "type": "bool"
        }
      ],
      "stateMutability": "nonpayable",
      "type": "function"
    },
    {
      "inputs": [
        {
          "internalType": "address",
          "name": "account",
          "type": "address"
        }
      ],
      "name": "balanceOf",
      "outputs": [
        {
          "internalType": "uint256",
          "name": "",
          "type": "uint256"
        }
      ],
      "stateMutability": "view",
      "type": "function"
    },
    {
      "inputs": [],
      "name": "bridgeContract",
      "outputs": [
        {
          "internalType": "address",
          "name": "",
          "type": "address"
        }
      ],
      "stateMutability": "view",
      "type": "function"
    },
    {
      "inputs": [
        {
          "internalType": "address",
          "name": "from",
          "type": "address"
        },
        {
          "internalType": "uint256",
          "name": "amount",
          "type": "uint256"
        }
      ],
      "name": "burn",
      "outputs": [],
      "stateMutability": "nonpayable",
      "type": "function"
    },
    {
      "inputs": [],
      "name": "decimals",
      "outputs": [
        {
          "internalType": "uint8",
          "name": "",
          "type": "uint8"
        }
      ],
      "stateMutability": "view",
      "type": "function"
    },
    {
      "inputs": [
        {
          "internalType": "address",
          "name": "account",
          "type": "address"
        }
      ],
      "name": "isHolder",
      "outputs": [
        {
          "internalType": "bool",
          "name": "",
          "type": "bool"
        }
      ],
      "stateMutability": "view",
      "type": "function"
    },
    {
      "inputs": [
        {
          "internalType": "address",
          "name": "to",
          "type": "address"
        },
        {
          "internalType": "uint256",
          "name": "amount",
          "type": "uint256"
        }
      ],
      "name": "mint",
      "outputs": [],
      "stateMutability": "nonpayable",
      "type": "function"
    },
    {
      "inputs": [],
      "name": "name",
      "outputs": [
        {
          "internalType": "string",
          "name": "",
          "type": "string"
        }
      ],
      "stateMutability": "view",
      "type": "function"
    },
    {
      "inputs": [],
      "name": "owner",
      "outputs": [
        {
          "internalType": "address",
          "name": "",
          "type": "address"
        }
      ],
      "stateMutability": "view",
      "type": "function"
    },
    {
      "inputs": [],
      "name": "renounceOwnership",
      "outputs": [],
      "stateMutability": "nonpayable",
      "type": "function"
    },
    {
      "inputs": [
        {
          "internalType": "address",
          "name": "_bridgeContract",
          "type": "address"
        }
      ],
      "name": "setBridgeContract",
      "outputs": [],
      "stateMutability": "nonpayable",
      "type": "function"
    },
    {
      "inputs": [],
      "name": "symbol",
      "outputs": [
        {
          "internalType": "string",
          "name": "",
          "type": "string"
        }
      ],
      "stateMutability": "view",
      "type": "function"
    },
    {
      "inputs": [],
      "name": "totalSupply",
      "outputs": [
        {
          "internalType": "uint256",
          "name": "",
          "type": "uint256"
        }
      ],
      "stateMutability": "view",
      "type": "function"
    },
    {
      "inputs": [
        {
          "internalType": "address",
          "name": "to",
          "type": "address"
        },
        {
          "internalType": "uint256",
          "name": "value",
          "type": "uint256"
        }
      ],
      "name": "transfer",
      "outputs": [
        {
          "internalType": "bool",
          "name": "",
          "type": "bool"
        }
      ],
      "stateMutability": "nonpayable",
      "type": "function"
    },
    {
      "inputs": [
        {
          "internalType": "address",
          "name": "from",
          "type": "address"
        },
        {
          "internalType": "address",
          "name": "to",
          "type": "address"
        },
        {
          "internalType": "uint256",
          "name": "value",
          "type": "uint256"
        }
      ],
      "name": "transferFrom",
      "outputs": [
        {
          "internalType": "bool",
          "name": "",
          "type": "bool"
        }
      ],
      "stateMutability": "nonpayable",
      "type": "function"
    },
    {
      "inputs": [
        {
          "internalType": "address",
          "name": "newOwner",
          "type": "address"
        }
      ],
      "name": "transferOwnership",
      "outputs": [],
      "stateMutability": "nonpayable",
      "type": "function"
    }
  ],
  "bytecode": "0x608060405234801561001057600080fd5b5060405161109b38038061109b83398101604081905261002f91610198565b338282600361003e838261028a565b50600461004b828261028a565b5050506001600160a01b03811661007c57604051631e4fbdf760e01b81526000600482015260240160405180910390fd5b6100858161008d565b505050610348565b600580546001600160a01b038381166001600160a01b0319831681179093556040519116919082907f8be0079c531659141344cd1fd0a4f28419497f9722a3daafe3b4186f6b6457e090600090a35050565b634e487b7160e01b600052604160045260246000fd5b600082601f83011261010657600080fd5b81516001600160401b0381111561011f5761011f6100df565b604051601f8201601f19908116603f011681016001600160401b038111828210171561014d5761014d6100df565b60405281815283820160200185101561016557600080fd5b60005b8281101561018457602081860181015183830182015201610168565b506000918101602001919091529392505050565b600080604083850312156101ab57600080fd5b82516001600160401b038111156101c157600080fd5b6101cd858286016100f5565b602085015190935090506001600160401b038111156101eb57600080fd5b6101f7858286016100f5565b9150509250929050565b600181811c9082168061021557607f821691505b60208210810361023557634e487b7160e01b600052602260045260246000fd5b50919050565b601f82111561028557806000526020600020601f840160051c810160208510156102625750805b601f840160051c820191505b81811015610282576000815560010161026e565b50505b505050565b81516001600160401b038111156102a3576102a36100df565b6102b7816102b18454610201565b8461023b565b6020601f8211600181146102eb57600083156102d35750848201515b600019600385901b1c1916600184901b178455610282565b600084815260208120601f198516915b8281101561031b57878501518255602094850194600190920191016102fb565b50848210156103395786840151600019600387901b60f8161c191681555b50505050600190811b01905550565b610d44806103576000396000f3fe608060405234801561001057600080fd5b506004361061010b5760003560e01c8063715018a6116100a2578063a9059cbb11610071578063a9059cbb1461021e578063cd59658314610231578063d4d7b19a14610244578063dd62ed3e1461026f578063f2fde38b146102a857600080fd5b8063715018a6146101d65780638da5cb5b146101de57806395d89b41146102035780639dc29fac1461020b57600080fd5b806323b872dd116100de57806323b872dd14610178578063313ce5671461018b57806340c10f191461019a57806370a08231146101ad57600080fd5b806306fdde0314610110578063095ea7b31461012e5780630b26cf661461015157806318160ddd14610166575b600080fd5b6101186102bb565b6040516101259190610b8d565b60405180910390f35b61014161013c366004610bf7565b61034d565b6040519015158152602001610125565b61016461015f366004610c21565b610367565b005b6002545b604051908152602001610125565b610141610186366004610c43565b610414565b60405160128152602001610125565b6101646101a8366004610bf7565b610438565b61016a6101bb366004610c21565b6001600160a01b031660009081526020819052604090205490565b610164610593565b6005546001600160a01b03165b6040516001600160a01b039091168152602001610125565b6101186105a7565b610164610219366004610bf7565b6105b6565b61014161022c366004610bf7565b610763565b6006546101eb906001600160a01b031681565b610141610252366004610c21565b6001600160a01b0316600090815260208190526040902054151590565b61016a61027d366004610c80565b6001600160a01b03918216600090815260016020908152604080832093909416825291909152205490565b6101646102b6366004610c21565b610771565b6060600380546102ca90610cb3565b80601f01602080910402602001604051908101604052809291908181526020018280546102f690610cb3565b80156103435780601f1061031857610100808354040283529160200191610343565b820191906000526020600020905b81548152906001019060200180831161032657829003601f168201915b5050505050905090565b60003361035b8185856107af565b60019150505b92915050565b61036f6107c1565b6001600160a01b0381166103ca5760405162461bcd60e51b815260206004820152601760248201527f496e76616c69642062726964676520636f6e747261637400000000000000000060448201526064015b60405180910390fd5b600680546001600160a01b0319166001600160a01b0383169081179091556040517fad098d6e912c08ed9aa3ee6ca9529da44a959d4c6251c6b8b088af216c1e350690600090a250565b6000336104228582856107ee565b61042d85858561086d565b506001949350505050565b6006546001600160a01b031633146104925760405162461bcd60e51b815260206004820152601d60248201527f4f6e6c792062726964676520636f6e74726163742063616e206d696e7400000060448201526064016103c1565b6001600160a01b0382166104e85760405162461bcd60e51b815260206004820152601b60248201527f43616e6e6f74206d696e7420746f207a65726f2061646472657373000000000060448201526064016103c1565b600081116105385760405162461bcd60e51b815260206004820152601d60248201527f416d6f756e74206d7573742062652067726561746572207468616e203000000060448201526064016103c1565b61054282826108cc565b816001600160a01b03167f2e8ac5177a616f2aec08c3048f5021e4e9743ece034e8d83ba5caf76688bb4758261057760025490565b6040805192835260208301919091520160405180910390a25050565b61059b6107c1565b6105a56000610906565b565b6060600480546102ca90610cb3565b6006546001600160a01b031633146106105760405162461bcd60e51b815260206004820152601d60248201527f4f6e6c792062726964676520636f6e74726163742063616e206275726e00000060448201526064016103c1565b6001600160a01b0382166106665760405162461bcd60e51b815260206004820152601d60248201527f43616e6e6f74206275726e2066726f6d207a65726f206164647265737300000060448201526064016103c1565b600081116106b65760405162461bcd60e51b815260206004820152601d60248201527f416d6f756e74206d7573742062652067726561746572207468616e203000000060448201526064016103c1565b806106d6836001600160a01b031660009081526020819052604090205490565b10156107245760405162461bcd60e51b815260206004820152601c60248201527f496e73756666696369656e742062616c616e636520746f206275726e0000000060448201526064016103c1565b61072e8282610958565b816001600160a01b03167fccbea4088a3b7ae9ca2d15fab9a9742a4075b4d7247768a1eecea917565aba008261057760025490565b60003361035b81858561086d565b6107796107c1565b6001600160a01b0381166107a357604051631e4fbdf760e01b8152600060048201526024016103c1565b6107ac81610906565b50565b6107bc838383600161098e565b505050565b6005546001600160a01b031633146105a55760405163118cdaa760e01b81523360048201526024016103c1565b6001600160a01b03838116600090815260016020908152604080832093861683529290522054600019811015610867578181101561085857604051637dc7a0d960e11b81526001600160a01b038416600482015260248101829052604481018390526064016103c1565b6108678484848403600061098e565b50505050565b6001600160a01b03831661089757604051634b637e8f60e11b8152600060048201526024016103c1565b6001600160a01b0382166108c15760405163ec442f0560e01b8152600060048201526024016103c1565b6107bc838383610a63565b6001600160a01b0382166108f65760405163ec442f0560e01b8152600060048201526024016103c1565b61090260008383610a63565b5050565b600580546001600160a01b038381166001600160a01b0319831681179093556040519116919082907f8be0079c531659141344cd1fd0a4f28419497f9722a3daafe3b4186f6b6457e090600090a35050565b6001600160a01b03821661098257604051634b637e8f60e11b8152600060048201526024016103c1565b61090282600083610a63565b6001600160a01b0384166109b85760405163e602df0560e01b8152600060048201526024016103c1565b6001600160a01b0383166109e257604051634a1406b160e11b8152600060048201526024016103c1565b6001600160a01b038085166000908152600160209081526040808320938716835292905220829055801561086757826001600160a01b0316846001600160a01b03167f8c5be1e5ebec7d5bd14f71427d1e84f3dd0314c0f7b2291e5b200ac8c7c3b92584604051610a5591815260200190565b60405180910390a350505050565b6001600160a01b038316610a8e578060026000828254610a839190610ced565b90915550610b009050565b6001600160a01b03831660009081526020819052604090205481811015610ae15760405163391434e360e21b81526001600160a01b038516600482015260248101829052604481018390526064016103c1565b6001600160a01b03841660009081526020819052604090209082900390555b6001600160a01b038216610b1c57600280548290039055610b3b565b6001600160a01b03821660009081526020819052604090208054820190555b816001600160a01b0316836001600160a01b03167fddf252ad1be2c89b69c2b068fc378daa952ba7f163c4a11628f55a4df523b3ef83604051610b8091815260200190565b60405180910390a3505050565b602081526000825180602084015260005b81811015610bbb5760208186018101516040868401015201610b9e565b506000604082850101526040601f19601f83011684010191505092915050565b80356001600160a01b0381168114610bf257600080fd5b919050565b60008060408385031215610c0a57600080fd5b610c1383610bdb565b946020939093013593505050565b600060208284031215610c3357600080fd5b610c3c82610bdb565b9392505050565b600080600060608486031215610c5857600080fd5b610c6184610bdb565b9250610c6f60208501610bdb565b929592945050506040919091013590565b60008060408385031215610c9357600080fd5b610c9c83610bdb565b9150610caa60208401610bdb565b90509250929050565b600181811c90821680610cc757607f821691505b602082108103610ce757634e487b7160e01b600052602260045260246000fd5b50919050565b8082018082111561036157634e487b7160e01b600052601160045260246000fdfea26469706673582212206f7ccfed29c6b2c9bf410bee28495c2dffdf1b31853fd41ef34e32d1f84fc72e64736f6c634300081c0033",
  "linkReferences": {},
  "deployedLinkReferences": {}
}