{
  "_format": "hh-sol-artifact-1",
  "contractName": "SbFTMarketplace",
  "sourceName": "contracts/marletplace/sbFTMarketplace.sol",
  "abi": [
    {
      "inputs": [
        {
          "internalType": "address",
          "name": "_sbftToken",
          "type": "address"
        },
        {
          "internalType": "address",
          "name": "_usdcToken",
          "type": "address"
        }
      ],
      "stateMutability": "nonpayable",
      "type": "constructor"
    },
    {
      "inputs": [
        {
          "internalType": "address",
          "name": "owner",
          "type": "address"
        }
      ],
      "name": "OwnableInvalidOwner",
      "type": "error"
    },
    {
      "inputs": [
        {
          "internalType": "address",
          "name": "account",
          "type": "address"
        }
      ],
      "name": "OwnableUnauthorizedAccount",
      "type": "error"
    },
    {
      "inputs": [],
      "name": "ReentrancyGuardReentrantCall",
      "type": "error"
    },
    {
      "anonymous": false,
      "inputs": [
        {
          "indexed": true,
          "internalType": "address",
          "name": "to",
          "type": "address"
        },
        {
          "indexed": false,
          "internalType": "uint256",
          "name": "amount",
          "type": "uint256"
        }
      ],
      "name": "FeesWithdrawn",
      "type": "event"
    },
    {
      "anonymous": false,
      "inputs": [
        {
          "indexed": true,
          "internalType": "uint256",
          "name": "orderId",
          "type": "uint256"
        },
        {
          "indexed": true,
          "internalType": "address",
          "name": "user",
          "type": "address"
        }
      ],
      "name": "OrderCanceled",
      "type": "event"
    },
    {
      "anonymous": false,
      "inputs": [
        {
          "indexed": true,
          "internalType": "uint256",
          "name": "orderId",
          "type": "uint256"
        },
        {
          "indexed": true,
          "internalType": "address",
          "name": "user",
          "type": "address"
        },
        {
          "indexed": false,
          "internalType": "bool",
          "name": "isBuyOrder",
          "type": "bool"
        },
        {
          "indexed": false,
          "internalType": "uint256",
          "name": "sbftAmount",
          "type": "uint256"
        },
        {
          "indexed": false,
          "internalType": "uint256",
          "name": "usdcPrice",
          "type": "uint256"
        },
        {
          "indexed": false,
          "internalType": "uint256",
          "name": "totalValue",
          "type": "uint256"
        }
      ],
      "name": "OrderCreated",
      "type": "event"
    },
    {
      "anonymous": false,
      "inputs": [
        {
          "indexed": true,
          "internalType": "uint256",
          "name": "orderId",
          "type": "uint256"
        },
        {
          "indexed": true,
          "internalType": "address",
          "name": "buyer",
          "type": "address"
        },
        {
          "indexed": true,
          "internalType": "address",
          "name": "seller",
          "type": "address"
        },
        {
          "indexed": false,
          "internalType": "uint256",
          "name": "sbftAmount",
          "type": "uint256"
        },
        {
          "indexed": false,
          "internalType": "uint256",
          "name": "usdcAmount",
          "type": "uint256"
        },
        {
          "indexed": false,
          "internalType": "uint256",
          "name": "fee",
          "type": "uint256"
        }
      ],
      "name": "OrderFilled",
      "type": "event"
    },
    {
      "anonymous": false,
      "inputs": [
        {
          "indexed": true,
          "internalType": "address",
          "name": "previousOwner",
          "type": "address"
        },
        {
          "indexed": true,
          "internalType": "address",
          "name": "newOwner",
          "type": "address"
        }
      ],
      "name": "OwnershipTransferred",
      "type": "event"
    },
    {
      "anonymous": false,
      "inputs": [
        {
          "indexed": false,
          "internalType": "uint256",
          "name": "newFee",
          "type": "uint256"
        }
      ],
      "name": "TradingFeeUpdated",
      "type": "event"
    },
    {
      "inputs": [],
      "name": "BASIS_POINTS",
      "outputs": [
        {
          "internalType": "uint256",
          "name": "",
          "type": "uint256"
        }
      ],
      "stateMutability": "view",
      "type": "function"
    },
    {
      "inputs": [],
      "name": "MIN_ORDER_SIZE",
      "outputs": [
        {
          "internalType": "uint256",
          "name": "",
          "type": "uint256"
        }
      ],
      "stateMutability": "view",
      "type": "function"
    },
    {
      "inputs": [
        {
          "internalType": "uint256",
          "name": "",
          "type": "uint256"
        }
      ],
      "name": "activeBuyOrders",
      "outputs": [
        {
          "internalType": "uint256",
          "name": "",
          "type": "uint256"
        }
      ],
      "stateMutability": "view",
      "type": "function"
    },
    {
      "inputs": [
        {
          "internalType": "uint256",
          "name": "",
          "type": "uint256"
        }
      ],
      "name": "activeSellOrders",
      "outputs": [
        {
          "internalType": "uint256",
          "name": "",
          "type": "uint256"
        }
      ],
      "stateMutability": "view",
      "type": "function"
    },
    {
      "inputs": [
        {
          "internalType": "uint256",
          "name": "orderId",
          "type": "uint256"
        }
      ],
      "name": "cancelOrder",
      "outputs": [],
      "stateMutability": "nonpayable",
      "type": "function"
    },
    {
      "inputs": [
        {
          "internalType": "uint256",
          "name": "sbftAmount",
          "type": "uint256"
        },
        {
          "internalType": "uint256",
          "name": "usdcPrice",
          "type": "uint256"
        }
      ],
      "name": "createBuyOrder",
      "outputs": [],
      "stateMutability": "nonpayable",
      "type": "function"
    },
    {
      "inputs": [
        {
          "internalType": "uint256",
          "name": "sbftAmount",
          "type": "uint256"
        },
        {
          "internalType": "uint256",
          "name": "usdcPrice",
          "type": "uint256"
        }
      ],
      "name": "createSellOrder",
      "outputs": [],
      "stateMutability": "nonpayable",
      "type": "function"
    },
    {
      "inputs": [],
      "name": "feesCollected",
      "outputs": [
        {
          "internalType": "uint256",
          "name": "",
          "type": "uint256"
        }
      ],
      "stateMutability": "view",
      "type": "function"
    },
    {
      "inputs": [],
      "name": "getActiveBuyOrders",
      "outputs": [
        {
          "internalType": "uint256[]",
          "name": "",
          "type": "uint256[]"
        }
      ],
      "stateMutability": "view",
      "type": "function"
    },
    {
      "inputs": [],
      "name": "getActiveSellOrders",
      "outputs": [
        {
          "internalType": "uint256[]",
          "name": "",
          "type": "uint256[]"
        }
      ],
      "stateMutability": "view",
      "type": "function"
    },
    {
      "inputs": [],
      "name": "getMarketStats",
      "outputs": [
        {
          "internalType": "uint256",
          "name": "",
          "type": "uint256"
        },
        {
          "internalType": "uint256",
          "name": "",
          "type": "uint256"
        },
        {
          "internalType": "uint256",
          "name": "",
          "type": "uint256"
        }
      ],
      "stateMutability": "view",
      "type": "function"
    },
    {
      "inputs": [
        {
          "internalType": "uint256",
          "name": "orderId",
          "type": "uint256"
        }
      ],
      "name": "getOrder",
      "outputs": [
        {
          "components": [
            {
              "internalType": "uint256",
              "name": "id",
              "type": "uint256"
            },
            {
              "internalType": "address",
              "name": "user",
              "type": "address"
            },
            {
              "internalType": "bool",
              "name": "isBuyOrder",
              "type": "bool"
            },
            {
              "internalType": "uint256",
              "name": "sbftAmount",
              "type": "uint256"
            },
            {
              "internalType": "uint256",
              "name": "usdcPrice",
              "type": "uint256"
            },
            {
              "internalType": "uint256",
              "name": "totalValue",
              "type": "uint256"
            },
            {
              "internalType": "uint256",
              "name": "filled",
              "type": "uint256"
            },
            {
              "internalType": "uint256",
              "name": "timestamp",
              "type": "uint256"
            },
            {
              "internalType": "bool",
              "name": "active",
              "type": "bool"
            }
          ],
          "internalType": "struct SbFTMarketplace.Order",
          "name": "",
          "type": "tuple"
        }
      ],
      "stateMutability": "view",
      "type": "function"
    },
    {
      "inputs": [
        {
          "internalType": "address",
          "name": "user",
          "type": "address"
        }
      ],
      "name": "getUserOrders",
      "outputs": [
        {
          "internalType": "uint256[]",
          "name": "",
          "type": "uint256[]"
        }
      ],
      "stateMutability": "view",
      "type": "function"
    },
    {
      "inputs": [],
      "name": "orderCount",
      "outputs": [
        {
          "internalType": "uint256",
          "name": "",
          "type": "uint256"
        }
      ],
      "stateMutability": "view",
      "type": "function"
    },
    {
      "inputs": [
        {
          "internalType": "uint256",
          "name": "",
          "type": "uint256"
        }
      ],
      "name": "orders",
      "outputs": [
        {
          "internalType": "uint256",
          "name": "id",
          "type": "uint256"
        },
        {
          "internalType": "address",
          "name": "user",
          "type": "address"
        },
        {
          "internalType": "bool",
          "name": "isBuyOrder",
          "type": "bool"
        },
        {
          "internalType": "uint256",
          "name": "sbftAmount",
          "type": "uint256"
        },
        {
          "internalType": "uint256",
          "name": "usdcPrice",
          "type": "uint256"
        },
        {
          "internalType": "uint256",
          "name": "totalValue",
          "type": "uint256"
        },
        {
          "internalType": "uint256",
          "name": "filled",
          "type": "uint256"
        },
        {
          "internalType": "uint256",
          "name": "timestamp",
          "type": "uint256"
        },
        {
          "internalType": "bool",
          "name": "active",
          "type": "bool"
        }
      ],
      "stateMutability": "view",
      "type": "function"
    },
    {
      "inputs": [],
      "name": "owner",
      "outputs": [
        {
          "internalType": "address",
          "name": "",
          "type": "address"
        }
      ],
      "stateMutability": "view",
      "type": "function"
    },
    {
      "inputs": [],
      "name": "renounceOwnership",
      "outputs": [],
      "stateMutability": "nonpayable",
      "type": "function"
    },
    {
      "inputs": [],
      "name": "sbftToken",
      "outputs": [
        {
          "internalType": "contract IERC20",
          "name": "",
          "type": "address"
        }
      ],
      "stateMutability": "view",
      "type": "function"
    },
    {
      "inputs": [],
      "name": "totalTrades",
      "outputs": [
        {
          "internalType": "uint256",
          "name": "",
          "type": "uint256"
        }
      ],
      "stateMutability": "view",
      "type": "function"
    },
    {
      "inputs": [],
      "name": "totalVolume",
      "outputs": [
        {
          "internalType": "uint256",
          "name": "",
          "type": "uint256"
        }
      ],
      "stateMutability": "view",
      "type": "function"
    },
    {
      "inputs": [],
      "name": "tradingFee",
      "outputs": [
        {
          "internalType": "uint256",
          "name": "",
          "type": "uint256"
        }
      ],
      "stateMutability": "view",
      "type": "function"
    },
    {
      "inputs": [
        {
          "internalType": "address",
          "name": "newOwner",
          "type": "address"
        }
      ],
      "name": "transferOwnership",
      "outputs": [],
      "stateMutability": "nonpayable",
      "type": "function"
    },
    {
      "inputs": [
        {
          "internalType": "uint256",
          "name": "newFee",
          "type": "uint256"
        }
      ],
      "name": "updateTradingFee",
      "outputs": [],
      "stateMutability": "nonpayable",
      "type": "function"
    },
    {
      "inputs": [],
      "name": "usdcToken",
      "outputs": [
        {
          "internalType": "contract IERC20",
          "name": "",
          "type": "address"
        }
      ],
      "stateMutability": "view",
      "type": "function"
    },
    {
      "inputs": [
        {
          "internalType": "address",
          "name": "",
          "type": "address"
        },
        {
          "internalType": "uint256",
          "name": "",
          "type": "uint256"
        }
      ],
      "name": "userOrders",
      "outputs": [
        {
          "internalType": "uint256",
          "name": "",
          "type": "uint256"
        }
      ],
      "stateMutability": "view",
      "type": "function"
    },
    {
      "inputs": [
        {
          "internalType": "address",
          "name": "to",
          "type": "address"
        }
      ],
      "name": "withdrawFees",
      "outputs": [],
      "stateMutability": "nonpayable",
      "type": "function"
    }
  ],
  "bytecode": "0x608060405260fa60045534801561001557600080fd5b506040516121133803806121138339810160408190526100349161019c565b338061005b57604051631e4fbdf760e01b8152600060048201526024015b60405180910390fd5b61006481610130565b50600180556001600160a01b0382166100b45760405162461bcd60e51b815260206004820152601260248201527124b73b30b634b21039b1232a103a37b5b2b760711b6044820152606401610052565b6001600160a01b0381166100ff5760405162461bcd60e51b815260206004820152601260248201527124b73b30b634b2102aa9a221903a37b5b2b760711b6044820152606401610052565b600280546001600160a01b039384166001600160a01b031991821617909155600380549290931691161790556101cf565b600080546001600160a01b038381166001600160a01b0319831681178455604051919092169283917f8be0079c531659141344cd1fd0a4f28419497f9722a3daafe3b4186f6b6457e09190a35050565b80516001600160a01b038116811461019757600080fd5b919050565b600080604083850312156101af57600080fd5b6101b883610180565b91506101c660208401610180565b90509250929050565b611f35806101de6000396000f3fe608060405234801561001057600080fd5b506004361061018e5760003560e01c80638da5cb5b116100de578063e1a6782811610097578063ec62ed2811610071578063ec62ed28146103ce578063f071db5a146103e1578063f2fde38b146103ea578063ff4cd5b9146103fd57600080fd5b8063e1a67828146103a9578063e1f1c4a7146103bc578063e275c997146103c557600080fd5b80638da5cb5b1461029b578063a85c38ef146102ac578063cc7075bb1461036a578063d09ef24114610372578063d3dec67714610392578063d3f82d8e1461039a57600080fd5b8063514fcac71161014b57806363c69f081161012557806363c69f081461024d578063715018a61461026d5780637895e5a714610275578063856652e91461028857600080fd5b8063514fcac71461022857806356f433521461023b5780635f81a57c1461024457600080fd5b806311eac85514610193578063164e68de146101c35780631df68102146101d85780631ec42dd3146101eb5780632453ffa8146101fe5780632cb4f4b714610215575b600080fd5b6003546101a6906001600160a01b031681565b6040516001600160a01b0390911681526020015b60405180910390f35b6101d66101d1366004611cc1565b610421565b005b6101d66101e6366004611ce3565b61063a565b6002546101a6906001600160a01b031681565b61020760075481565b6040519081526020016101ba565b6101d6610223366004611ce3565b610a23565b6101d6610236366004611d05565b610e48565b61020760045481565b610207600a5481565b61026061025b366004611cc1565b61116f565b6040516101ba9190611d1e565b6101d66111db565b610207610283366004611d05565b6111ef565b610207610296366004611d61565b611210565b6000546001600160a01b03166101a6565b6103166102ba366004611d05565b60056020819052600091825260409091208054600182015460028301546003840154600485015495850154600686015460079096015494966001600160a01b0385169660ff600160a01b90960486169694959394919390911689565b60408051998a526001600160a01b0390981660208a0152951515968801969096526060870193909352608086019190915260a085015260c084015260e08301919091521515610100820152610120016101ba565b610260611241565b610385610380366004611d05565b611299565b6040516101ba9190611d8b565b610260611383565b610207670de0b6b3a764000081565b6101d66103b7366004611d05565b6113d9565b61020761271081565b610207600b5481565b6102076103dc366004611d05565b611466565b610207600c5481565b6101d66103f8366004611cc1565b611476565b600a54600b54600c54604080519384526020840192909252908201526060016101ba565b6104296114b1565b6001600160a01b0381166104765760405162461bcd60e51b815260206004820152600f60248201526e496e76616c6964206164647265737360881b60448201526064015b60405180910390fd5b6003546040516370a0823160e01b81523060048201526000916001600160a01b0316906370a0823190602401602060405180830381865afa1580156104bf573d6000803e3d6000fd5b505050506040513d601f19601f820116820180604052508101906104e39190611e04565b905060006104ef6114de565b9050600081116105375760405162461bcd60e51b81526020600482015260136024820152724e6f206665657320746f20776974686472617760681b604482015260640161046d565b60035460405163a9059cbb60e01b81526001600160a01b038581166004830152602482018490529091169063a9059cbb906044016020604051808303816000875af115801561058a573d6000803e3d6000fd5b505050506040513d601f19601f820116820180604052508101906105ae9190611e1d565b6105f25760405162461bcd60e51b8152602060048201526015602482015274119959481dda5d1a191c985dd85b0819985a5b1959605a1b604482015260640161046d565b826001600160a01b03167fc0819c13be868895eb93e40eaceb96de976442fa1d404e5c55f14bb65a8c489a8260405161062d91815260200190565b60405180910390a2505050565b610642611615565b670de0b6b3a76400008210156106955760405162461bcd60e51b81526020600482015260186024820152774f726465722062656c6f77206d696e696d756d2073697a6560401b604482015260640161046d565b600081116106e55760405162461bcd60e51b815260206004820152601c60248201527f5072696365206d7573742062652067726561746572207468616e203000000000604482015260640161046d565b6002546040516370a0823160e01b815233600482015283916001600160a01b0316906370a0823190602401602060405180830381865afa15801561072d573d6000803e3d6000fd5b505050506040513d601f19601f820116820180604052508101906107519190611e04565b101561079f5760405162461bcd60e51b815260206004820152601960248201527f496e73756666696369656e7420736246542062616c616e636500000000000000604482015260640161046d565b6000670de0b6b3a76400006107b48385611e55565b6107be9190611e72565b6002546040516323b872dd60e01b8152336004820152306024820152604481018690529192506001600160a01b0316906323b872dd906064016020604051808303816000875af1158015610816573d6000803e3d6000fd5b505050506040513d601f19601f8201168201806040525081019061083a9190611e1d565b61087d5760405162461bcd60e51b81526020600482015260146024820152731cd89195081d1c985b9cd9995c8819985a5b195960621b604482015260640161046d565b600780546000918261088e83611e94565b9091555060408051610120810182528281523360208083018281526000848601818152606086018c8152608087018c815260a088018c815260c089018581524260e08b0190815260016101008c018181528e89526005808c528e8a209d518e5599518d8301805499511515600160a01b026001600160a81b0319909a166001600160a01b03929092169190911798909817909755945160028c0155925160038b0155905160048a01555194880194909455925160068088019190915590516007909601805496151560ff1997909716969096179095558381529382528484208054808301825590855291842090910185905560098054918201815583527f6e1540171b6c0c960b71a7020d9f60077f6af931a8bbf590da0223dacf75c7af018490559151929350909183917fead3c1cd34e260453780db24b86c33f236918c1639aa984f3001d44b52c074f791610a039190899089908990931515845260208401929092526040830152606082015260800190565b60405180910390a3610a148161163f565b5050610a1f60018055565b5050565b610a2b611615565b670de0b6b3a7640000821015610a7e5760405162461bcd60e51b81526020600482015260186024820152774f726465722062656c6f77206d696e696d756d2073697a6560401b604482015260640161046d565b60008111610ace5760405162461bcd60e51b815260206004820152601c60248201527f5072696365206d7573742062652067726561746572207468616e203000000000604482015260640161046d565b6000670de0b6b3a7640000610ae38385611e55565b610aed9190611e72565b905060008111610b4a5760405162461bcd60e51b815260206004820152602260248201527f546f74616c2076616c7565206d7573742062652067726561746572207468616e604482015261020360f41b606482015260840161046d565b6003546040516370a0823160e01b815233600482015282916001600160a01b0316906370a0823190602401602060405180830381865afa158015610b92573d6000803e3d6000fd5b505050506040513d601f19601f82011682018060405250810190610bb69190611e04565b1015610c045760405162461bcd60e51b815260206004820152601960248201527f496e73756666696369656e7420555344432062616c616e636500000000000000604482015260640161046d565b6003546040516323b872dd60e01b8152336004820152306024820152604481018390526001600160a01b03909116906323b872dd906064016020604051808303816000875af1158015610c5b573d6000803e3d6000fd5b505050506040513d601f19601f82011682018060405250810190610c7f9190611e1d565b610cc25760405162461bcd60e51b81526020600482015260146024820152731554d110c81d1c985b9cd9995c8819985a5b195960621b604482015260640161046d565b6007805460009182610cd383611e94565b9091555060408051610120810182528281523360208083018281526001848601818152606086018c8152608087018c815260a088018c8152600060c08a018181524260e08c019081526101008c018881528e84526005808c528e85209d518e5599518d8a01805499511515600160a01b026001600160a81b0319909a166001600160a01b03929092169190911798909817909755945160028c0155925160038b0155905160048a01559051948801949094555160068088019190915590516007909601805496151560ff1997909716969096179095558382529382528481208054808601825590825291812090910185905560088054808501825591527ff3f7a9fe364faab93b216da50a3214154f22a0a2b415b23a84c8169e8b636ee3018490559151929350909183917fead3c1cd34e260453780db24b86c33f236918c1639aa984f3001d44b52c074f791610a039190899089908990931515845260208401929092526040830152606082015260800190565b610e50611615565b6007548110610e985760405162461bcd60e51b815260206004820152601460248201527313dc99195c88191bd95cc81b9bdd08195e1a5cdd60621b604482015260640161046d565b600081815260056020526040902060018101546001600160a01b03163314610ef35760405162461bcd60e51b815260206004820152600e60248201526d2737ba103cb7bab91037b93232b960911b604482015260640161046d565b600781015460ff16610f3a5760405162461bcd60e51b815260206004820152601060248201526f4f72646572206e6f742061637469766560801b604482015260640161046d565b60078101805460ff191690556001810154600160a01b900460ff1615611056576000670de0b6b3a7640000826003015483600501548460020154610f7e9190611ead565b610f889190611e55565b610f929190611e72565b905080156110505760035460405163a9059cbb60e01b8152336004820152602481018390526001600160a01b039091169063a9059cbb906044016020604051808303816000875af1158015610feb573d6000803e3d6000fd5b505050506040513d601f19601f8201168201806040525081019061100f9190611e1d565b6110505760405162461bcd60e51b81526020600482015260126024820152711554d110c81c995d1d5c9b8819985a5b195960721b604482015260640161046d565b5061112c565b60008160050154826002015461106c9190611ead565b9050801561112a5760025460405163a9059cbb60e01b8152336004820152602481018390526001600160a01b039091169063a9059cbb906044016020604051808303816000875af11580156110c5573d6000803e3d6000fd5b505050506040513d601f19601f820116820180604052508101906110e99190611e1d565b61112a5760405162461bcd60e51b81526020600482015260126024820152711cd89195081c995d1d5c9b8819985a5b195960721b604482015260640161046d565b505b6111358261178c565b604051339083907f9384174c8517f5537b08e79211fc039e8a098571a3a2b4cb21dfa6f3237e8de190600090a35061116c60018055565b50565b6001600160a01b0381166000908152600660209081526040918290208054835181840281018401909452808452606093928301828280156111cf57602002820191906000526020600020905b8154815260200190600101908083116111bb575b50505050509050919050565b6111e36114b1565b6111ed60006118f1565b565b600981815481106111ff57600080fd5b600091825260209091200154905081565b6006602052816000526040600020818154811061122c57600080fd5b90600052602060002001600091509150505481565b6060600880548060200260200160405190810160405280929190818152602001828054801561128f57602002820191906000526020600020905b81548152602001906001019080831161127b575b5050505050905090565b6112f56040518061012001604052806000815260200160006001600160a01b0316815260200160001515815260200160008152602001600081526020016000815260200160008152602001600081526020016000151581525090565b506000908152600560208181526040928390208351610120810185528154815260018201546001600160a01b0381169382019390935260ff600160a01b90930483161515948101949094526002810154606085015260038101546080850152600481015460a08501529182015460c0840152600682015460e084015260079091015416151561010082015290565b6060600980548060200260200160405190810160405280929190818152602001828054801561128f576020028201919060005260206000209081548152602001906001019080831161127b575050505050905090565b6113e16114b1565b6103e881111561142b5760405162461bcd60e51b81526020600482015260156024820152744665652063616e6e6f74206578636565642031302560581b604482015260640161046d565b60048190556040518181527fa3dfe13986da4bcfdc32f544ebe130cb8ec20a2afc45e7c3994975076a08e5789060200160405180910390a150565b600881815481106111ff57600080fd5b61147e6114b1565b6001600160a01b0381166114a857604051631e4fbdf760e01b81526000600482015260240161046d565b61116c816118f1565b6000546001600160a01b031633146111ed5760405163118cdaa760e01b815233600482015260240161046d565b6003546040516370a0823160e01b815230600482015260009182916001600160a01b03909116906370a0823190602401602060405180830381865afa15801561152b573d6000803e3d6000fd5b505050506040513d601f19601f8201168201806040525081019061154f9190611e04565b90506000805b6008548110156115f5576000600560006008848154811061157857611578611ec0565b600091825260208083209091015483528201929092526040019020600781015490915060ff16156115ec576000816005015482600201546115b99190611ead565b9050670de0b6b3a76400008260030154826115d49190611e55565b6115de9190611e72565b6115e89085611ed6565b9350505b50600101611555565b5080821161160457600061160e565b61160e8183611ead565b9250505090565b60026001540361163857604051633ee5aeb560e01b815260040160405180910390fd5b6002600155565b60008181526005602052604090206001810154600160a01b900460ff16156116f95760005b6009548110156116f45760006009828154811061168357611683611ec0565b60009182526020808320909101548083526005909152604090912060078101549192509060ff166116b55750506116ec565b8360030154816003015411156116cc5750506116ec565b6116d68583611941565b600784015460ff166116e9575050505050565b50505b600101611664565b505050565b60005b6008548110156116f45760006008828154811061171b5761171b611ec0565b60009182526020808320909101548083526005909152604090912060078101549192509060ff1661174d575050611784565b836003015481600301541015611764575050611784565b61176e8286611941565b600784015460ff16611781575050505050565b50505b6001016116fc565b60008181526005602052604090206001810154600160a01b900460ff161561185d5760005b6008548110156116f45782600882815481106117cf576117cf611ec0565b90600052602060002001540361185557600880546117ef90600190611ead565b815481106117ff576117ff611ec0565b90600052602060002001546008828154811061181d5761181d611ec0565b600091825260209091200155600880548061183a5761183a611ee9565b60019003818190600052602060002001600090559055505050565b6001016117b1565b60005b6009548110156116f457826009828154811061187e5761187e611ec0565b9060005260206000200154036118e9576009805461189e90600190611ead565b815481106118ae576118ae611ec0565b9060005260206000200154600982815481106118cc576118cc611ec0565b600091825260209091200155600980548061183a5761183a611ee9565b600101611860565b600080546001600160a01b038381166001600160a01b0319831681178455604051919092169283917f8be0079c531659141344cd1fd0a4f28419497f9722a3daafe3b4186f6b6457e09190a35050565b600082815260056020819052604080832084845290832091810154600282015491939161196e9190611ead565b90506000826005015483600201546119869190611ead565b905060008183106119975781611999565b825b90506000670de0b6b3a76400008660030154836119b69190611e55565b6119c09190611e72565b90506000612710600454836119d59190611e55565b6119df9190611e72565b905060006119ed8284611ead565b905083886005016000828254611a039190611ed6565b9250508190555083876005016000828254611a1e9190611ed6565b9091555050600254600189015460405163a9059cbb60e01b81526001600160a01b0391821660048201526024810187905291169063a9059cbb906044016020604051808303816000875af1158015611a7a573d6000803e3d6000fd5b505050506040513d601f19601f82011682018060405250810190611a9e9190611e1d565b611aea5760405162461bcd60e51b815260206004820152601d60248201527f73624654207472616e7366657220746f206275796572206661696c6564000000604482015260640161046d565b600354600188015460405163a9059cbb60e01b81526001600160a01b0391821660048201526024810184905291169063a9059cbb906044016020604051808303816000875af1158015611b41573d6000803e3d6000fd5b505050506040513d601f19601f82011682018060405250810190611b659190611e1d565b611bb15760405162461bcd60e51b815260206004820152601e60248201527f55534443207472616e7366657220746f2073656c6c6572206661696c65640000604482015260640161046d565b82600a6000828254611bc39190611ed6565b9091555050600b8054906000611bd883611e94565b919050555081600c6000828254611bef9190611ed6565b90915550506002880154600589015403611c185760078801805460ff19169055611c188a61178c565b8660020154876005015403611c3c5760078701805460ff19169055611c3c8961178c565b6001878101549089015460408051878152602081018790529081018590526001600160a01b0392831692909116908c907f366ed47cf11f7d9ebd85e4df9a87f35ba12bf45a82db0a7d99e318c631ca6e899060600160405180910390a450505050505050505050565b80356001600160a01b0381168114611cbc57600080fd5b919050565b600060208284031215611cd357600080fd5b611cdc82611ca5565b9392505050565b60008060408385031215611cf657600080fd5b50508035926020909101359150565b600060208284031215611d1757600080fd5b5035919050565b602080825282518282018190526000918401906040840190835b81811015611d56578351835260209384019390920191600101611d38565b509095945050505050565b60008060408385031215611d7457600080fd5b611d7d83611ca5565b946020939093013593505050565b6000610120820190508251825260018060a01b036020840151166020830152604083015115156040830152606083015160608301526080830151608083015260a083015160a083015260c083015160c083015260e083015160e0830152610100830151611dfd61010084018215159052565b5092915050565b600060208284031215611e1657600080fd5b5051919050565b600060208284031215611e2f57600080fd5b81518015158114611cdc57600080fd5b634e487b7160e01b600052601160045260246000fd5b8082028115828204841417611e6c57611e6c611e3f565b92915050565b600082611e8f57634e487b7160e01b600052601260045260246000fd5b500490565b600060018201611ea657611ea6611e3f565b5060010190565b81810381811115611e6c57611e6c611e3f565b634e487b7160e01b600052603260045260246000fd5b80820180821115611e6c57611e6c611e3f565b634e487b7160e01b600052603160045260246000fdfea26469706673582212202570d8794dcefac9267fe6e38812d64b0520aeff73439bc0b3c964e75836b3f664736f6c634300081c0033",
  "linkReferences": {},
  "deployedLinkReferences": {}
}