{
  "_format": "hh-sol-artifact-1",
  "contractName": "MockUSDC",
  "sourceName": "contracts/tokens/MockUSDCToken.sol",
  "abi": [
    {
      "inputs": [],
      "stateMutability": "nonpayable",
      "type": "constructor"
    },
    {
      "inputs": [
        {
          "internalType": "address",
          "name": "spender",
          "type": "address"
        },
        {
          "internalType": "uint256",
          "name": "allowance",
          "type": "uint256"
        },
        {
          "internalType": "uint256",
          "name": "needed",
          "type": "uint256"
        }
      ],
      "name": "ERC20InsufficientAllowance",
      "type": "error"
    },
    {
      "inputs": [
        {
          "internalType": "address",
          "name": "sender",
          "type": "address"
        },
        {
          "internalType": "uint256",
          "name": "balance",
          "type": "uint256"
        },
        {
          "internalType": "uint256",
          "name": "needed",
          "type": "uint256"
        }
      ],
      "name": "ERC20InsufficientBalance",
      "type": "error"
    },
    {
      "inputs": [
        {
          "internalType": "address",
          "name": "approver",
          "type": "address"
        }
      ],
      "name": "ERC20InvalidApprover",
      "type": "error"
    },
    {
      "inputs": [
        {
          "internalType": "address",
          "name": "receiver",
          "type": "address"
        }
      ],
      "name": "ERC20InvalidReceiver",
      "type": "error"
    },
    {
      "inputs": [
        {
          "internalType": "address",
          "name": "sender",
          "type": "address"
        }
      ],
      "name": "ERC20InvalidSender",
      "type": "error"
    },
    {
      "inputs": [
        {
          "internalType": "address",
          "name": "spender",
          "type": "address"
        }
      ],
      "name": "ERC20InvalidSpender",
      "type": "error"
    },
    {
      "inputs": [
        {
          "internalType": "address",
          "name": "owner",
          "type": "address"
        }
      ],
      "name": "OwnableInvalidOwner",
      "type": "error"
    },
    {
      "inputs": [
        {
          "internalType": "address",
          "name": "account",
          "type": "address"
        }
      ],
      "name": "OwnableUnauthorizedAccount",
      "type": "error"
    },
    {
      "anonymous": false,
      "inputs": [
        {
          "indexed": true,
          "internalType": "address",
          "name": "owner",
          "type": "address"
        },
        {
          "indexed": true,
          "internalType": "address",
          "name": "spender",
          "type": "address"
        },
        {
          "indexed": false,
          "internalType": "uint256",
          "name": "value",
          "type": "uint256"
        }
      ],
      "name": "Approval",
      "type": "event"
    },
    {
      "anonymous": false,
      "inputs": [
        {
          "indexed": true,
          "internalType": "address",
          "name": "user",
          "type": "address"
        },
        {
          "indexed": false,
          "internalType": "uint256",
          "name": "amount",
          "type": "uint256"
        }
      ],
      "name": "FaucetUsed",
      "type": "event"
    },
    {
      "anonymous": false,
      "inputs": [
        {
          "indexed": true,
          "internalType": "address",
          "name": "previousOwner",
          "type": "address"
        },
        {
          "indexed": true,
          "internalType": "address",
          "name": "newOwner",
          "type": "address"
        }
      ],
      "name": "OwnershipTransferred",
      "type": "event"
    },
    {
      "anonymous": false,
      "inputs": [
        {
          "indexed": true,
          "internalType": "address",
          "name": "to",
          "type": "address"
        },
        {
          "indexed": false,
          "internalType": "uint256",
          "name": "amount",
          "type": "uint256"
        }
      ],
      "name": "TokensMinted",
      "type": "event"
    },
    {
      "anonymous": false,
      "inputs": [
        {
          "indexed": true,
          "internalType": "address",
          "name": "from",
          "type": "address"
        },
        {
          "indexed": true,
          "internalType": "address",
          "name": "to",
          "type": "address"
        },
        {
          "indexed": false,
          "internalType": "uint256",
          "name": "value",
          "type": "uint256"
        }
      ],
      "name": "Transfer",
      "type": "event"
    },
    {
      "inputs": [],
      "name": "FAUCET_AMOUNT",
      "outputs": [
        {
          "internalType": "uint256",
          "name": "",
          "type": "uint256"
        }
      ],
      "stateMutability": "view",
      "type": "function"
    },
    {
      "inputs": [],
      "name": "FAUCET_COOLDOWN",
      "outputs": [
        {
          "internalType": "uint256",
          "name": "",
          "type": "uint256"
        }
      ],
      "stateMutability": "view",
      "type": "function"
    },
    {
      "inputs": [
        {
          "internalType": "address",
          "name": "owner",
          "type": "address"
        },
        {
          "internalType": "address",
          "name": "spender",
          "type": "address"
        }
      ],
      "name": "allowance",
      "outputs": [
        {
          "internalType": "uint256",
          "name": "",
          "type": "uint256"
        }
      ],
      "stateMutability": "view",
      "type": "function"
    },
    {
      "inputs": [
        {
          "internalType": "address",
          "name": "spender",
          "type": "address"
        },
        {
          "internalType": "uint256",
          "name": "value",
          "type": "uint256"
        }
      ],
      "name": "approve",
      "outputs": [
        {
          "internalType": "bool",
          "name": "",
          "type": "bool"
        }
      ],
      "stateMutability": "nonpayable",
      "type": "function"
    },
    {
      "inputs": [
        {
          "internalType": "address",
          "name": "account",
          "type": "address"
        }
      ],
      "name": "balanceOf",
      "outputs": [
        {
          "internalType": "uint256",
          "name": "",
          "type": "uint256"
        }
      ],
      "stateMutability": "view",
      "type": "function"
    },
    {
      "inputs": [
        {
          "internalType": "address",
          "name": "user",
          "type": "address"
        }
      ],
      "name": "canUseFaucet",
      "outputs": [
        {
          "internalType": "bool",
          "name": "canUse",
          "type": "bool"
        },
        {
          "internalType": "uint256",
          "name": "timeRemaining",
          "type": "uint256"
        }
      ],
      "stateMutability": "view",
      "type": "function"
    },
    {
      "inputs": [],
      "name": "decimals",
      "outputs": [
        {
          "internalType": "uint8",
          "name": "",
          "type": "uint8"
        }
      ],
      "stateMutability": "view",
      "type": "function"
    },
    {
      "inputs": [
        {
          "internalType": "uint256",
          "name": "amount",
          "type": "uint256"
        }
      ],
      "name": "emergencyMint",
      "outputs": [],
      "stateMutability": "nonpayable",
      "type": "function"
    },
    {
      "inputs": [],
      "name": "faucet",
      "outputs": [],
      "stateMutability": "nonpayable",
      "type": "function"
    },
    {
      "inputs": [
        {
          "internalType": "address",
          "name": "",
          "type": "address"
        }
      ],
      "name": "lastFaucetTime",
      "outputs": [
        {
          "internalType": "uint256",
          "name": "",
          "type": "uint256"
        }
      ],
      "stateMutability": "view",
      "type": "function"
    },
    {
      "inputs": [
        {
          "internalType": "address",
          "name": "to",
          "type": "address"
        },
        {
          "internalType": "uint256",
          "name": "amount",
          "type": "uint256"
        }
      ],
      "name": "mint",
      "outputs": [],
      "stateMutability": "nonpayable",
      "type": "function"
    },
    {
      "inputs": [
        {
          "internalType": "address[]",
          "name": "recipients",
          "type": "address[]"
        },
        {
          "internalType": "uint256[]",
          "name": "amounts",
          "type": "uint256[]"
        }
      ],
      "name": "mintBatch",
      "outputs": [],
      "stateMutability": "nonpayable",
      "type": "function"
    },
    {
      "inputs": [],
      "name": "name",
      "outputs": [
        {
          "internalType": "string",
          "name": "",
          "type": "string"
        }
      ],
      "stateMutability": "view",
      "type": "function"
    },
    {
      "inputs": [],
      "name": "owner",
      "outputs": [
        {
          "internalType": "address",
          "name": "",
          "type": "address"
        }
      ],
      "stateMutability": "view",
      "type": "function"
    },
    {
      "inputs": [],
      "name": "renounceOwnership",
      "outputs": [],
      "stateMutability": "nonpayable",
      "type": "function"
    },
    {
      "inputs": [],
      "name": "symbol",
      "outputs": [
        {
          "internalType": "string",
          "name": "",
          "type": "string"
        }
      ],
      "stateMutability": "view",
      "type": "function"
    },
    {
      "inputs": [],
      "name": "totalSupply",
      "outputs": [
        {
          "internalType": "uint256",
          "name": "",
          "type": "uint256"
        }
      ],
      "stateMutability": "view",
      "type": "function"
    },
    {
      "inputs": [
        {
          "internalType": "address",
          "name": "to",
          "type": "address"
        },
        {
          "internalType": "uint256",
          "name": "value",
          "type": "uint256"
        }
      ],
      "name": "transfer",
      "outputs": [
        {
          "internalType": "bool",
          "name": "",
          "type": "bool"
        }
      ],
      "stateMutability": "nonpayable",
      "type": "function"
    },
    {
      "inputs": [
        {
          "internalType": "address",
          "name": "from",
          "type": "address"
        },
        {
          "internalType": "address",
          "name": "to",
          "type": "address"
        },
        {
          "internalType": "uint256",
          "name": "value",
          "type": "uint256"
        }
      ],
      "name": "transferFrom",
      "outputs": [
        {
          "internalType": "bool",
          "name": "",
          "type": "bool"
        }
      ],
      "stateMutability": "nonpayable",
      "type": "function"
    },
    {
      "inputs": [
        {
          "internalType": "address",
          "name": "newOwner",
          "type": "address"
        }
      ],
      "name": "transferOwnership",
      "outputs": [],
      "stateMutability": "nonpayable",
      "type": "function"
    }
  ],
  "bytecode": "0x60806040526005805460ff60a01b1916600360a11b17905534801561002357600080fd5b50336040518060400160405280600e81526020016d5354414b4542414b45205553444360901b815250604051806040016040528060048152602001635553444360e01b8152508160039081610078919061032a565b506004610085828261032a565b5050506001600160a01b0381166100b757604051631e4fbdf760e01b8152600060048201526024015b60405180910390fd5b6100c0816100d5565b506100d03364e8d4a51000610127565b61040f565b600580546001600160a01b038381166001600160a01b0319831681179093556040519116919082907f8be0079c531659141344cd1fd0a4f28419497f9722a3daafe3b4186f6b6457e090600090a35050565b6001600160a01b0382166101515760405163ec442f0560e01b8152600060048201526024016100ae565b61015d60008383610161565b5050565b6001600160a01b03831661018c57806002600082825461018191906103e8565b909155506101fe9050565b6001600160a01b038316600090815260208190526040902054818110156101df5760405163391434e360e21b81526001600160a01b038516600482015260248101829052604481018390526064016100ae565b6001600160a01b03841660009081526020819052604090209082900390555b6001600160a01b03821661021a57600280548290039055610239565b6001600160a01b03821660009081526020819052604090208054820190555b816001600160a01b0316836001600160a01b03167fddf252ad1be2c89b69c2b068fc378daa952ba7f163c4a11628f55a4df523b3ef8360405161027e91815260200190565b60405180910390a3505050565b634e487b7160e01b600052604160045260246000fd5b600181811c908216806102b557607f821691505b6020821081036102d557634e487b7160e01b600052602260045260246000fd5b50919050565b601f82111561032557806000526020600020601f840160051c810160208510156103025750805b601f840160051c820191505b81811015610322576000815560010161030e565b50505b505050565b81516001600160401b038111156103435761034361028b565b6103578161035184546102a1565b846102db565b6020601f82116001811461038b57600083156103735750848201515b600019600385901b1c1916600184901b178455610322565b600084815260208120601f198516915b828110156103bb578785015182556020948501946001909201910161039b565b50848210156103d95786840151600019600387901b60f8161c191681555b50505050600190811b01905550565b8082018082111561040957634e487b7160e01b600052601160045260246000fd5b92915050565b610dea8061041e6000396000f3fe608060405234801561001057600080fd5b506004361061012c5760003560e01c80637bc1f6cc116100ad578063a9059cbb11610071578063a9059cbb14610291578063dd62ed3e146102a4578063de5f72fd146102dd578063f2fde38b146102e5578063ffcc66dc146102f857600080fd5b80637bc1f6cc146102315780637c88e3d9146102515780637d1d5d19146102645780638da5cb5b1461026e57806395d89b411461028957600080fd5b806340c10f19116100f457806340c10f19146101b657806370a08231146101cb578063715018a6146101f457806376697640146101fc578063780768fc1461020757600080fd5b806306fdde0314610131578063095ea7b31461014f57806318160ddd1461017257806323b872dd14610184578063313ce56714610197575b600080fd5b61013961030b565b6040516101469190610b2c565b60405180910390f35b61016261015d366004610b96565b61039d565b6040519015158152602001610146565b6002545b604051908152602001610146565b610162610192366004610bc0565b6103b7565b600554600160a01b900460ff1660405160ff9091168152602001610146565b6101c96101c4366004610b96565b6103db565b005b6101766101d9366004610bfd565b6001600160a01b031660009081526020819052604090205490565b6101c9610434565b610176633b9aca0081565b61021a610215366004610bfd565b610448565b604080519215158352602083019190915201610146565b61017661023f366004610bfd565b60066020526000908152604090205481565b6101c961025f366004610c6b565b61049f565b6101766201518081565b6005546040516001600160a01b039091168152602001610146565b6101396105d7565b61016261029f366004610b96565b6105e6565b6101766102b2366004610cdc565b6001600160a01b03918216600090815260016020908152604080832093909416825291909152205490565b6101c96105f4565b6101c96102f3366004610bfd565b6106bc565b6101c9610306366004610d0f565b6106fa565b60606003805461031a90610d28565b80601f016020809104026020016040519081016040528092919081815260200182805461034690610d28565b80156103935780601f1061036857610100808354040283529160200191610393565b820191906000526020600020905b81548152906001019060200180831161037657829003601f168201915b5050505050905090565b6000336103ab818585610784565b60019150505b92915050565b6000336103c5858285610796565b6103d0858585610815565b506001949350505050565b6103e3610874565b6103ed82826108a1565b816001600160a01b03167f3f2c9d57c068687834f0de942a9babb9e5acab57d516d3480a3c16ee165a42738260405161042891815260200190565b60405180910390a25050565b61043c610874565b61044660006108db565b565b6001600160a01b03811660009081526006602052604081205481908190610473906201518090610d78565b9050804210610489575060019360009350915050565b60006104954283610d8b565b9250925050915091565b6104a7610874565b8281146104f45760405162461bcd60e51b8152602060048201526016602482015275082e4e4c2f2e640d8cadccee8d040dad2e6dac2e8c6d60531b60448201526064015b60405180910390fd5b60005b838110156105d05761054785858381811061051457610514610d9e565b90506020020160208101906105299190610bfd565b84848481811061053b5761053b610d9e565b905060200201356108a1565b84848281811061055957610559610d9e565b905060200201602081019061056e9190610bfd565b6001600160a01b03167f3f2c9d57c068687834f0de942a9babb9e5acab57d516d3480a3c16ee165a42738484848181106105aa576105aa610d9e565b905060200201356040516105c091815260200190565b60405180910390a26001016104f7565b5050505050565b60606004805461031a90610d28565b6000336103ab818585610815565b33600090815260066020526040902054610612906201518090610d78565b4210156106615760405162461bcd60e51b815260206004820152601c60248201527f46617563657420636f6f6c646f776e206e6f742066696e69736865640000000060448201526064016104eb565b33600081815260066020526040902042905561068190633b9aca006108a1565b604051633b9aca00815233907fc471df7d13ab46c73ec6eb2da0f35f84077f20d50243ba09a714b82cffc54de99060200160405180910390a2565b6106c4610874565b6001600160a01b0381166106ee57604051631e4fbdf760e01b8152600060048201526024016104eb565b6106f7816108db565b50565b6402540be4008111156107425760405162461bcd60e51b815260206004820152601060248201526f416d6f756e7420746f6f206c6172676560801b60448201526064016104eb565b61074c33826108a1565b60405181815233907f3f2c9d57c068687834f0de942a9babb9e5acab57d516d3480a3c16ee165a42739060200160405180910390a250565b610791838383600161092d565b505050565b6001600160a01b0383811660009081526001602090815260408083209386168352929052205460001981101561080f578181101561080057604051637dc7a0d960e11b81526001600160a01b038416600482015260248101829052604481018390526064016104eb565b61080f8484848403600061092d565b50505050565b6001600160a01b03831661083f57604051634b637e8f60e11b8152600060048201526024016104eb565b6001600160a01b0382166108695760405163ec442f0560e01b8152600060048201526024016104eb565b610791838383610a02565b6005546001600160a01b031633146104465760405163118cdaa760e01b81523360048201526024016104eb565b6001600160a01b0382166108cb5760405163ec442f0560e01b8152600060048201526024016104eb565b6108d760008383610a02565b5050565b600580546001600160a01b038381166001600160a01b0319831681179093556040519116919082907f8be0079c531659141344cd1fd0a4f28419497f9722a3daafe3b4186f6b6457e090600090a35050565b6001600160a01b0384166109575760405163e602df0560e01b8152600060048201526024016104eb565b6001600160a01b03831661098157604051634a1406b160e11b8152600060048201526024016104eb565b6001600160a01b038085166000908152600160209081526040808320938716835292905220829055801561080f57826001600160a01b0316846001600160a01b03167f8c5be1e5ebec7d5bd14f71427d1e84f3dd0314c0f7b2291e5b200ac8c7c3b925846040516109f491815260200190565b60405180910390a350505050565b6001600160a01b038316610a2d578060026000828254610a229190610d78565b90915550610a9f9050565b6001600160a01b03831660009081526020819052604090205481811015610a805760405163391434e360e21b81526001600160a01b038516600482015260248101829052604481018390526064016104eb565b6001600160a01b03841660009081526020819052604090209082900390555b6001600160a01b038216610abb57600280548290039055610ada565b6001600160a01b03821660009081526020819052604090208054820190555b816001600160a01b0316836001600160a01b03167fddf252ad1be2c89b69c2b068fc378daa952ba7f163c4a11628f55a4df523b3ef83604051610b1f91815260200190565b60405180910390a3505050565b602081526000825180602084015260005b81811015610b5a5760208186018101516040868401015201610b3d565b506000604082850101526040601f19601f83011684010191505092915050565b80356001600160a01b0381168114610b9157600080fd5b919050565b60008060408385031215610ba957600080fd5b610bb283610b7a565b946020939093013593505050565b600080600060608486031215610bd557600080fd5b610bde84610b7a565b9250610bec60208501610b7a565b929592945050506040919091013590565b600060208284031215610c0f57600080fd5b610c1882610b7a565b9392505050565b60008083601f840112610c3157600080fd5b50813567ffffffffffffffff811115610c4957600080fd5b6020830191508360208260051b8501011115610c6457600080fd5b9250929050565b60008060008060408587031215610c8157600080fd5b843567ffffffffffffffff811115610c9857600080fd5b610ca487828801610c1f565b909550935050602085013567ffffffffffffffff811115610cc457600080fd5b610cd087828801610c1f565b95989497509550505050565b60008060408385031215610cef57600080fd5b610cf883610b7a565b9150610d0660208401610b7a565b90509250929050565b600060208284031215610d2157600080fd5b5035919050565b600181811c90821680610d3c57607f821691505b602082108103610d5c57634e487b7160e01b600052602260045260246000fd5b50919050565b634e487b7160e01b600052601160045260246000fd5b808201808211156103b1576103b1610d62565b818103818111156103b1576103b1610d62565b634e487b7160e01b600052603260045260246000fdfea2646970667358221220ee6d10c2f4c965d76a90f802365da536430adef43b463995bf73100dff240a5864736f6c634300081c0033",
  "linkReferences": {},
  "deployedLinkReferences": {}
}